:100000000C9442190C948C2D0C946A190C946A1956
:100010000C946A190C946A190C949B2D0C946A190F
:100020000C946A190C946A190C946A190C946A1944
:100030000C946A190C94B42B0C946A190C946A19D8
:100040000C94F3290C946A190C94632A0C943D2A9D
:100050000C946A190C946A190C946A190C946A1914
:100060000C94952A0C946A1900000000000000000E
:100070000000000000000000000000000000000080
:100080000000000000000000000000000000000070
:100090000000000000000000000000000000000060
:1000A0000000000000000000000000000000000050
:1000B0000000000000000000000000000000000040
:1000C0000000000000000000000000000000000030
:1000D0000000000000000000000000000000000020
:1000E0000000000000000000000000000000000010
:1000F0000000000000000000000000000000000000
:1001000000000000000000000000000000000000EF
:1001100000000000000000000000000000000000DF
:1001200000000000000000000000000000000000CF
:1001300000000000000000000000000000000000BF
:1001400000000000000000000000000000000000AF
:10015000000000000000000000000000000000009F
:10016000000000000000000000000000000000008F
:10017000000000000000000000000000000000007F
:10018000000000000000000000000000000000006F
:10019000000000000000000000000000000000005F
:1001A000000000000000000000000000000000004F
:1001B000000000000000000000000000000000003F
:1001C000000000000000000000000000000000002F
:1001D000000000000000000000000000000000001F
:1001E000000000000000000000000000000000000F
:1001F00000000000000000000000000000000000FF
:1002000000000000000000000000000000000000EE
:1002100000000000000000000000000000000000DE
:1002200000000000000000000000000000000000CE
:1002300000000000000000000000000000000000BE
:1002400000000000000000000000000000000000AE
:10025000000000000000000000000000000000009E
:10026000000000000000000004000000000000008A
:100270000000000000000800044000000000000032
:100280000000000000000C004440000000000000DE
:100290000000000000000D8044600000000000002D
:1002A0000000000000000908666000000000000077
:1002B000000000000000190C23A000000000000056
:1002C000000000000000330C1EF0000000000000E1
:1002D0000000000000002E1003B00000000000002D
:1002E0000000000000003BE003F000000000000000
:1002F0000000000000001F8001FC00000000000062
:100300000000000000007F0000FF0000000002006D
:10031000008000000001FF0000FFE00000001E0060
:1003200000F00000000FFE000073F8000000FE0067
:1003300000FE0000003F9E0000387FF0000FFC0030
:10034000007FE0001FFC3C00003C0FFFFFFFE000CF
:10035000000FFFFFFFE07C00001E07FFFFFE000014
:100360000000FFFFFF80F800000F07FFFFF800000C
:1003700000007FFFFF81F800000F07FFFFF800007B
:1003800000007FFFFF83F000000787FFFFF80000F9
:1003900000007FFFFF07E0000007E7FFFFF000001D
:1003A00000003FFFFF0FC0000003E7FFFFE0000079
:1003B00000001FFFFF1F80000001EFFFFFC00000D3
:1003C00000001FFFFF1E0000000033FFFFC0000001
:1003D00000000FFFFF1C0000000039FFFF000000BD
:1003E000000007FFFE30000000000EFFFF000000CD
:1003F000000000FFFFE00000000007FFFE0000001B
:10040000000000FFFF800000000001FFF800000076
:100410000000001FFF0000000000007FE00000005F
:100420000000000FF80000000000000000000000C5
:1004300000000000000000000000000000000000BC
:1004400000000000000000000000000000000000AC
:10045000000000000000000000000000000000009C
:10046000000000000000000000000000000000008C
:10047000000000000000000000000000000000007C
:10048000000000000000000000000000000000006C
:10049000000000000000000000000000000000005C
:1004A000000000000000000000000000000000004C
:1004B000000000000000000000000000000000003C
:1004C000000000000000000000000000000000002C
:1004D000000000000000000000000000000000001C
:1004E000000000000000000000000000000000000C
:1004F00000000000000000000000000000000000FC
:1005000000000000000000000000000000000000EB
:1005100000000000000000000000000000000000DB
:1005200000000000000000000000000000000000CB
:1005300000000000000000000000000000000000BB
:1005400000000000000000000000000000000000AB
:10055000000000000000000000000000000000009B
:10056000000000000000000000000000000000008B
:10057000000000000000000000000000000000007B
:10058000000000000000000000000000000000006B
:10059000000000000000000040001FFFC00000003D
:1005A00000000000000000106003FFFFFC000000DE
:1005B000000000FFFF000030300FFFFFFFE00000F1
:1005C00000003FFFFFF80034987FFFFFFFFE0000B0
:1005D0000001FFFFFFFFF066C7FC3FFFFFFF800049
:1005E0000007FFFFFFFFFFC667C03FFFFFFFC00020
:1005F000001FFFFFFFFFFFFC3F007FFFFFFFF0003A
:10060000003FFFFFFFFC03F81C007FFFFFFFF80027
:10061000007CFFFFFFFC00781C007FFFFFFFFC0059
:100620000070FFFFFFFC00701C007FFFFFFE180042
:100630000040FFFFFFFC00701C007FFFFFFE00007A
:100640000000FFFFFFFC00701C007FFFFFFE0000AA
:100650000000FFFFFFFC00700E00FFFFFFFE000028
:100660000000FFFFFFFC00E00E00FFFFFFFE0000A8
:100670000000FFFFFFFE00E00E00FFFFFFFE000096
:100680000000FFFFFFFE00E00F00FFFFFFFE000085
:100690000000FFFFFFFC01E00F007FFFFFFE0000F6
:1006A0000000FFFFFFFC01E007007FFFFFFE0000EE
:1006B0000000FFFFFFFC01C007807FFFFFFC000080
:1006C0000000FFFFFFFC03C007807FFFFFFC00006E
:1006D0000000FFFFFFFC03C003807FFFFFFE000060
:1006E0000000FFFFFFF8038003C03FFFFFFC000096
:1006F00000007FFFFFF8078001C03FFFFFFC000004
:1007000000007FFFFFF80F0000E01FFFFFFC00006C
:1007100000007FFFFFF00F0000F01FFFFFF8000058
:1007200000003FFFFFF01E0000701FFFFFF80000F9
:1007300000003FFFFFF01E0000380FFFFFF0000039
:1007400000003FFFFFE03C00003C07FFFFF000001F
:1007500000001FFFFFC07C00001E07FFFFE000003D
:1007600000001FFFFFC0F800000F03FFFFC00000E4
:1007700000000FFFFF81F800000F01FFFFC0000025
:10078000000007FFFF03F000000781FFFF8000006B
:10079000000007FFFE07E0000007C0FFFF80000029
:1007A00000001FFFFE0FC0000003A07FFFC000007D
:1007B00000001FFFFC1F80000000003FFFC0000082
:1007C00000001FFFF81E0000000001FFFFC0000036
:1007D00000000FFFFF0C0000000000FFFF00000002
:1007E000000007FFFE0000000000001FFC000000EA
:1007F000000000FFF000000000000000E00000002A
:100800000000000E000000000000000000000000DA
:1008100000000000000000000000000000000000D8
:1008200000000000000000000000000000000000C8
:1008300000000000000000000000000000000000B8
:1008400000000000000000000000000000000000A8
:100850000000000000000000000000000000000098
:100860000000000000000000000000000000000088
:100870000000000000000000000000000000000078
:100880000000000000000000000000000000000068
:100890000000000000000000000000000000000058
:1008A0000000000000000000000000000000000048
:1008B0000000000000000000000000000000000038
:1008C00000000000000000000000001F8000000089
:1008D00000000000000000000000007FFF8000001A
:1008E0000000000000000000000003FFFFE0000027
:1008F000000000000000000000000FFFFFFC0000EF
:10090000000000000000000000003FFFFFFF80002B
:1009100000000000000000000000FFFFFFFFE000FB
:1009200000000000000000000001FFFFFFFFF000DA
:1009300000000000000000000007FFFFFFC7F800F4
:100940000000000000000000000FE7FFFFE07C0057
:100950000000000000000000003F87FFFFE00E00E5
:100960000000000000000000607E0FFFFFE00300B9
:100970000000000000000000F8F80FFFFFF000008A
:1009800000000000000000009FF00FFFFFF00000DB
:100990000000000000000000C7E01FFFFFF00000A3
:1009A0000000000000000000FFC01FFFFFF8000073
:1009B00000000000000000007F803FFFFFF8000003
:1009C00000000000000000007F003FFFFFF8000073
:1009D00000000000000000007F003FFFFFFC00005F
:1009E00000000000000000007E007FFFFFFC000010
:1009F00000000000000000003C007FFFFFFC000042
:100A000000000000000000003C007FFFFFFC000031
:100A100000000000000000001C007FFFFFFE00003F
:100A200000000000000000001C007FFFFFFE00002F
:100A300000000000000000001C00FFFFFFFE00009F
:100A400000000000000000001E00FFFFFFFE00008D
:100A500000000000000000000E00FFFFFFFE00008D
:100A600000000000000000000E00FFFFFFFE00007D
:100A700000000000000000000F00FFFFFFFE00006C
:100A800000000000000000000F00FFFFFFFE00005C
:100A900000000000000000000F007FFFFFFE0000CC
:100AA000000000000000000007807FFFFFFE000044
:100AB000000000000000000007807FFFFFFC000036
:100AC000000000000000000007807FFFFFFC000026
:100AD000000000000000000003C07FFFFFFE0000D8
:100AE000000000000000000003C07FFFFFFC0000CA
:100AF000000000000000000001E03FFFFFFC0000DC
:100B0000000000000000000000E03FFFFFFC0000CC
:100B1000000000000000000000F01FFFFFF80000D0
:100B2000000000000000000000781FFFFFF8000038
:100B30000060000000000E0000380FFFFFF0000012
:100B4000007C000000003C00003C07FFFFF00000BC
:100B5000003F80000001F800001E07FFFFE00000DA
:100B6000000FF800000FE000000F03FFFFE000009F
:100B70000003FF0003FF8000000F83FFFFC00000A1
:100B80000000FFF8FFFE0000000781FFFF8000006B
:100B900000003FFFFFF800000007C0FFFF800000DB
:100BA00000001FFFFFC000000003A07FFFC0000087
:100BB000000007FFFC0000000000013FFFC0000034
:100BC000000000FF80000000000001FFFFC00000E7
:100BD0000000000000000000000000FFFF00000017
:100BE00000000000000000000000001FFC000000EA
:100BF000000000000000000000000000E000000015
:100C000000000000000000000000000000000000E4
:100C100000000000000000000000000000000000D4
:100C200000000000000000000000000000000000C4
:100C300000000000000000000000000000000000B4
:100C400000000000000000000000000000000000A4
:100C50000000000000000000000000000000000094
:100C60000000000000000000000000000000000084
:100C70000000000000000000000000000000000074
:100C80000000000000000000000000000000000064
:100C90000000000000000000000000000000000054
:100CA0000000000000000000000000000000000044
:100CB0000000000000000000000000000000000034
:100CC0000000000000000000000000000000000024
:100CD0000000000000000000000000000000000014
:100CE0000000000000000000000000000000000004
:100CF00000000000000000000000000000000000F4
:100D000000000000000000000000000000000000E3
:100D100000000000000000000000000000000000D3
:100D200000000000000000000000000000000000C3
:100D300000000000000000000000000000000000B3
:100D400000000000000000000000000000000000A3
:100D50000000000000000000018000000000000012
:100D6000000000000000030000C00003FE000000BF
:100D7000000000FF800003000230007FFFC0000081
:100D8000000007FFFC000200060E07FFFFF0000056
:100D900000001FFFFFC007100787FFFFFFF80000DC
:100DA00000003FFFFFF80C2001C0FFFE3FFE0000E7
:100DB0000000FFF8FFFE186000FFFF8001FF8000C9
:100DC0000003FF0003FFF860003FE000003FE00089
:100DD000000FF800000FE0C0003F00000003F80023
:100DE000003F80000001FF800078000000007C00D0
:100DF000007C000000003E0000E0000000000C004D
:100E00000060000000000E00000000000000000074
:100E100000000000000000000000000000000000D2
:100E200000000000000000000000000000000000C2
:100E300000000000000000000000000000000000B2
:100E400000000000000000000000000000000000A2
:1010C00000000000000000000000001F8000000081
:1010D00000000003F00000000000007FFF8000001F
:1010E000000003FFFF000000000003FFFFE000001E
:1010F00000000FFFFF80000000000FFFFFFC00005A
:1011000000007FFFFFE0000000003FFFFFFF8000C6
:101110000003FFFFFFF800000000FFFFFFFFE000FB
:10112000000FFFFFFFFE00000001FFFFFFFFF000C8
:10113000001FFFFFFFFF00000007F3FFFFC7F800DD
:10114000003FCFFFFF9FC000000FC7FFFFE07C0004
:10115000007C0FFFFF8FE000003F07FFFFE00E0065
:1011600000E01FFFFFC1F804607C07FFFFE0030001
:1011700001801FFFFFC07C0CF8F80FFFFFF000009C
:1011800000003FFFFFE03E0C9FF00FFFFFF000006C
:1011900000003FFFFFE01F9DC7E01FFFFFF00000C2
:1011A00000007FFFFFF00FFDFFC01FFFFFF80000F2
:1011B00000007FFFFFF007F37F801FFFFFF80000B4
:1011C00000007FFFFFF003FF7F003FFFFFF80000FC
:1011D0000000FFFFFFF001FF7E003FFFFFFC00006B
:1011E0000000FFFFFFF800FE7E003FFFFFFC000055
:1011F0000000FFFFFFF8007C3C007FFFFFFC0000C9
:101200000000FFFFFFFC00383C007FFFFFFC0000F8
:101210000000FFFFFFFC00381C007FFFFFFE000006
:101220000000FFFFFFFC00701C007FFFFFFE0000BE
:101230000000FFFFFFFC00701C007FFFFFFE0000AE
:101240000000FFFFFFFC00701C00FFFFFFFE00001E
:101250000000FFFFFFFE00700E00FFFFFFFE00001A
:101260000000FFFFFFFE00E00E00FFFFFFFE00009A
:101270000000FFFFFFFE00E00E00FFFFFFFE00008A
:101280000000FFFFFFFE00E00F00FFFFFFFE000079
:101290000000FFFFFFFE01E00F007FFFFFFE0000E8
:1012A0000000FFFFFFFC01E007007FFFFFFE0000E2
:1012B0000000FFFFFFFC01C007807FFFFFFC000074
:1012C0000000FFFFFFFC03C007807FFFFFFC000062
:1012D0000000FFFFFFF803C003807FFFFFFE000058
:1012E0000000FFFFFFF8038003C03FFFFFFC00008A
:1012F00000007FFFFFF8078001C03FFFFFFC0000F8
:1013000000007FFFFFF00F0000E01FFFFFFC000068
:1013100000007FFFFFF00F0000F01FFFFFF800004C
:1013200000003FFFFFE01E0000701FFFFFF80000FD
:1013300000003FFFFFE01E0000380FFFFFF000003D
:1013400000003FFFFFE03C00003C07FFFFF0000013
:1013500000001FFFFFC07C00001E07FFFFE0000031
:1013600000001FFFFF80F800000F03FFFFE00000F8
:1013700000000FFFFF81F800000F01FFFFC0000019
:1013800000000FFFFF03F000000781FFFF80000057
:10139000000007FFFE07E0000007C0FFFF8000001D
:1013A00000001FFFFC0FC0000003A07FFFC0000073
:1013B00000001FFFFC1F80000000003FFFC0000076
:1013C00000001FFFF81E0000000001FFFFC000002A
:1013D00000000FFFFF0C0000000000FFFF000000F6
:1013E000000007FFFE0000000000001FFC000000DE
:1013F000000000FFF000000000000000E00000001E
:101400000000000E000000000000000000000000CE
:1014100000000000000000000000000000000000CC
:1014200000000000000000000000000000000000BC
:1014300000000000000000000000000000000000AC
:10144000000000000000000000000000000000009C
:10145000000000000000000000000000000000008C
:10146000000000000000000000000000003E5B4F94
:101470005B3E3E6B4F6B3E1C3E7C3E1C183C7E3CF4
:10148000181C577D571C1C5E7F5E1C00183C180002
:10149000FFE7C3E7FF0018241800FFE7DBE7FF3092
:1014A000483A060E2629792926407F050507407F00
:1014B00005253F5A3CE73C5A7F3E1C1C08081C1C73
:1014C0003E7F14227F22145F5F005F5F06097F0169
:1014D0007F006689956A606060606094A2FFA29454
:1014E00008047E040810207E201008082A1C080822
:1014F0001C2A08081E101010100C1E0C1E0C303870
:101500003E3830060E3E0E06000000000000005F70
:1015100000000007000700147F147F14242A7F2A8C
:10152000122313086462364956205000080703004E
:10153000001C2241000041221C002A1C7F1C2A089A
:10154000083E0808008070300008080808080000FD
:1015500060600020100804023E5149453E00427F71
:10156000400072494949462141494D331814127FC0
:101570001027454545393C4A494931412111090760
:101580003649494936464949291E000014000000E1
:1015900040340000000814224114141414140041B3
:1015A00022140802015909063E415D594E7C121170
:1015B000127C7F494949363E414141227F414141A8
:1015C0003E7F494949417F090909013E4141517323
:1015D0007F0808087F00417F41002040413F017F94
:1015E000081422417F404040407F021C027F7F045C
:1015F00008107F3E4141413E7F090909063E4151A5
:10160000215E7F09192946264949493203017F0194
:10161000033F4040403F1F2040201F3F4038403F95
:10162000631408146303047804036159494D4300AB
:101630007F4141410204081020004141417F0402E2
:101640000102044040404040000307080020545479
:1016500078407F2844443838444444283844442857
:101660007F385454541800087E090218A4A49C78AA
:101670007F0804047800447D40002040403D007F06
:101680001028440000417F40007C047804787C08E6
:101690000404783844444438FC18242418182424BA
:1016A00018FC7C08040408485454542404043F449F
:1016B000243C4040207C1C2040201C3C4030403CCE
:1016C00044281028444C9090907C4464544C44002E
:1016D0000836410000007700000041360800020192
:1016E0000204023C2623263C1EA1A161123A40407E
:1016F000207A3854545559215555794122545478FB
:1017000042215554784020545579400C1E52721293
:10171000395555555939545454593955545458001C
:1017200000457C410002457D420001457C407D1220
:1017300011127DF0282528F07C5455450020545482
:101740007C547C0A097F4932494949323A4444442D
:101750003A324A4848303A4141217A3A4240207868
:10176000009DA0A07D3D4242423D3D4040403D3C69
:1017700024FF2424487E4943662B2FFC2F2BFF098E
:1017800029F620C0887E0903205454794100004482
:101790007D413048484A32384040227A007A0A0A6D
:1017A000727D0D19317D2629292F282629292926E0
:1017B00030484D4020380808080808080808382F25
:1017C00010C8ACBA2F102834FA00007B00000814AF
:1017D0002A142222142A14085500550055AA55AA85
:1017E00055AAFF55FF55FF000000FF00101010FF25
:1017F00000141414FF001010FF00FF1010F010F080
:10180000141414FC001414F700FF0000FF00FF1470
:1018100014F404FC141417101F10101F101F1414BC
:10182000141F00101010F0000000001F1010101006
:101830001F10101010F010000000FF1010101010FA
:1018400010101010FF10000000FF140000FF00FF38
:1018500000001F10170000FC04F4141417101714D4
:1018600014F404F40000FF00F714141414141414F6
:10187000F700F7141414171410101F101F14141469
:10188000F4141010F010F000001F101F0000001FD3
:1018900014000000FC140000F010F01010FF10FF06
:1018A000141414FF141010101F00000000F010FF9B
:1018B000FFFFFFFFF0F0F0F0F0FFFFFF000000007F
:1018C00000FFFF0F0F0F0F0F3844443844FC4A4A03
:1018D0004A347E02020606027E027E0263554941B8
:1018E000633844443C04407E201E2006027E0202EF
:1018F00099A5E7A5991C2A492A1C4C7201724C3003
:101900004A4D4D303048784830BC625A463D3E49D9
:101910004949007E0101017E2A2A2A2A2A44445F7D
:10192000444440514A444040444A51400000FF0171
:1019300003E080FF000008086B6B0836123624367F
:10194000060F090F060000181800000010100030E4
:1019500040FF0101001F01011E00191D1712003C6C
:101960003C3C3C0000000000000103070F1F3F7FCC
:101970000080C0E0F0F8FCFEDB40A4A62EAF200003
:10198000A1C8D300408DAED580A800006000000043
:101990000000000000000000000000E00000000067
:1019A00000000000000000000001E0000000000056
:1019B000000000000000000001F000000000000036
:1019C0000000000000000003F00000000000000024
:1019D00000000000000007F0000000000000000010
:1019E000000000000007F8000000000000000000F8
:1019F000000000000FF800000003C0007E0000019E
:101A0000E0007F0FF800000003C000FE000001E0CE
:101A100000FFEFF800000003C000FE000001E0003E
:101A2000FFFFF800000003C000F00000000F007F7F
:101A3000FE7FC0000003C000F00000000F003FFE6A
:101A40007FF83FF1FBCFFCFEF3BC3DEFE01FFE7FD4
:101A5000FF7FFBFFDFFEFEFFBC3DEFE01FC6FFFF89
:101A60007FFBFFDFFEFEFFBC3DEFE00FE3C7FE782C
:101A70007BC3DE1EF0FFBC3DEF0007FF87FC787BD9
:101A8000C3DE1EF0F83C3DEF0001FFFFF0007BC31A
:101A9000C01EF0F03C3DEF0001F37FE03FFBC3CF01
:101AA000FEF0F03C3DEF0003E33F807FFBC3DFFE31
:101AB000F0F03C3DEF0007E73C00787BC3DE1EF012
:101AC000F03C3DEF0007FFBE00787BC3DE1EF0F068
:101AD0003C3DEF0007FFFE00787BC3DE1EF0F03CCC
:101AE0003DEF000FFFFE007FFBFFDFFEF0F03FFD4C
:101AF000EFE00FFFFF007FFBFFDFFEF0F03FFDEFA9
:101B0000E00FF9FF003E79F9CF9EF0F01F3DE7E0CE
:101B10001FF1FF0000000000000000000000001F97
:101B200080FF007FFFFFFFFFFFFFFFFFFFE01C00C4
:101B30007F007FFFFFFFFEB46D888D18E000001F5F
:101B4000007FFFFFFFFE95AD7DB577E000000F0041
:101B50007FFFFFFFFEA5AD9D8D19E0000006007F11
:101B6000FFFFFFFEB5ADEDB57EE000000000000117
:101B70008000000000000000000003800000000062
:101B8000000000000007C00000000000000000008E
:101B900007C00000000000000000000FC0000000AF
:101BA0000000000000001FE0000000000000000036
:101BB000001FE00000000000000000003FE0000007
:101BC000000000000000003FF000000000000000E6
:101BD00000007FF0000000000000001FF87FF00010
:101BE0000000000000003FFE7FF000000000000049
:101BF000003FFF7FF0000000000000001FFFFBE03F
:101C0000000000000000000FFFF9FFC0000000000E
:101C100000000FFFF9FFF800000000000007FFF1CF
:101C2000FFFF00000000000003FC73FFFF800000C6
:101C300000000001FE3FFFFF80000000000000FFE9
:101C40001E0FFF000000000000007FFE1FFC0000D0
:101C500000000000003FFFFFF8000000000000004F
:101C60000FDFFFE0000000000000001F19FFC000B0
:101C70000000000000003F3CFF00000000000000EA
:101C8000007E7CF800000000000000007FFE7C0069
:101C900000000000000000FFFFFC0000000000004A
:101CA0000000FFFFFE0000000000000000FFFFFE3C
:101CB0000000000000000001FFEFFE000000000037
:101CC000000001FFCFFE0000000000000003FF073E
:101CD000FE0000000000000003FC07FE0000000002
:101CE00000000003F003FE0000000000000001807F
:101CF00000FE000000000000000000007E00000068
:101D0000000000000000003E000000000000000095
:101D100000000C000000000000078000FC00000331
:101D2000C0000000078001FC000003C000000007A5
:101D30008001FC000003C0000000078001E00000FB
:101D4000001E000000078001E00000001E007FE38D
:101D5000F79FF9FDE7787BDFC0FFF7FFBFFDFDFFD1
:101D6000787BDFC0FFF7FFBFFDFDFF787BDFC0F0B2
:101D7000F787BC3DE1FF787BDE00F0F787BC3DE1F3
:101D8000F0787BDE0000F787803DE1E0787BDE00C5
:101D90007FF7879FFDE1E0787BDE00FFF787BFFDDF
:101DA000E1E0787BDE00F0F787BC3DE1E0787BDEA8
:101DB00000F0F787BC3DE1E0787BDE00F0F787BC00
:101DC0003DE1E0787BDE00FFF7FFBFFDE1E07FFB58
:101DD000DFC0FFF7FFBFFDE1E07FFBDFC07CF3F377
:101DE0009F3DE1E03E7BCFC000000000000000000E
:101DF000000000FFFFFFFFFFFFFFFFFFFFC0FFFF2F
:101E0000FFFFFD68DB111A31C0FFFFFFFFFD2B5AFA
:101E1000FB6AEFC0FFFFFFFFFD4B5B3B1A33C0FFC8
:101E2000FFFFFFFD6B5BDB6AFDC0000000000000F0
:101E300000000000000000000000000000000000A2
:101E40000000000000000000000000000000000092
:101E50000000000000000000000000000000000082
:101E60000000000000000000000000000000000072
:101E70000000000000000000000000000000000062
:101E80000000000000000000000000000000000052
:101E90000000000000000000000000000000000042
:101EA0000000000000000000000000000000000032
:101EB0000000000000000000000000000000000022
:101EC0000000000000000000000000000000000012
:101ED0000000000000000000000000000000000002
:101EE00000000000000000000000000000000000F2
:101EF00000000000000000000000000000000000E2
:101F000000000000000000000000000000000000D1
:101F100000000000000000000000000000000000C1
:101F200000000000000000000000000000000000B1
:101F300000000000000000000000000000000000A1
:101F40000000000000000000000000000000000091
:101F50000000000000000000000000000000000081
:101F60000000000000000000000000000000000071
:101F70000000000000000000000000000000000061
:101F80000000000000000000000000000000000051
:101F90000000000000000000000000000000000041
:101FA0000000000000000000000000000000000031
:101FB0000000000000000000000000000000000021
:101FC0000000000000000000000000000000000011
:101FD0000000000000000000000000000000000001
:101FE00000000000000000000000000000000000F1
:101FF00000000000000000000000000000000000E1
:1020000000000000000000000000000000000000D0
:1020100000000000000000000000000000000000C0
:1020200000000000000000000000000000000000B0
:102030000000000000000003F000000000000000AD
:10204000000000000000000210000000000000007E
:10205000000000000000000210000000000000006E
:10206000000000000000000FFC0000000000000065
:102070000000000000000018060000000000000042
:10208000000000000000001002000000000000003E
:10209000000000000000001002000000000000002E
:1020A000000000000000001002000000000000001E
:1020B000000000000000001002000000000000000E
:1020C00000000000000000100200000000000000FE
:1020D00000000000000000100200000000000000EE
:1020E00000000000000000100200000000000000DE
:1020F00000000000000000100200000000000000CE
:1021000000000000000000100200000000000000BD
:1021100000000000000000100200000000000000AD
:10212000000000000000001002000000000000009D
:10213000000000000000001002000000000000008D
:10214000000000000000001002000000000000007D
:10215000000000000000001002000000000000006D
:10216000000000000000001002000000000000005D
:10217000000000000000001002000000000000004D
:10218000000000000000001002000000000000003D
:102190000000000000000018060000000000000021
:1021A000000000000000000FFC0000000000000024
:1021B000000000000000000000000000000000001F
:1021C000000000000000000000000000000000000F
:1021D00000000000000000000000000000000000FF
:1021E00000000000000000000000000000000000EF
:102430000000000000000003F000000000000000A9
:10244000000000000000000210000000000000007A
:10245000000000000000000210000000000000006A
:10246000000000000000000FFC0000000000000061
:10247000000000000000001806000000000000003E
:10248000000000000000001002000000000000003A
:10249000000000000000001002000000000000002A
:1024A000000000000000001002000000000000001A
:1024B000000000000000001002000000000000000A
:1024C00000000000000000100200000000000000FA
:1024D00000000000000000100200000000000000EA
:1024E00000000000000000100200000000000000DA
:1024F00000000000000000100200000000000000CA
:1025000000000000000000100200000000000000B9
:1025100000000000000000100200000000000000A9
:102520000000000000000010020000000000000099
:102530000000000000000010020000000000000089
:102540000000000000000010020000000000000079
:102550000000000000000017FA000000000000006A
:102560000000000000000017FA000000000000005A
:102570000000000000000017FA000000000000004A
:102580000000000000000010020000000000000039
:10259000000000000000001806000000000000001D
:1025A000000000000000000FFC0000000000000020
:1025B000000000000000000000000000000000001B
:1025C000000000000000000000000000000000000B
:1025D00000000000000000000000000000000000FB
:1025E00000000000000000000000000000000000EB
:102930000000000000000000000000E000000000B7
:102940000C000060000000000E0000780000000095
:102950007C00007C000000003C00003F0000000301
:10296000F800003F80000001F800000FE000003F89
:10297000E000000FF800000FE0000003FF8001FFFF
:1029800080000003FF0003FF80000000FFFE3FFE09
:1029900000000000FFF8FFFE000000003FFFFFF80E
:1029A000000000003FFFFFF80000000007FFFFF0FD
:1029B000000000001FFFFFC000000000007FFFC0FC
:1029C0000000000007FFFC00000000000003FE0004
:1029D0000000000000FF8000000000000000000078
:1029E00000000000000000000000000000000000E7
:1029F00000000000000000000000000000000000D7
:102A000000000000000000000000000000000000C6
:102A100000000000000000000000000000000000B6
:102A2000000000000000000000000000000000386E
:102A300000000000F0000000000000000000003C6A
:102A400000000001C0000000000000000000001CA9
:102A50000000000580000000000000000000000EE3
:102A600000000007800000000000000000000007D8
:102A70000000000F00000000000000000000000740
:102A80000000000E0000000000000000001F800B8E
:102A90008000001C0003F00000000000007FFF81A8
:102AA000C000001C03FFFF000000000003FFFFE167
:102AB000E00000380FFFFF80000000000FFFFFFC68
:102AC000E00000707FFFFFE0000000003FFFFFFF1D
:102AD000F0000073FFFFFFF800000000FFFFFFFFA2
:102AE000F80000EFFFFFFFFE00000001FFFFFFFF07
:102AF000FC0000FFFFFFFFFF00000007F3FFFFC720
:102B0000FC0000FFCFFFFF9FC000000FC7FFFFE0EA
:102B10007E0001FC0FFFFF8FE000003F07FFFFE09A
:102B20000F0001E01FFFFFC1F804607C07FFFFE01A
:102B3000030001801FFFFFC07C0CF8F80FFFFFF0BF
:102B4000000000003FFFFFE03E0C9FF00FFFFFF092
:102B5000000000003FFFFFE01F9DC7E01FFFFFF0E8
:102B6000000000007FFFFFF00FFDFFC01FFFFFF818
:102B7000000000007FFFFFF007F37F801FFFFFF8DA
:102B8000000000007FFFFFF003FF7F003FFFFFF822
:102B900000000000FFFFFFF001FF7E003FFFFFFC91
:102BA00000000000FFFFFFF800FE7E003FFFFFFC7B
:102BB00000000000FFFFFFF8007C3C007FFFFFFCEF
:102BC00000000000FFFFFFFC00383C007FFFFFFC1F
:102BD00000000000FFFFFFFC00381C007FFFFFFE2D
:102BE00000000000FFFFFFFC00701C007FFFFFFEE5
:102BF00000000000FFFFFFFC00701C007FFFFFFED5
:102C000000000000FFFFFFFC00701C00FFFFFFFE44
:102C100000000000FFFFFFFE00700E00FFFFFFFE40
:102C200000000000FFFFFFFE00E00E00FFFFFFFEC0
:102C300000000000FFFFFFFE00E00E00FFFFFFFEB0
:102C400000000000FFFFFFFE00E00F00FFFFFFFE9F
:102C500000000000FFFFFFFE01E00F007FFFFFFE0E
:102C600000000000FFFFFFFC01E007007FFFFFFE08
:102C700000000000FFFFFFFC01C007807FFFFFFC9A
:102C800000000000FFFFFFFC03C007807FFFFFFC88
:102C900000000000FFFFFFF803C003807FFFFFFE7E
:102CA00000000000FFFFFFF8038003C03FFFFFFCB0
:102CB000000000007FFFFFF8078001C03FFFFFFC1E
:102CC000000000007FFFFFF00F0000E01FFFFFFC8F
:102CD000000000007FFFFFF00F0000F01FFFFFF873
:102CE000000000003FFFFFE01E0000701FFFFFF824
:102CF000000000003FFFFFE01E0000380FFFFFF064
:102D0000000000003FFFFFE03C00003C07FFFFF039
:102D1000000000001FFFFFC07C00001E07FFFFE057
:102D2000000000001FFFFF80F800000F03FFFFE01E
:102D3000000000000FFFFF81F800000F01FFFFC03F
:102D4000000000000FFFFF03F000000781FFFF807D
:102D50000000000007FFFE07E0000007C0FFFF8043
:102D6000000000001FFFFC0FC0000003A07FFFC099
:102D7000000000001FFFFC1F80000000003FFFC09C
:102D8000000000001FFFF81E0000000001FFFFC050
:102D9000000000000FFFFF0C0000000000FFFF001C
:102DA0000000000007FFFE0000000000001FFC0004
:102DB0000000000000FFF000000000000000E00044
:102DC00000000000000E00000000000000000000F5
:102DD00000000000000000000000000000000000F3
:102DE00000000000000000000000000000000000E3
:102DF00000000000000000000000000000000000D3
:102E000000000000000000000000000000000000C2
:102E100000000000000000000000000000000000B2
:102E200000000000000000000000000000000000A2
:102E30000000000000000000000000000000000092
:102E40000000000000000000000000000000000082
:102E50000000000000000000000000000000000072
:102E60000000000000000000000000000000000062
:102E70000000000000000000000000000000000052
:102E80000000000000000000000000000000000042
:102E90000000000000000000000000000000000032
:102EA0000000000000000000000000000000000022
:102EB0000000000000000000000000000000000012
:102EC0000000000000000000000000000000000002
:102ED00000000000000000000000000000000000F2
:102EE00000000000000000000000000000000000E2
:102EF00000000000000000000000000000000000D2
:102F000000000000000000000000000000000000C1
:102F100000000000000000000000000000000000B1
:102F200000000000000000000000000000000000A1
:102F30000000000000000000000000000000000091
:102F40000000000000000000000000000000000081
:102F50000000000000000000000000000000000071
:102F60000000000000000000000000000000000061
:102F70000000000000000000000000000000000051
:102F800000000000000000000000004600000000FB
:102F9000000000000000000020000046400000008B
:102FA00000000000000000002180004640000000FA
:102FB00000000000000000022180004640000000E8
:102FC00000000000000000032180004640000000D7
:102FD0000000000000000003210000664000000027
:102FE000000000000000000122000062400000001C
:102FF0000000000000000001240000FA6000000052
:103000000C000060000000016E00007DE000000088
:103010007C00007C000000017C00003FF800000301
:10302000F800003F80000003F800000FF800003FA8
:10303000E000000FF800000FE0000003FF8001FF38
:1030400080000003FF0003FF80000000FFFE3FFE42
:1030500000000000FFF8FFFE000000003FFFFFF847
:10306000000000003FFFFFF80000000007FFFFF036
:10307000000000001FFFFFC000000000007FFFC035
:103080000000000007FFFC00000000000003FE003D
:103090000000000000FF80000000000000000000B1
:1030A0000000000000000000000000000000000020
:1030B0000000000000000000000000000000000010
:1030C0000000000000000000000000000000000000
:1030D00000000000000000000000000000000000F0
:1030E00000000000000000000000000000000000E0
:1030F00000000000000000000000000000000000D0
:1031000000000000000000000000000000000000BF
:1031100000000000000000000000000000000000AF
:10312000000000000000000000000000000000009F
:10313000000000000000000000000000000000008F
:10314000000000000000000000000000000000007F
:10315000000000000000000000000000000000006F
:10316000000000000000000000000000000000005F
:10317000000000000000000000000000000000004F
:10318000000000000000000000000000000000003F
:10319000000000000000000000000000000000002F
:1031A000000000000000000000000000000000001F
:1031B000000000000000000000000000000000000F
:1031C00000000000000000000000000000000000FF
:1031D00000000000000000000000000000000000EF
:1031E00000000000000000000000000000000000DF
:1031F00000000000000000000000000000000000CF
:1032000000000000000000000000000000000000BE
:1032100000000000000000000000000000000000AE
:103220000000000000000000000000000008000294
:10323000010000030407000000000000000022005D
:10324000FF210000000000250028002B00000000E6
:1032500000240027002A00040404040404040402D7
:103260000202020202030303030303010204081023
:1032700020408001020408102001020408102000F0
:10328000A62DCC3311241FBECFEFD8E0DEBFCDBFBB
:1032900012E0A0E0B1E0ECEDF0E702C005900D9285
:1032A000AA3AB107D9F724E0AAEAB2E001C01D9218
:1032B000A437B207E1F719E1C1E4D9E104C02197CD
:1032C000FE010E94EE34C034D107C9F70E943F2EA0
:1032D0000C9461380C94000090E0FC01E559FD4C21
:1032E0002491895A9D4CFC018491882399F090E0A7
:1032F000880F991FFC01E35BFD4CA591B491FC0183
:10330000ED5BFD4C859194918FB7F894EC91E22B95
:10331000EC938FBF0895089590E0FC01E65DFD4CAD
:103320002491FC01E559FD4C3491FC01E95AFD4C16
:10333000E491EE23C9F0222339F0233001F1A8F4FF
:10334000213019F1223029F1F0E0EE0FFF1FED5B83
:10335000FD4CA591B4918FB7F894EC91611126C002
:1033600030953E233C938FBF08952730A9F0283035
:10337000C9F0243049F7809180008F7D03C080918F
:1033800080008F7780938000DFCF84B58F7784BDF6
:10339000DBCF84B58F7DFBCF8091B0008F7780939A
:1033A000B000D2CF8091B0008F7DF9CF3E2BDACF25
:1033B0002091020190E4299F900111248E50822BCC
:1033C00080937C0080917A00806480937A00809161
:1033D0007A0086FDFCCF8091780090917900089565
:1033E0003FB7F8948091690390916A03A0916B03B1
:1033F000B0916C0326B5A89B05C02F3F19F001962C
:10340000A11DB11D3FBFBA2FA92F982F8827BC013E
:10341000CD01620F711D811D911D42E0660F771F66
:10342000881F991F4A95D1F708958F929F92AF9266
:10343000BF92CF92DF92EF92FF926B017C010E94CC
:10344000F0194B015C01C114D104E104F104B9F09D
:103450000E94F019681979098A099B09683E73402E
:103460008105910580F321E0C21AD108E108F10835
:1034700088EE880E83E0981EA11CB11CE4CFFF905B
:10348000EF90DF90CF90BF90AF909F908F90089576
:1034900008950895AF92BF92CF92DF92EF92FF927C
:1034A0000F931F93CF93DF936C017B018B01040F6C
:1034B000151FEB015E01AE18BF08C017D10759F008
:1034C0006991D601ED91FC910190F081E02DC6014A
:1034D0000995892B79F7C501DF91CF911F910F9144
:1034E000FF90EF90DF90CF90BF90AF900895FC01D8
:1034F000538D448D252F30E0842F90E0821B930B59
:10350000541710F0CF96089501970895FC01918DFE
:10351000828D981761F0A28DAE0FBF2FB11D5D9601
:103520008C91928D9F5F9F73928F90E008958FEFA3
:103530009FEF0895FC01918D828D981731F0828D57
:10354000E80FF11D858D90E008958FEF9FEF0895AE
:10355000FC01918D228D892F90E0805C9F4F821B12
:1035600091098F739927089581E793E00E94A81A23
:1035700021E0892B09F420E0822F089580E090E07B
:10358000892B29F00E94B41A81110C94000008952F
:10359000FC01A48DA80FB92FB11DA35ABF4F2C91C8
:1035A000848D90E001968F739927848FA689B789BF
:1035B0002C93A089B1898C91837080648C93938DB6
:1035C000848D981306C00288F389E02D80818F7D59
:1035D00080830895EF92FF920F931F93CF93DF9311
:1035E000EC0181E0888F9B8D8C8D98131AC0E8893F
:1035F000F989808185FF15C09FB7F894EE89FF890E
:103600006083E889F98980818370806480839FBFAB
:1036100081E090E0DF91CF911F910F91FF90EF90AB
:103620000895F62E0B8D10E00F5F1F4F0F731127BB
:10363000E02E8C8D8E110CC00FB607FCFACFE889F6
:10364000F989808185FFF5CFCE010E94C81AF1CF9C
:10365000EB8DEC0FFD2FF11DE35AFF4FF0829FB76A
:10366000F8940B8FEA89FB8980818062CFCFCF935A
:10367000DF93EC01888D8823B9F0AA89BB89E8899A
:10368000F9898C9185FD03C0808186FD0DC00FB640
:1036900007FCF7CF8C9185FFF2CF808185FFEDCFBE
:1036A000CE010E94C81AE9CFDF91CF910895EF9221
:1036B000FF920F931F93CF93DF93EC01EC80FD807B
:1036C0006E157F050CF070C057FF04C0240F351F26
:1036D00050E040E08E819F81FA01E20FF31F8E17C8
:1036E0009F071CF49C01241B350B121613060CF0CB
:1036F0005BC0922F842F8695869586958E9DD001EE
:103700008F9DB00D11246A0F7B1FAF8DB8A1A60F3E
:10371000B71F477049F188E0841B482F682F70E07D
:10372000FB01E059F64EE491281708F063C0621BD4
:1037300071092FEF30E002C0359527956A95E2F7C1
:10374000E2230130110539F0B0F10230110561F5C5
:103750008C91E82702C08C91E82BEC93941720F110
:103760002C813D81A20FB31FE92FE41BE83078F0D4
:103770000230110521F58E2F9C9190959C932C8100
:103780003D81A20FB31F88508830B0F7E770EE2359
:1037900059F0F0E0E859F64EE49101301105F9F0E6
:1037A00010F10230110519F1DF91CF911F910F91A6
:1037B000FF90EF900895E0958C91E823CECF81E0C3
:1037C0000115110509F480E081959E2F8C932C81C1
:1037D0003D81A20FB31F98509830C0F7D7CF8C917E
:1037E000E82BEC93E1CFE0958C91E823FACF8C9114
:1037F000E827F7CF0130110509F4ADCFE0F2023030
:10380000110509F4A5CFAE0DBF1DAECF0F931F93C9
:10381000CF93DF9377FF04C0260F371F70E060E07F
:10382000DC011496CD91DC91FB01E20FF31FCE1762
:10383000DF071CF49E01261B370B121613064CF5EE
:10384000FA0157FD3796A3E0F595E795AA95E1F7BC
:10385000EC9FD001ED9FB00DFC9FB00D11246A0FBD
:103860007B1FDC015F96ED91FC91E60FF71F47701F
:10387000552781E090E001C0880F4A95EAF7482F6C
:103880000130110559F0A8F02E0F3F1F023011052D
:10389000E1F0DF91CF911F910F9108952E0F3F1FFF
:1038A000E217F307B1F38191DF011197842B8C9319
:1038B000F7CF80952E0F3F1FE217F30751F3919139
:1038C000DF01119798239C93F7CFE217F30709F3D1
:1038D0008191DF01119784278C93F7CF0F931F936A
:1038E000FA01DC0156964C9156974230E9F043308C
:1038F000A1F1413061F514964D915C91DA01AE1B56
:10390000BF0BFD01E21BF30B77FD0BC0DC0116962C
:103910004D915C916417750724F4AB01BF010E94BF
:10392000061C1F910F91089514964D915C91DA0138
:10393000A61BB70BBD0161507109DC0116964D91B4
:103940005C91DA01AE1BBF0BFD01E21BF30B77FDAF
:10395000E8CFAF010E94571BE4CF16964D915C91C2
:10396000DA01A61BB70BBD0161507109CDCF0F93D2
:103970001F93FA01DC0156964C9156974230A9F0FC
:10398000433091F1413019F514964D915C91DA0173
:10399000AE1BBF0BFD013197F7FD04C0AB01BF01AA
:1039A0000E94571B1F910F91089514964D915C91A1
:1039B000DA01A61BB70BBD01DC0116964D915C9197
:1039C000DA01AE1BBF0BFD013197621B730BF7FDD4
:1039D000E9CFDC0116964D915C91E417F50714F7D9
:1039E000AF010E94061CDECF16964D915C91DA0164
:1039F000A61BB70BBD01621B730BCECFFC0177FD7D
:103A000064C080859185681779070CF05EC057FD0A
:103A10005CC082859385481759070CF056C086898B
:103A20008230B1F0833029F1813041F48481958175
:103A3000841B950BAB01BC0161507109213031052C
:103A400009F108F443C02230310509F463C0089538
:103A500084819581DC01A61BB70BBD016150710902
:103A600086819781DC01A41BB50BAD014150510942
:103A7000E5CF86819781861B970BBA01AC01415037
:103A80005109DCCFCA0157FD0796A3E095958795AC
:103A9000AA95E1F7A481B5818A9F90018B9F300D93
:103AA0009A9F300D1124620F731F078CF0A1E02D37
:103AB000E60FF71F4770552721E030E001C0220FC5
:103AC0004A95EAF78081822B80830895CA0157FDC9
:103AD000079633E0959587953A95E1F7A481B581EE
:103AE0008A9F90018B9F300D9A9F300D1124620F99
:103AF000731F078CF0A1E02DE60FF71F47705527C5
:103B000081E090E001C0880F4A95EAF780959081A6
:103B10008923DACFCA0157FD079623E0959587954B
:103B20002A95E1F7A481B5818A9F90018B9F300D82
:103B30009A9F300D1124620F731F078CF0A1E02DA6
:103B4000E60FF71F4770552721E030E001C0220F34
:103B50004A95EAF780818227B7CF08958EBD00008D
:103B60000DB407FEFDCF8EB508958CBD9DBD0895A3
:103B70000895FC016370668B84819581268137816D
:103B8000613039F0633029F091878087338722874D
:103B90000895318720879387828708952F923F92D7
:103BA0004F925F926F927F928F929F92AF92BF924D
:103BB000CF92DF92EF92FF920F931F93CF93DF93F9
:103BC000CDB7DEB76A970FB6F894DEBF0FBECDBF94
:103BD0009A8F898F7A8369834A01D22E18870F833F
:103BE0003701BC2CDC0159962D913C915A97211537
:103BF000310509F015C118968D919C911997681798
:103C000079070CF0D7C11A968D919C9148175907E6
:103C10000CF0D0C14C2C512CB6E0CB9E600D711D28
:103C200011247C876B87161617060CF0C3C1EA2D8A
:103C3000F0E0FA87E98793E0EE0FFF1F9A95E1F72E
:103C4000F88BEF87CF01840F951F181619060CF01B
:103C5000B1C1A98DBA8D58968C91811104C0BFEA6B
:103C6000BD1508F4D394A98DBA8DED91FC911197EF
:103C70000284F385E02DCD010995B5E0DB9EC001FE
:103C80001124E981FA81FC83EB83312C212C9C01E6
:103C900028593B4E388F2F8B4A2D50E05E8B4D8B31
:103CA000EF89F88DE20DF31D44919E828D82D12C17
:103CB000C12C69817A81620D731D7A8B698B842F87
:103CC00090E09C8B8B8BE98DFA8DA081B18140FFB8
:103CD00082C0F1E0BF126FC0AF126DC01C96ED91B3
:103CE000FC912F813885A4014C0D5D1D69897A896D
:103CF000898D9A8D0995EB89FC89F595E7954E2F6D
:103D00005FEFC51AD50A6D817E818D899E89680F06
:103D1000791F7E836D8398E0C916D10481F6AFEFD9
:103D20002A1A3A0AEB81FC81E40DF51DFC83EB8332
:103D3000F5E02F16310409F0B3CF2F813885261511
:103D40003705B9F0A98DBA8DED91FC91B1E0BB12A8
:103D500057C0AB1255C069817A816B5F7F4F008875
:103D6000F189E02D830128E030E0A401898D9A8D4E
:103D70000995A98DBA8DED91FC9111970688F78967
:103D8000E02DCD016A960FB6F894DEBF0FBECDBF11
:103D9000DF91CF911F910F91FF90EF90DF90CF9027
:103DA000BF90AF909F908F907F906F905F904F905B
:103DB0003F902F9009941E96ED91FC91EF80F8842E
:103DC00009851A8592014D815E816B817C81898D87
:103DD0009A8D099590CF2F8138852615370509F4DE
:103DE0008ACF31E0B31207C0A31205C01C96ED9133
:103DF000FC91930178CF1E96ED91FC917301E0CF79
:103E00006B857C85641975090684F785E02D73013F
:103E10000F8518899201A401898D9A8D0995A9CFE2
:103E2000F90134969491329745915491D91AB7E09B
:103E3000DB9E400D511D1124F901259134913C8BDD
:103E40002B8BFA0125903490FA01329674903196BA
:103E50003491398B329664903196449041E04C1500
:103E600018F04A1508F07FC0662D062C000C770B61
:103E70007C836B83842D042C000C990B9E838D8393
:103E8000A98DBA8DED91FC9111970284F385E02DF7
:103E9000CD010995512CD12CC12CEA2DF0E0FA87E7
:103EA000E9872B2D30E03C872B87A401440D511D61
:103EB00047FC5A95588F4F8B69817A81660D711D29
:103EC00067FC7A957E876D877989C71608F051CF90
:103ED0002C2D30E04D815E81420F531FA985BA859C
:103EE0004A9FC0014B9F900D5A9F900D1124FC01D9
:103EF000E80DF91DF88BEF87852D612C4F89588DC2
:103F0000420F531F5E8B4D8B671408F050C0442442
:103F10004394480E877041F4C1010196EB89FC89F6
:103F2000E20DF31DD4901C01D7FE19C0A98DBA8DE6
:103F3000ED91FC91662D70E0B1E0BB1219C0AB129F
:103F400017C02D853E85620F731F0484F585E02D13
:103F50002F8138854D895E89898D9A8D0995DD0C73
:103F60006394842DD1CF1E821D821C821B8288CF38
:103F70004B815C81640F751FAB85BC856A9FC00156
:103F80006B9F900D7A9F900D112469817A81680F43
:103F9000791F0684F785E02DEF80F88409851A855E
:103FA0009D014F855889898D9A8D0995D8CF570CD9
:103FB000C3948ACF6A960FB6F894DEBF0FBECDBF0A
:103FC000DF91CF911F910F91FF90EF90DF90CF90F5
:103FD000BF90AF909F908F907F906F905F904F9029
:103FE0003F902F9008958F929F92AF92CF92EF9231
:103FF000FF920F931F93CF93DF93EC01262F898DB0
:104000009A8D009709F051C06A30D1F41D861C8644
:104010008D8948E0849F900111248E859F85820FB1
:10402000931F9F878E8781E090E0DF91CF911F9152
:104030000F91FF90EF90CF90AF909F908F90089549
:104040006D3089F3CC88AD888F898823C1F08C8549
:104050009D8536E0C39E800D911D112448855985AC
:104060004817590764F44E855F851D861C8638E025
:10407000A39EC0011124840F951F9F878E87EA8815
:10408000FB88088919894E855F856C857D85CE0101
:104090000E94CE1D2C898C859D8546E0249F800D35
:1040A000911D11249D878C87BECF6A3069F41D86CF
:1040B0001C86FC013896E4912D898E859F85E29FB0
:1040C000800D911D1124ADCF6D3009F4ACCFFC01F2
:1040D00034963491631708F4A6CF3296E491E6172C
:1040E00008F4A1CFFC01329685909490462F431B93
:1040F000342F47E0349F800C911C1124F401329638
:1041000034913196E4913323A9F1EE2399F1CC88CF
:10411000F4013596E491AD884F89442301F10E2EC8
:10412000000CFF0BE30FF11DCE9EA001CF9E500DA2
:1041300011246C857D85460F571F68857985641726
:1041400075076CF44E855F851D861C86FC013896CC
:10415000E491AE9E400D511D11245F874E87EA8881
:10416000FB88088919894E855F856C857D85CE0120
:104170000E94CE1DF4013496E4912C898C859D8596
:10418000E29F800D911D11248DCF6F927F928F92AF
:104190009F92AF92BF92CF92DF92EF92FF920F93D6
:1041A0001F93CF93DF93EC016B015A013901480152
:1041B000E881F9810284F385E02D0995E881F98190
:1041C0000288F389E02D87019301A501B601CE0194
:1041D0000995A501480D591D41505109E881F98102
:1041E0000288F389E02D9301B601CE010995E8819B
:1041F000F9810088F189E02D9401A501B601CE0175
:104200000995C60CD71CB60161507109E881F98186
:104210000088F189E02D9401A501CE010995E8817E
:10422000F9810688F789E02DCE01DF91CF911F91AA
:104230000F91FF90EF90DF90CF90BF90AF909F9045
:104240008F907F906F9009946F927F928F929F9240
:10425000AF92BF92CF92DF92EF92FF920F931F9394
:10426000CF93DF935C01EB016A01490138018701BB
:10427000DC01ED91FC916217730719F56416750660
:104280002CF0962D872D3A01C92ED82E960126198D
:1042900037092F5F3F4F048CF58DE02DA301BE0140
:1042A000C5010995DF91CF911F910F91FF90EF907C
:1042B000DF90CF90BF90AF909F908F907F906F9046
:1042C00008954615570591F42617370724F0892DD0
:1042D0004B01C22FD82F9E01281939092F5F3F4F5C
:1042E000068CF78DE02DA601B401DACF0284F385A8
:1042F000E02D0995D501ED91FC910488F589E02D1B
:1043000083019401A601BE01C5010995D501ED9176
:10431000FC910688F789E02DC501DF91CF911F91AF
:104320000F91FF90EF90DF90CF90BF90AF909F9054
:104330008F907F906F900994EF92FF920F931F934D
:10434000DC011A960D911C911B9718962D913C91AA
:104350001997ED91FC9100A0F1A1E02D7B0150E0B7
:1043600040E070E060E009951F910F91FF90EF90A1
:1043700008954F925F926F927F928F929F92AF9229
:10438000BF92CF92DF92EF92FF920F931F93CF9342
:10439000DF936C012B015A0139014801DC01ED91D9
:1043A000FC910284F385E02D0995E201640C751CF3
:1043B000D601ED91FC91C615D7055CF40088F18912
:1043C000E02D87019401A501BE01C6010995219642
:1043D000EFCF0688F789E02DC601DF91CF911F91BD
:1043E0000F91FF90EF90DF90CF90BF90AF909F9094
:1043F0008F907F906F905F904F9009948F929F92D3
:10440000AF92BF92CF92DF92EF92FF920F931F93E2
:10441000CF93DF93EC015B014A016901E881F981E7
:104420000284F385E02D099595012C0D3D1D215049
:104430003109E881F9810488F589E02D780184014A
:10444000A401B501CE010995E881F9810688F789B3
:10445000E02DCE01DF91CF911F910F91FF90EF9052
:10446000DF90CF90BF90AF909F908F9009948F92E4
:104470009F92AF92BF92CF92DF92EF92FF920F93F3
:104480001F93CF93DF93EC015B014A01690178012F
:10449000E881F9810284F385E02D0995C80CD91CC7
:1044A000860101501109E881F9810488F589E02D20
:1044B0009501A401B501CE010995E881F98106882D
:1044C000F789E02DCE01DF91CF911F910F91FF90E1
:1044D000EF90DF90CF90BF90AF909F908F90099416
:1044E000EF92FF920F931F93DC01ED91FC9100A0DE
:1044F000F1A1E02D09951F910F91FF90EF90089584
:104500000F931F93DC01ED91FC91068CF78DE02D4C
:1045100009951F910F9108950F931F93DC01ED9161
:10452000FC91048CF58DE02D09951F910F91089554
:10453000DC01ED91FC910084F185E02D09943F921E
:104540004F925F926F927F928F929F92AF92BF92A3
:10455000CF92DF92EF92FF920F931F93CF93DF934F
:1045600000D000D0CDB7DEB75C013B016A01490144
:10457000280187E0480E511C93E0559447949A9582
:10458000E1F7CA018E0D9F1D9A838983F12CE12CDE
:10459000312C1C821B828B819C8187709927330C64
:1045A000892B61F4EB81FC8183E0F595E7958A9591
:1045B000E1F7EE0DFF1DE80DF91D349037FE0AC03E
:1045C00021E030E0A6016B817C81660D771DC5017D
:1045D0000E9498228B819C8101969C838B83081773
:1045E0001907C9F69FEFC91AD90AE40CF51C89818D
:1045F0009A81C816D90669F60F900F900F900F9008
:10460000DF91CF911F910F91FF90EF90DF90CF90AE
:10461000BF90AF909F908F907F906F905F904F90E2
:104620003F9008952F923F924F925F926F927F92A8
:104630008F929F92AF92BF92CF92DF92EF92FF92B2
:104640000F931F93CF93DF9300D000D000D0CDB74E
:10465000DEB73C016A013E832D83FC82EB82580168
:10466000A41AB50AB7FE03C0B194A194B1088D8015
:104670009E80861A970A97FE03C0919481949108B0
:104680008A149B045CF0902F812F0D811E819D83E5
:104690008E839C2D8D2D6B01692F782F0C151D0598
:1046A0005CF09D818E817E836D83692F782F902FA2
:1046B000812F8601C92ED82E1601201A310A2B010E
:1046C0002D813E81421A530A57FE03C051944194F2
:1046D0005108710137FE03C03FEFE31AF30AF59466
:1046E000E7948D819E81861797075CF5A1E0B0E085
:1046F000BA83A983C016D1064CF1D301ED91FC9188
:104700000484F585E02D2B813C81A8016D817E819B
:104710008A149B041CF04D815E81B801C301099588
:10472000E418F508F7FE0AC02D813E8189819A813F
:10473000280F391F3E832D83E20CF31C0F5F1F4FA0
:10474000D9CF2FEF3FEF3A832983D4CF26960FB6E8
:10475000F894DEBF0FBECDBFDF91CF911F910F91B7
:10476000FF90EF90DF90CF90BF90AF909F908F9091
:104770007F906F905F904F903F902F900895089595
:1047800020911103260F3327331F21323105ECF41A
:1047900020913503FC0190E080E0243069F082E054
:1047A0000895A09111032191AC014F505D4FA40FCA
:1047B000B52FB11D2C930196861798F380911103A4
:1047C000680F6093110380E0089581E008959B01D4
:1047D000AC0160E074E284EF90E00E94B1342051BB
:1047E00031094109510956954795379527952093E9
:1047F000B80008951092350381E08093370310923A
:10480000360361E082E10E948C1961E083E10E943D
:104810008C19E9EBF0E080818E7F808380818D7F31
:10482000808388E48093B80085E48093BC00089579
:10483000CF93DF9391E09093F0028823B9F0C09179
:10484000B800D091BA008091BC008A7B8093BC00F4
:1048500060E082E10E948C1960E083E10E948C1983
:104860000E94FA23D093BA00C093B800DF91CF9191
:104870000895E091610380916003E81730F4F0E05F
:10488000E553FD4F808190E008958FEF9FEF0895ED
:1048900090916103809160032FEF3FEF981748F4E8
:1048A000E92FF0E0E553FD4F208130E09F5F9093CA
:1048B0006103C90108958091600390916103891B90
:1048C000990B0895CF92DF92EF92FF920F931F936F
:1048D000CF93DF937C01CB018A01209170032223C7
:1048E00089F0EB016B01C40ED51ECC15DD0569F016
:1048F0006991D701ED91FC910190F081E02DC70104
:104900000995F3CF642F0E94C023C801DF91CF9196
:104910001F910F91FF90EF90DF90CF900895CF936C
:10492000DF931F92CDB7DEB76983209170032223F6
:10493000F9F020916D03203258F021E030E0FC01C5
:104940003383228390E080E00F90DF91CF91089530
:1049500080916E03E82FF0E0E555FD4F998190833B
:104960008F5F80936E0380936D0381E090E0ECCFC6
:1049700061E0CE0101960E94C023F7CFCF92DF9273
:10498000EF92FF920F931F93CF93DF93D0916D031C
:1049900081E0D13208F09CC0C0916F030E94F019F1
:1049A0006B017C018091350381116CC082E08093A2
:1049B000350381E0809337038FEF809334031092A7
:1049C0005903D0935803ABEAB2E0E8E3F3E080E0A8
:1049D000D8138DC010925A0380915A03CC0FC82B64
:1049E000C0935A0380913603813009F084C010923D
:1049F00036030E94F0196B017C0180915A03809369
:104A0000BB008091EC029091ED02A091EE02B0917A
:104A1000EF02892B8A2B8B2BA1F00E94F0190091B9
:104A2000EC021091ED022091EE023091EF026C1930
:104A30007D098E099F09061717072807390708F40B
:104A400042C08091BC0083FDD8CF85EC8093BC0030
:104A50000E94F0196B017C0180913503823009F4CA
:104A60004CC0809134038F3F09F469C080913403B6
:104A7000803209F466C080913403803309F463C046
:104A800084E026C08091EC029091ED02A091EE02AC
:104A9000B091EF02892B8A2B8B2B09F483CF0E94D4
:104AA000F0190091EC021091ED022091EE0230918C
:104AB000EF026C197D098E099F0906171707280751
:104AC000390708F06FCF8091EB020E94182485E02F
:104AD00010926E0310926D0310927003DF91CF91CC
:104AE0001F910F91FF90EF90DF90CF9008959D91CF
:104AF00091938F5F6DCF85EEA9CF8091EC0290915D
:104B0000ED02A091EE02B091EF02892B8A2B8B2B44
:104B100009F4A2CF0E94F0190091EC021091ED026D
:104B20002091EE023091EF026C197D098E099F09E8
:104B3000061717072807390708F08ECFC4CF80E083
:104B4000C7CF82E0C5CF83E0C3CFEF92FF920F9330
:104B50001F93CF93DF937C01C62F80914D049091DA
:104B60004E04009709F459C02091510431E030936C
:104B7000700320936F0310926E0310926D03DC019B
:104B8000ED91FC910190F081E02D60E009958701A5
:104B9000EE24E394F12CD1E0C15080914D0490912A
:104BA0004E04CF3F91F1B0E2EB16F104D8F00E9431
:104BB000BE2480914D0490914E0420915104D093D5
:104BC000700320936F0310926E0310926D03DC014B
:104BD000ED91FC910190F081E02D60E00995EE24CB
:104BE000E394F12C80914D0490914E04F80164916E
:104BF000DC01ED91FC910190F081E02D0995BFEF72
:104C0000EB1AFB0A0F5F1F4FC7CFDF91CF911F91A8
:104C10000F91FF90EF900C94BE24E0915D04F09111
:104C20005E0490818091630480958923808387014D
:104C3000C15008F438C0F801849120914B043091A0
:104C40004C04232B29F00E94AE1D0F5F1F4FF0CFA5
:104C500028E030E040E8E0915904F0915A04909146
:104C60006104582F5423D9F05081952B9083E09103
:104C70005B04F0915C04908150916204952B9083C9
:104C8000E0915B04F0915C045081909162049095F6
:104C900095239083469521503109E9F6D6CF50816E
:104CA00090959523E3CFDF91CF911F910F91FF90C6
:104CB000EF9008951F93CF93DF93EC018D8D9E8D20
:104CC000009721F1162F29A131E030937003209332
:104CD0006F0310926E0310926D03DC01ED91FC9155
:104CE0000190F081E02D60E009958D8D9E8DDC01B5
:104CF000ED91FC910190F081E02D612F09958D8D52
:104D00009E8DDF91CF911F910C94BE24ADA5BEA5C1
:104D10009C918BA9809589238C938B8D9C8D892B5D
:104D200031F0862FDF91CF911F910C94AE1D28E0BA
:104D300030E080E8A9A5BAA599A9462F4823C1F07B
:104D40004C91942B9C93ABA5BCA59C914AA9942B08
:104D50009C93ABA5BCA54C919AA9909594239C9348
:104D600086952150310931F7DF91CF911F91089538
:104D70004C9190959423E6CFDF92EF92FF920F93A0
:104D80001F93CF93DF9380914D0490914E04892B14
:104D900009F48AC06091650470916604809167048B
:104DA000909168040E94E72365E08EE392E30E94FD
:104DB000A52560913404615080E394E00E945A2656
:104DC0002091360430913704C901079697FD079664
:104DD00023E0959587952A95E1F720913404309149
:104DE0003504829F8001839F100D929F100D112426
:104DF000C0914F04D091500480914D0490914E0485
:104E00000C0F1D1F009709F480C02091510431E060
:104E10003093700320936F0310926E0310926D0312
:104E2000DC01ED91FC910190F081E02D60E40995A9
:104E3000EE24E394F12CDD24D39480914D049091E1
:104E40004E040C171D0709F446C0B0E2EB16F1043E
:104E5000D8F00E94BE2480914D0490914E04209180
:104E60005104D092700320936F0310926E0310923E
:104E70006D03DC01ED91FC910190F081E02D60E487
:104E80000995EE24E394F12C80914D0490914E0409
:104E90006991DC01ED91FC910190F081E02D099583
:104EA000BFEFEB1AFB0AC9CF80914B0490914C04E1
:104EB000892B31F080916E0490916F040E94B51D92
:104EC000E0915F04F091600490818091640480958A
:104ED0008923808369CF0E94BE2480914D049091E4
:104EE0004E04892B09F452C06091690470916A04E0
:104EF00080916B0490916C04DF91CF911F910F9181
:104F0000FF90EF90DF900C94E723E0915D04F09127
:104F10005E04808190916304892B80830C171D07A8
:104F2000E1F2899120914B0430914C04232B19F02C
:104F30000E94AE1DF3CF28E030E040E8E091590434
:104F4000F0915A0490916104582F5423D9F0508164
:104F5000952B9083E0915B04F0915C0490815091DB
:104F60006204952B9083E0915B04F0915C04508186
:104F70009091620490959523908346952150310934
:104F8000E9F6CCCF508190959523E3CFE0915F0473
:104F9000F0916004808190916404892B8083DF917B
:104FA000CF911F910F91FF90EF90DF9008951F9385
:104FB000CF93DF93EC01162F8D8D9E8D892BC9F039
:104FC0006DA97EA98FA998AD0E94E72366EA111109
:104FD00067EACE010E945A268D8D9E8D892BC9F0DD
:104FE00069AD7AAD8BAD9CADDF91CF911F910C94E3
:104FF000E7238B8D9C8D892B21F08EAD9FAD0E9478
:10500000B51DEFA5F8A990818CA98095892380838F
:10501000DDCFEFA5F8A980819CA9892B8083DF9142
:10502000CF911F91089590E080E00895FC010190D8
:105030000020E9F73197AF01481B590BBC0181E70C
:1050400093E00C944A1A8F929F92AF92BF920F9363
:105050001F93CF93DF93CDB7DEB7A1970FB6F89428
:10506000DEBF0FBECDBF19A2423008F44AE08E0168
:105070000F5D1F4F842E912CB12CA12CA501940102
:105080000E94B134E62FB901CA01EA30F4F4E05DC0
:10509000D801EE938D01232B242B252B79F790E05B
:1050A00080E0109719F0CD010E941628A1960FB646
:1050B000F894DEBF0FBECDBFDF91CF911F910F914E
:1050C000BF90AF909F908F900895E95CE1CFCF9310
:1050D000DF930E941628EC018DE591E00E941628CE
:1050E0008C0F9D1FDF91CF91089520913604309150
:1050F0003704C901079697FD079623E09595879594
:105100002A95E1F72091340430913504829FA00163
:10511000839F500D929F500D112470E060E08091AC
:105120004F04909150040C945A38EF92FF920F93D1
:105130001F930E94752880E4E82EF12C00E810E00F
:1051400028E630E150E040E070E060E080E394E089
:105150000E949F220E94BC2668EE73E080E090E0EF
:105160000E94151A0E94752828E63CE050E040E0B5
:1051700070E060E080E394E00E949F220E94BC26E1
:105180006CED75E080E090E01F910F91FF90EF9043
:105190000C94151AEF92FF920F931F93CF93C2E0D6
:1051A0000E94752880E4E82EF12C00E810E028E643
:1051B00030E150E040E070E060E080E394E00E9485
:1051C0009F220E94BC2668E077E080E090E00E9489
:1051D000151A0E94752828E638E050E040E070E09B
:1051E00060E080E394E00E949F220E94BC2668EC6D
:1051F00070E080E090E00E94151AC13031F4CF9148
:105200001F910F91FF90EF900895C1E0C9CFEF92E9
:10521000FF920F931F930E94752880E4E82EF12CD3
:1052200000E810E028E634E050E040E070E060E0A4
:1052300080E394E00E949F220E94BC266CEF78E0FD
:1052400080E090E00E94151A0E94752828E630E060
:1052500050E040E070E060E080E394E00E949F2234
:105260000E94BC260E9475282AE236E250E040E007
:1052700070E060E080E394E00E949F220E94BC26E0
:105280000E94752828E630E050E040E070E060E0E1
:1052900080E394E00E949F221F910F91FF90EF9076
:1052A0000C94BC26EF92FF920F931F930E947528D7
:1052B00080E4E82EF12C00E810E028E630E150E030
:1052C00040E070E060E080E394E00E949F220E9452
:1052D000BC266CEF78E080E090E00E94151A0E94F6
:1052E000752828E634E050E040E070E060E080E3BC
:1052F00094E00E949F220E94BC260E94752828E606
:1053000030E050E040E070E060E080E394E00E9434
:105310009F220E94BC260E9475282AE236E250E0B5
:1053200040E070E060E080E394E00E949F220E94F1
:10533000BC260E94752828E630E050E040E070E08E
:1053400060E080E394E00E949F220E94BC260E94BD
:10535000752828E634E050E040E070E060E080E34B
:1053600094E00E949F221F910F91FF90EF900C9468
:10537000BC260E94553885ED8093BC008091EC02DC
:105380009091ED02A091EE02B091EF020796A11D5F
:10539000B11D23E0B695A795979587952A95D1F7E6
:1053A0002091BC0024FD03C0109235030895409164
:1053B000EC025091ED026091EE027091EF02452BEC
:1053C000462B472B69F30097A105B10541F025E372
:1053D0002A95F1F700000197A109B109E1CF809169
:1053E000EB020C9418241F920F920FB60F92112407
:1053F0002F933F938F939F93AF93BF9380916503B8
:1054000090916603A0916703B091680330916403A3
:1054100023E0230F2D3758F50196A11DB11D2093D0
:1054200064038093650390936603A0936703B0932E
:1054300068038091690390916A03A0916B03B09116
:105440006C030196A11DB11D8093690390936A03BB
:10545000A0936B03B0936C03BF91AF919F918F9119
:105460003F912F910F900FBE0F901F90189526E837
:10547000230F0296A11DB11DD2CF1F920F920FB61E
:105480000F9211242F933F934F935F936F937F93CA
:105490008F939F93AF93BF93EF93FF9381E793E035
:1054A0000E94C81AFF91EF91BF91AF919F918F9188
:1054B0007F916F915F914F913F912F910F900FBE10
:1054C0000F901F9018951F920F920FB60F921124F4
:1054D0002F938F939F93EF93FF93E0918103F0912C
:1054E00082038081E0918703F091880382FD1BC0D5
:1054F000908180918A038F5F8F7320918B03821735
:1055000041F0E0918A03F0E0EF58FC4F958F8093D3
:105510008A03FF91EF919F918F912F910F900FBE72
:105520000F901F9018958081F4CF1F920F920FB6A5
:105530000F9211242F933F934F935F936F937F9319
:105540008F939F93AF93BF93EF93FF938091B90095
:10555000887F803609F44AC0F0F5883209F4A7C084
:1055600018F5803109F49BC0B8F4882309F4F9C018
:10557000883009F494C0FF91EF91BF91AF919F9152
:105580008F917F916F915F914F913F912F910F90EC
:105590000FBE0F901F901895883109F488C0803293
:1055A00051F78093340314C0803409F49DC040F453
:1055B0008033B9F38833F9F68093340385ECB0C0B7
:1055C000803509F485C0883509F496C0883499F689
:1055D0000E94BB29D0CF883909F48CC038F58837B0
:1055E00029F050F4883611F0803729F683E0809353
:1055F00035031092330357C0883809F47BC08039D3
:1056000019F0803809F0B7CF80913303803208F069
:1056100071C0E091330381E08E0F8093330380915A
:10562000BB00F0E0ED5EFC4F80833DC0803B39F075
:10563000E0F4803A09F479C0883A09F09CCF84E01C
:10564000809335031092120310921103E0915E03D0
:10565000F0915F0309958091110381110FC081E0E2
:10566000809311031092F10209C0803C09F4A6CF87
:10567000883C09F4A3CF883B09F07DCFE091120369
:1056800081E08E0F80931203F0E0EF50FD4F808198
:105690008093BB00909112038091110329C08091E7
:1056A0005A038093BB0085EC8093BC0064CF90913B
:1056B000590380915803981758F5E091590381E0F8
:1056C0008E0F80935903F0E0E85CFC4F8081E9CFB6
:1056D000E091590381E08E0F809359038091BB00C4
:1056E000F0E0E85CFC4F808390915903809158036F
:1056F0009817C8F285E8D8CFE091590381E08E0F62
:10570000809359038091BB00F0E0E85CFC4F8083FC
:105710008091370381115CCF81E08093360384EA66
:105720008093BC001092350326CF85EC8093BC009B
:105730001092350380913303803230F4E0913303CB
:10574000F0E0ED5EFC4F10826091330370E0E09179
:105750005C03F0915D0383E193E0099510923303BC
:105760000ACF1092340334CF1F920F920FB60F92CC
:1057700011248F929F92AF92BF92CF92DF92EF92BD
:10578000FF922F933F934F935F936F937F938F93EA
:105790009F93AF93BF93CF93DF93EF93FF9387EFE5
:1057A00092EC90938500809384008091AA028F5F91
:1057B0008D3308F0F9C08093AA02C091AA028C2F01
:1057C00067E00E94E234911169C0DAE0C12CD12C6B
:1057D000760181E10E94D819BC01990F880B990BC1
:1057E0000E9409369B01AC01C701B6010E94F53445
:1057F0006B017C016AE070E080E090E00E94151A85
:10580000D15039F720E030E040E251E4C701B60161
:105810000E94663525E33EE542EC50E40E94BE3628
:1058200020E030E040E85AE30E94BE366B017C0184
:10583000C0921A04D0921B04E0921C04F0921D0442
:1058400026E636E646E450E40E94B93687FDAFC04E
:1058500080912304809301018EE00E94D8199093D7
:105860001504809314048FE00E94D81990931704B4
:10587000809316042091140430911504820F931F15
:105880009695879590931904809318048B30910511
:1058900008F0A7C080911E04809300018C2F65E062
:1058A0000E94E23491110AC00E9427342CE030E0BB
:1058B00040E050E00E947F34609362038091AA022E
:1058C00061E10E94E234911154C08DE692E00E94A1
:1058D00016282FB7F8946091650370916603809144
:1058E0006703909168032FBF28EE33E040E050E05B
:1058F0000E94B134CA01B9014AE00E94232885E719
:1059000092E00E941628C0901A04D0901B04E090E8
:105910001C04F0901D04A7019601C701B6010E9466
:105920002B37882309F466C089E892E00E94162884
:1059300085E992E00E9416286091620370E090E091
:1059400080E04AE00E94232883EA92E00E94162821
:10595000609118047091190490E080E04AE00E9480
:1059600023288DE591E00E9416288FE591E00E94A2
:105970006728FF91EF91DF91CF91BF91AF919F91F8
:105980008F917F916F915F914F913F912F91FF90F8
:10599000EF90DF90CF90BF90AF909F908F900F903F
:1059A0000FBE0F901F9018951092AA0206CF26E600
:1059B00036E646E450E4C701B6010E94613587FF30
:1059C0000DC020E030E040E450E4C701B6010E9481
:1059D000B93687FD03C0809122043CCF8091210419
:1059E00039CF0B97449718F480911F0455CF8091BD
:1059F000200452CF46015701E894B7F82FEF3FEF4C
:105A00004FE75FE7C501B4010E942B3781110DC03C
:105A10002FEF3FEF4FE75FE7C501B4010E9461350B
:105A200018161CF48DE892E081CF2FEF3FEF4FE77F
:105A30005FE4C701B6010E94B93618161CF481E96B
:105A400092E074CF2FEF3FEF4FE75FECC701B60155
:105A50000E94613587FDF3CF20E030E0A901C70146
:105A6000B6010E94613587FF09C06DE281E793E0CE
:105A70000E94EA1AF7FAF094F7F8F0942AE037ED6A
:105A800043EA5BE3C701B6010E94F5344B015C01B8
:105A90000E94D8356B017C010E9407369B01AC0146
:105AA000C501B4010E94F4344B015C014AE0C70116
:105AB000B6010E9423286EE281E793E00E94EA1A71
:105AC00020E030E040E251E4C501B4010E94BE365E
:105AD0004B015C010E94D8356B01F12CE12C4AE0AE
:105AE000C701B6010E942328C701B6010E940736EC
:105AF0009B01AC01C501B4010E94F43420E030E008
:105B000040E251E40E94BE360E94D83590E080E029
:105B10004AE00E9423280CCF1F920F920FB60F92DB
:105B200011248F9381E0809363038F910F900FBEB8
:105B30000F901F9018951F920F920FB60F9211247D
:105B4000A8950F900FBE0F901F901895E1E7F3E016
:105B50001382128248EE53E060E070E04483558384
:105B60006683778381E191E09183808385EC90E087
:105B70009587848784EC90E09787868780EC90E017
:105B8000918B808B81EC90E0938B828B82EC90E008
:105B9000958B848B86EC90E0978B868B118E128E82
:105BA000138E148EA4E2B4E013961C921E921297E8
:105BB00014964D935D936D937C93179783E291E0D8
:105BC00011969C938E93E0E3F4E01382128220E816
:105BD00030E03583248380E490E0978386833187A7
:105BE000208793878287168A1586148617861686DD
:105BF00081E0858B848B2FEF3FEF338B228B318BB2
:105C0000208B878B108E128E118E25E331E031832D
:105C10002083148E138EB68FA58F10A2178E9FEF40
:105C200094A395A396A397A394E090A740E85AE184
:105C300066E070E045AB56AB67AB70AF40EA56E844
:105C400061E070E041AF52AF63AF74AF90E596AFE3
:105C500017AEEEE0F4E024E630E0378326833187A8
:105C60002087338722871486158616861786108A22
:105C7000818B92E0928B138A848B958B0895789414
:105C800084B5826084BD84B5816084BD85B5826041
:105C900085BD85B5816085BD80916E0081608093F2
:105CA0006E0010928100809181008260809381005B
:105CB000809181008160809381008091800081606B
:105CC000809380008091B10084608093B1008091C6
:105CD000B00081608093B00080917A0084608093EE
:105CE0007A0080917A00826080937A0080917A00B5
:105CF000816080937A0080917A00806880937A0036
:105D00001092C100E0918103F091820382E08083D0
:105D1000E0917D03F0917E031082E0917F03F0918A
:105D200080038FEC808310928903E0918503F091CA
:105D3000860386E08083E0918303F0918403808171
:105D400080618083E0918303F09184038081886087
:105D50008083E0918303F091840380818068808355
:105D6000E0918303F091840380818F7D808364E6DA
:105D700070E080E090E00E94151A80914F049091AD
:105D80005004892B39F10E94752880913604909136
:105D900037046091340470913504813291050CF020
:105DA000DAC0AC014052510957FF02C04F5F5F4F4C
:105DB000559547956357710977FF02C06F5F7F4F15
:105DC0007595679580E2E82EF12C03E710E02AE84C
:105DD00039E1D9C02091360430913704C9010796C2
:105DE00097FD0796F3E095958795FA95E1F7209151
:105DF000340430913504AC01429FC001439F900DA3
:105E0000529F900D11240E9430379093500480933C
:105E10004F04892B09F0B7CF81EC91E00E946728ED
:105E200064E170E080E090E00E94151AF89410920E
:105E300080001092810080918100856080938100B4
:105E400087EF92EC90938500809384007894809102
:105E50006F00816080936F008AED91E00E94672857
:105E600064E170E080E090E00E94151AF894529886
:105E70005A9A809169008260809369007894E89AC8
:105E800082E092E00E94672864E170E080E090E0A8
:105E90000E94151AF89414BE809160008861809366
:105EA000600081E68093600078948DE192E00E942A
:105EB000672864E170E080E090E00E94151A83E0BA
:105EC0008093020152E0852E912CA12CB12C60E030
:105ED000C62E60E0D62E0E94522990912104809116
:105EE0000101981304C086E592E00E946728909112
:105EF000220480910101981378C30E94752840E420
:105F0000E42EF12C00E810E02AE232E250E040E01A
:105F100070E060E080E394E00E949F220E94BC2633
:105F20006AE471E080E090E00E94151A0E947528F2
:105F30002AE23EE150E040E070E060E080E394E07F
:105F40000E949F220E94BC266AE471E080E090E0FB
:105F50000E94151ACCCFAC014054510957FF02C022
:105F60004F5F5F4F559547956255710977FF02C0A6
:105F70006F5F7F4F7595679530E4E32EF12C02E556
:105F800010E02AE63BE180E394E00E949F2282E059
:105F90008093520480914D0490914E04892B09F412
:105FA00031C18CE38093510410926103109260031D
:105FB00010926E0310926D030E94FA2388E49AE116
:105FC00090935F0380935E0389E49AE190935D036D
:105FD00080935C038091580487FD1DC00E946C195A
:105FE00061E0809158040E948C1961E070E080E0CB
:105FF00090E00E94151A60E0809158040E948C196C
:106000006AE070E080E090E00E94151A61E0809103
:1060100058040E948C1980914D0490914E04892B54
:1060200009F4A7C1609165047091660480916704CA
:10603000909168040E94E72364E086E899E10E9459
:10604000A52560913604615080E394E00E945A26B1
:1060500064E082E899E10E94A5258091520460E104
:10606000813009F064E180E394E00E945A2664E004
:106070008EE799E10E94A5258FE880936D048091B9
:106080003404909135048038910509F08BC18091DA
:106090003604909137048034910509F093C18091C2
:1060A0005204813009F07CC18FE980936D04C2E114
:1060B0006AED80E394E00E945A266C2F80E394E01E
:1060C0000E945A2661E880E394E00E945A2660917B
:1060D0006D0480E394E00E945A2669ED80E394E029
:1060E0000E945A268091520462E2813009F061EFE9
:1060F00080E394E00E945A2666E088E799E10E94D6
:10610000A52580914D0490914E04892B09F45EC120
:106110006091690470916A0480916B0490916C04A1
:106120000E94E72380E691E00E94672882E891E0E0
:106130000E94672880914D0490914E04892B09F4A8
:106140004FC16091650470916604809167049091DD
:1061500068040E94E7236FEA80E394E00E945A26D5
:1061600080914D0490914E04892B09F450C16091A7
:10617000690470916A0480916B0490916C040E9490
:10618000E72380E991E00E94162881EA91E00E94CD
:10619000672880914D0490914E04892B09F441C1E8
:1061A0006091650470916604809167049091680421
:1061B0000E94E72361E880E394E00E945A2661E0B0
:1061C00080E394E00E945A2680914D0490914E0401
:1061D000892B09F43DC16091690470916A04809132
:1061E0006B0490916C040E94E72385EA91E00E9481
:1061F00067280E94752884EB91E00E9467280E941E
:10620000BC260ACE809156040E946C1980915704D6
:106210000E946C1980915604082E000C990BFC0109
:10622000E95AFD4CE491F0E0EE0FFF1FED5BFD4CF1
:106230002591349130935E0420935D04FC01E5596F
:10624000FD4CE491E093630480915704082E000C08
:10625000990BFC01E95AFD4CE491F0E0EE0FFF1FB1
:10626000ED5BFD4CA591B491B0936004A0935F04E5
:10627000FC01E559FD4CE491E09364048C91E82B1A
:10628000EC9380914B0490914C04892B89F1CFB70A
:10629000F89480915B03811124C0E1E6F2E38491DC
:1062A000E5E7F2E39491E82FF0E0EE0FFF1FE35BE8
:1062B000FD4CA591B491EC91E92321F461E08AE0D1
:1062C0000E948C198AE00E946C198CB580618CBD8B
