:100000000C944F190C94692D0C9477190C94771952
:100010000C9477190C9477190C94A02D0C947719E3
:100020000C9477190C9477190C9477190C94771910
:100030000C9477190C94AB2D0C9477190C947719B8
:100040000C94A82B0C9477190C94182C0C94F22B6C
:100050000C9477190C9477190C9477190C947719E0
:100060000C944A2C0C94771900000000003E5B4F62
:100070005B3E3E6B4F6B3E1C3E7C3E1C183C7E3C08
:10008000181C577D571C1C5E7F5E1C00183C180016
:10009000FFE7C3E7FF0018241800FFE7DBE7FF30A6
:1000A000483A060E2629792926407F050507407F14
:1000B00005253F5A3CE73C5A7F3E1C1C08081C1C87
:1000C0003E7F14227F22145F5F005F5F06097F017D
:1000D0007F006689956A606060606094A2FFA29468
:1000E00008047E040810207E201008082A1C080836
:1000F0001C2A08081E101010100C1E0C1E0C303884
:100100003E3830060E3E0E06000000000000005F84
:1001100000000007000700147F147F14242A7F2AA0
:100120001223130864623649562050000807030062
:10013000001C2241000041221C002A1C7F1C2A08AE
:10014000083E080800807030000808080808000011
:1001500060600020100804023E5149453E00427F85
:10016000400072494949462141494D331814127FD4
:100170001027454545393C4A494931412111090774
:100180003649494936464949291E000014000000F5
:1001900040340000000814224114141414140041C7
:1001A00022140802015909063E415D594E7C121184
:1001B000127C7F494949363E414141227F414141BC
:1001C0003E7F494949417F090909013E4141517337
:1001D0007F0808087F00417F41002040413F017FA8
:1001E000081422417F404040407F021C027F7F0470
:1001F00008107F3E4141413E7F090909063E4151B9
:10020000215E7F09192946264949493203017F01A8
:10021000033F4040403F1F2040201F3F4038403FA9
:10022000631408146303047804036159494D4300BF
:100230007F4141410204081020004141417F0402F6
:10024000010204404040404000030708002054548D
:1002500078407F284444383844444428384444286B
:100260007F385454541800087E090218A4A49C78BE
:100270007F0804047800447D40002040403D007F1A
:100280001028440000417F40007C047804787C08FA
:100290000404783844444438FC18242418182424CE
:1002A00018FC7C08040408485454542404043F44B3
:1002B000243C4040207C1C2040201C3C4030403CE2
:1002C00044281028444C9090907C4464544C440042
:1002D00008364100000077000000413608000201A6
:1002E0000204023C2623263C1EA1A161123A404092
:1002F000207A38545455592155557941225454780F
:1003000042215554784020545579400C1E527212A7
:100310003955555559395454545939555454580030
:1003200000457C410002457D420001457C407D1234
:1003300011127DF0282528F07C5455450020545496
:100340007C547C0A097F4932494949323A44444441
:100350003A324A4848303A4141217A3A424020787C
:10036000009DA0A07D3D4242423D3D4040403D3C7D
:1003700024FF2424487E4943662B2FFC2F2BFF09A2
:1003800029F620C0887E0903205454794100004496
:100390007D413048484A32384040227A007A0A0A81
:1003A000727D0D19317D2629292F282629292926F4
:1003B00030484D4020380808080808080808382F39
:1003C00010C8ACBA2F102834FA00007B00000814C3
:1003D0002A142222142A14085500550055AA55AA99
:1003E00055AAFF55FF55FF000000FF00101010FF39
:1003F00000141414FF001010FF00FF1010F010F094
:10040000141414FC001414F700FF0000FF00FF1484
:1004100014F404FC141417101F10101F101F1414D0
:10042000141F00101010F0000000001F101010101A
:100430001F10101010F010000000FF10101010100E
:1004400010101010FF10000000FF140000FF00FF4C
:1004500000001F10170000FC04F4141417101714E8
:1004600014F404F40000FF00F7141414141414140A
:10047000F700F7141414171410101F101F1414147D
:10048000F4141010F010F000001F101F0000001FE7
:1004900014000000FC140000F010F01010FF10FF1A
:1004A000141414FF141010101F00000000F010FFAF
:1004B000FFFFFFFFF0F0F0F0F0FFFFFF0000000093
:1004C00000FFFF0F0F0F0F0F3844443844FC4A4A17
:1004D0004A347E02020606027E027E0263554941CC
:1004E000633844443C04407E201E2006027E020203
:1004F00099A5E7A5991C2A492A1C4C7201724C3017
:100500004A4D4D303048784830BC625A463D3E49ED
:100510004949007E0101017E2A2A2A2A2A44445F91
:10052000444440514A444040444A51400000FF0185
:1005300003E080FF000008086B6B08361236243693
:10054000060F090F060000181800000010100030F8
:1005500040FF0101001F01011E00191D1712003C80
:100560003C3C3C00000000002200FF210000010391
:10057000070F1F3F7F0080C0E0F0F8FCFEDB40A4C7
:10058000A62EAF2000A1C8D300408DAED580A80014
:1005900000600000000000000000000000000000FB
:1005A000E00000000000000000000000000001E08A
:1005B0000000000000000000000000000001F0004A
:1005C00000000000000000000000000003F0000038
:1005D000000000000000000000000007F000000024
:1005E0000000000000000000000007F8000000000C
:1005F0000000000000000000000FF800000003C031
:10060000007E000001E0007F0FF800000003C00042
:10061000FE000001E000FFEFF800000003C000FE54
:10062000000001E000FFFFF800000003C000F00040
:1006300000000F007FFE7FC0000003C000F000003C
:10064000000F003FFE7FF83FF1FBCFFCFEF3BC3D07
:10065000EFE01FFE7FFF7FFBFFDFFEFEFFBC3DEFF5
:10066000E01FC6FFFF7FFBFFDFFEFEFFBC3DEFE0AC
:100670000FE3C7FE787BC3DE1EF0FFBC3DEF000733
:10068000FF87FC787BC3DE1EF0F83C3DEF0001FFE6
:10069000FFF0007BC3C01EF0F03C3DEF0001F37F94
:1006A000E03FFBC3CFFEF0F03C3DEF0003E33F80B3
:1006B0007FFBC3DFFEF0F03C3DEF0007E73C007836
:1006C0007BC3DE1EF0F03C3DEF0007FFBE00787BF1
:1006D000C3DE1EF0F03C3DEF0007FFFE00787BC359
:1006E000DE1EF0F03C3DEF000FFFFE007FFBFFDF62
:1006F000FEF0F03FFDEFE00FFFFF007FFBFFDFFEAE
:10070000F0F03FFDEFE00FF9FF003E79F9CF9EF0EA
:10071000F01F3DE7E01FF1FF0000000000000000B7
:10072000000000001F80FF007FFFFFFFFFFFFFFFB3
:10073000FFFFE01C007F007FFFFFFFFEB46D888D90
:1007400018E000001F007FFFFFFFFE95AD7DB5772D
:10075000E000000F007FFFFFFFFEA5AD9D8D19E0BB
:10076000000006007FFFFFFFFEB5ADEDB57EE000A7
:1007700000000000018000000000000000000003F5
:100780008000000000000000000007C00000000022
:10079000000000000007C000000000000000000092
:1007A0000FC00000000000000000001FE00000007B
:1007B0000000000000001FE000000000000000003A
:1007C000003FE00000000000000000003FF00000DB
:1007D000000000000000007FF000000000000000AA
:1007E0001FF87FF0000000000000003FFE7FF000D7
:1007F0000000000000003FFF7FF00000000000004C
:10080000001FFFFBE0000000000000000FFFF9FFE9
:10081000C00000000000000FFFF9FFF8000000001A
:10082000000007FFF1FFFF00000000000003FC7361
:10083000FFFF80000000000001FE3FFFFF8000007E
:1008400000000000FF1E0FFF000000000000007FFE
:10085000FE1FFC000000000000003FFFFFF800004A
:1008600000000000000FDFFFE000000000000000BB
:100870001F19FFC0000000000000003F3CFF000007
:100880000000000000007E7CF80000000000000076
:10089000007FFE7C0000000000000000FFFFFC0065
:1008A00000000000000000FFFFFE0000000000004C
:1008B0000000FFFFFE0000000000000001FFEFFE4F
:1008C0000000000000000001FFCFFE00000000005B
:1008D000000003FF07FE0000000000000003FC070B
:1008E000FE0000000000000003F003FE0000000016
:1008F000000000018000FE00000000000000000079
:10090000007E000000000000000000003E0000002B
:10091000000000000000000C000000000000078044
:1009200000FC000003C0000000078001FC00000381
:10093000C0000000078001FC000003C000000007A9
:100940008001E00000001E000000078001E00000C0
:10095000001E007FE3F79FF9FDE7787BDFC0FFF71C
:10096000FFBFFDFDFF787BDFC0FFF7FFBFFDFDFF91
:10097000787BDFC0F0F787BC3DE1FF787BDE00F0DD
:10098000F787BC3DE1F0787BDE0000F787803DE132
:10099000E0787BDE007FF7879FFDE1E0787BDE007B
:1009A000FFF787BFFDE1E0787BDE00F0F787BC3D15
:1009B000E1E0787BDE00F0F787BC3DE1E0787BDEAC
:1009C00000F0F787BC3DE1E0787BDE00FFF7FFBF7A
:1009D000FDE1E07FFBDFC0FFF7FFBFFDE1E07FFB54
:1009E000DFC07CF3F39F3DE1E03E7BCFC000000021
:1009F0000000000000000000FFFFFFFFFFFFFFFFFF
:100A0000FFFFC0FFFFFFFFFD68DB111A31C0FFFFD2
:100A1000FFFFFD2B5AFB6AEFC0FFFFFFFFFD4B5BA3
:100A20003B1A33C0FFFFFFFFFD6B5BDB6AFDC0536A
:100A300053443133303620616C6C6F636174696F7D
:100A40006E206661696C65640000000000000000B3
:100A50000000000000000000000000000000000096
:100A60000000000000000000000000000000000086
:100A70000000000000000000000000000000000076
:100A80000000000000000000000000000000000066
:100A90000000000000000000000000000000000056
:100AA0000000000000000000000000000000000046
:100AB0000000000000000000000000000000000036
:100AC0000000000000000000000000000000000026
:100AD0000000000000000000000000000000000016
:100AE0000000000000000000000000000000000006
:100AF00000000000000000000000000000000000F6
:100B000000000000000000000000000000000000E5
:100B100000000000000000000000000000000000D5
:100B200000000000000000000000000000000000C5
:100B300000000000000000000000000000000000B5
:100B400000000000000000000000000000000000A5
:100B50000000000000000000000000000000000095
:100B60000000000000000000000000000000000085
:100B70000000000000000000000000000000000075
:100B80000000000000000000000000000000000065
:100B90000000000000000000000000000000000055
:100BA0000000000000000000000000000000000045
:100BB0000000000000000000000000000000000035
:100BC0000000000000000000000000000000000025
:100BD0000000000000000000000000000000000015
:100BE0000000000000000000000000000000000005
:100BF00000000000000000000000000000000000F5
:100C000000000000000000000000000000000000E4
:100C100000000000000000000000000000000000D4
:100C200000000000000000000000000000000000C4
:100C300000000000000000000000000000000000B4
:100C400000000000000000000000000000000000A4
:100C500000000000000003F00000000000000000A1
:100C60000000000000000210000000000000000072
:100C70000000000000000210000000000000000062
:100C80000000000000000FFC000000000000000059
:100C90000000000000001806000000000000000036
:100CA0000000000000001002000000000000000032
:100CB0000000000000001002000000000000000022
:100CC0000000000000001002000000000000000012
:100CD0000000000000001002000000000000000002
:100CE00000000000000010020000000000000000F2
:100CF00000000000000010020000000000000000E2
:100D000000000000000010020000000000000000D1
:100D100000000000000010020000000000000000C1
:100D200000000000000010020000000000000000B1
:100D300000000000000010020000000000000000A1
:100D40000000000000001002000000000000000091
:100D50000000000000001002000000000000000081
:100D60000000000000001002000000000000000071
:100D70000000000000001002000000000000000061
:100D80000000000000001002000000000000000051
:100D90000000000000001002000000000000000041
:100DA0000000000000001002000000000000000031
:100DB0000000000000001806000000000000000015
:100DC0000000000000000FFC000000000000000018
:100DD0000000000000000000000000000000000013
:100DE0000000000000000000000000000000000003
:100DF00000000000000000000000000000000000F3
:100E000000000000000000000000000000000000E2
:1010500000000000000003F000000000000000009D
:10106000000000000000021000000000000000006E
:10107000000000000000021000000000000000005E
:101080000000000000000FFC000000000000000055
:101090000000000000001806000000000000000032
:1010A000000000000000100200000000000000002E
:1010B000000000000000100200000000000000001E
:1010C000000000000000100200000000000000000E
:1010D00000000000000010020000000000000000FE
:1010E00000000000000010020000000000000000EE
:1010F00000000000000010020000000000000000DE
:1011000000000000000010020000000000000000CD
:1011100000000000000010020000000000000000BD
:1011200000000000000010020000000000000000AD
:10113000000000000000100200000000000000009D
:10114000000000000000100200000000000000008D
:10115000000000000000100200000000000000007D
:10116000000000000000100200000000000000006D
:1011700000000000000017FA00000000000000005E
:1011800000000000000017FA00000000000000004E
:1011900000000000000017FA00000000000000003E
:1011A000000000000000100200000000000000002D
:1011B0000000000000001806000000000000000011
:1011C0000000000000000FFC000000000000000014
:1011D000000000000000000000000000000000000F
:1011E00000000000000000000000000000000000FF
:1011F00000000000000000000000000000000000EF
:1012000000000000000000000000000000000000DE
:1012100000000000000000000000000000000000CE
:1012200000000000000000000000000000000000BE
:1012300000000000000000000000000000000000AE
:101240000000000000000000000000000000380066
:10125000000000F0000000000000000000003C0062
:10126000000001C0000000000000000000001C00A1
:1012700000000580000000000000000000000E00DB
:1012800000000780000000000000000000000700D0
:1012900000000F0000000000000000000000070038
:1012A00000000E0000000000000000001F800B8006
:1012B00000001C0003F00000000000007FFF81C060
:1012C00000001C03FFFF000000000003FFFFE1E03F
:1012D0000000380FFFFF80000000000FFFFFFCE060
:1012E0000000707FFFFFE0000000003FFFFFFFF005
:1012F000000073FFFFFFF800000000FFFFFFFFF892
:101300000000EFFFFFFFFE00000001FFFFFFFFFCFA
:101310000000FFFFFFFFFF00000007F3FFFFC7FC17
:101320000000FFCFFFFF9FC000000FC7FFFFE07E60
:101330000001FC0FFFFF8FE000003F07FFFFE00F01
:101340000001E01FFFFFC1F804607C07FFFFE0031E
:101350000001801FFFFFC07C0CF8F80FFFFFF000BA
:101360000000003FFFFFE03E0C9FF00FFFFFF0008A
:101370000000003FFFFFE01F9DC7E01FFFFFF000E0
:101380000000007FFFFFF00FFDFFC01FFFFFF80010
:101390000000007FFFFFF007F37F801FFFFFF800D2
:1013A0000000007FFFFFF003FF7F003FFFFFF8001A
:1013B000000000FFFFFFF001FF7E003FFFFFFC0089
:1013C000000000FFFFFFF800FE7E003FFFFFFC0073
:1013D000000000FFFFFFF8007C3C007FFFFFFC00E7
:1013E000000000FFFFFFFC00383C007FFFFFFC0017
:1013F000000000FFFFFFFC00381C007FFFFFFE0025
:10140000000000FFFFFFFC00701C007FFFFFFE00DC
:10141000000000FFFFFFFC00701C007FFFFFFE00CC
:10142000000000FFFFFFFC00701C00FFFFFFFE003C
:10143000000000FFFFFFFE00700E00FFFFFFFE0038
:10144000000000FFFFFFFE00E00E00FFFFFFFE00B8
:10145000000000FFFFFFFE00E00E00FFFFFFFE00A8
:10146000000000FFFFFFFE00E00F00FFFFFFFE0097
:10147000000000FFFFFFFE01E00F007FFFFFFE0006
:10148000000000FFFFFFFC01E007007FFFFFFE0000
:10149000000000FFFFFFFC01C007807FFFFFFC0092
:1014A000000000FFFFFFFC03C007807FFFFFFC0080
:1014B000000000FFFFFFF803C003807FFFFFFE0076
:1014C000000000FFFFFFF8038003C03FFFFFFC00A8
:1014D0000000007FFFFFF8078001C03FFFFFFC0016
:1014E0000000007FFFFFF00F0000E01FFFFFFC0087
:1014F0000000007FFFFFF00F0000F01FFFFFF8006B
:101500000000003FFFFFE01E0000701FFFFFF8001B
:101510000000003FFFFFE01E0000380FFFFFF0005B
:101520000000003FFFFFE03C00003C07FFFFF00031
:101530000000001FFFFFC07C00001E07FFFFE0004F
:101540000000001FFFFF80F800000F03FFFFE00016
:101550000000000FFFFF81F800000F01FFFFC00037
:101560000000000FFFFF03F000000781FFFF800075
:1015700000000007FFFE07E0000007C0FFFF80003B
:101580000000001FFFFC0FC0000003A07FFFC00091
:101590000000001FFFFC1F80000000003FFFC00094
:1015A0000000001FFFF81E0000000001FFFFC00048
:1015B0000000000FFFFF0C0000000000FFFF000014
:1015C00000000007FFFE0000000000001FFC0000FC
:1015D00000000000FFF000000000000000E000003C
:1015E000000000000E0000000000000000000000ED
:1015F00000000000000000000000000000000000EB
:1016000000000000000000000000000000000000DA
:1016100000000000000000000000000000000000CA
:1016200000000000000000000000000000000000BA
:1016300000000000000000000000000000000000AA
:10164000000000000000000000000000000000009A
:10165000000000000000000000000000000000008A
:10166000000000000000000000000000000000007A
:10167000000000000000000000000000000000006A
:10168000000000000000000000000000000000005A
:10169000000000000000000000000000000000004A
:1016A000000000000000000000000000000000003A
:1016B000000000000000000000000000000000002A
:1016C000000000000000000000000000000000001A
:1016D000000000000000000000000000000000000A
:1016E00000000000000000000000000000000000FA
:1016F00000000000000000000000000000000000EA
:1017000000000000000000000000000000000000D9
:1017100000000000000000000000000000000000C9
:1017200000000000000000000000000000000000B9
:1017300000000000000000000000000000000000A9
:101740000000000000000000000000000000000099
:101750000000000000000000000000000000000089
:101760000000000000000000000000000000000079
:101770000000000000000000000000000000000069
:101780000000000000000000000000000000000059
:101790000000000000000000000000000000000049
:1017A00000000000000000000000460000000000F3
:1017B0000000000000000020000046400000000083
:1017C00000000000000000218000464000000000F2
:1017D00000000000000002218000464000000000E0
:1017E00000000000000003218000464000000000CF
:1017F000000000000000032100006640000000001F
:101800000000000000000122000062400000000013
:1018100000000000000001240000FA600000000C3D
:10182000000060000000016E00007DE00000007C10
:1018300000007C000000017C00003FF8000003F87D
:1018400000003F80000003F800000FF800003FE0B8
:1018500000000FF800000FE0000003FF8001FF8090
:10186000000003FF0003FF80000000FFFE3FFE00BA
:10187000000000FFF8FFFE000000003FFFFFF8003F
:101880000000003FFFFFF80000000007FFFFF0002E
:101890000000001FFFFFC000000000007FFFC0002D
:1018A00000000007FFFC00000000000003FE000035
:1018B00000000000FF8000000000000000000000A9
:1018C0000000000000000000000000000000000018
:1018D0000000000000000000000000000000000008
:1018E00000000000000000000000000000000000F8
:1018F00000000000000000000000000000000000E8
:1019000000000000000000000000000000000000D7
:1019100000000000000000000000000000000000C7
:1019200000000000000000000000000000000000B7
:1019300000000000000000000000000000000000A7
:101940000000000000000000000000000000000097
:101950000000000000000000000000000000000087
:101960000000000000000000000000000000000077
:101970000000000000000000000000000000000067
:101980000000000000000000000000000000000057
:101990000000000000000000000000000000000047
:1019A0000000000000000000000000000000000037
:1019B0000000000000000000000000000000000027
:1019C0000000000000000000000000000000000017
:1019D0000000000000000000000000000000000007
:1019E00000000000000000000000000000000000F7
:1019F00000000000000000000000000000000000E7
:101A000000000000000000000000000000000000D6
:101A100000000000000000000000000000000000C6
:101A200000000000000000000000000000000000B6
:101A300000000000000000000000000000000000A6
:101A4000000000000000000000000000080002018B
:101A50000000030407000000000000000000000078
:101A60000000000000000000000000000000000076
:101A70000000000000000000000000000000000066
:101A80000000000000000000000000000000000056
:101A90000000000000000000000000000000000046
:101AA0000000000000000000000000000000000036
:101AB0000000000000000000000000000000000026
:101AC0000000000000000000000000000000000016
:101AD0000000000000000000000000000000000006
:101AE00000000000000000000000000000000000F6
:101AF00000000000000000000000000000000000E6
:101B000000000000000000000000000000000000D5
:101B100000000000000000000000000000000000C5
:101B200000000000000000000000000000000000B5
:101B300000000000000000000000000000000000A5
:101B40000000000000000000000000000001800014
:101B50000000000000000000000000030000C000C2
:101B600003FE000000000000FF80000300023000C0
:101B70007FFFC00000000007FFFC000200060E0708
:101B8000FFFFF0000000001FFFFFC007100787FFE6
:101B9000FFFFF8000000003FFFFFF80C2001C0FF2E
:101BA000FE3FFE00000000FFF8FFFE186000FFFF90
:101BB0008001FF80000003FF0003FFF860003FE0AA
:101BC00000003FE000000FF800000FE0C0003F0001
:101BD000000003F800003F80000001FF8000780053
:101BE0000000007C00007C000000003E0000E000DF
:101BF0000000000C000060000000000E000000006B
:101C000000000000000000000000000000000000D4
:101C100000000000000000000000000000000000C4
:101C200000000000000000000000000000000000B4
:101C300000000000000000000000000000000000A4
:101EC0001F80000000000000000000000000000073
:101ED0007FFF800000000000000000000000000301
:101EE000FFFFE00000000000000000000000000F05
:101EF000FFFFFC0000000000000000000000003FA9
:101F0000FFFFFF800000000000000000000000FF55
:101F1000FFFFFFE00000000000000000000001FFE4
:101F2000FFFFFFF00000000000000000000007FFBE
:101F3000FFFFC7F8000000000000000000000FE7EE
:101F4000FFFFE07C000000000000000000003F8771
:101F5000FFFFE00E000000000000000000607E0FA8
:101F6000FFFFE003000000000000000000F8F80F91
:101F7000FFFFF0000000000000000000009FF00FD5
:101F8000FFFFF000000000000000000000C7E01F9D
:101F9000FFFFF000000000000000000000FFC01F75
:101FA000FFFFF8000000000000000000007F803FFD
:101FB000FFFFF8000000000000000000007F003F6D
:101FC000FFFFF8000000000000000000007F003F5D
:101FD000FFFFFC000000000000000000007E007F0A
:101FE000FFFFFC000000000000000000003C007F3C
:101FF000FFFFFC000000000000000000003C007F2C
:10200000FFFFFC000000000000000000001C007F3B
:10201000FFFFFE000000000000000000001C007F29
:10202000FFFFFE000000000000000000001C00FF99
:10203000FFFFFE000000000000000000001E00FF87
:10204000FFFFFE000000000000000000000E00FF87
:10205000FFFFFE000000000000000000000E00FF77
:10206000FFFFFE000000000000000000000F00FF66
:10207000FFFFFE000000000000000000000F00FF56
:10208000FFFFFE000000000000000000000F007FC6
:10209000FFFFFE0000000000000000000007807F3E
:1020A000FFFFFE0000000000000000000007807F2E
:1020B000FFFFFC0000000000000000000007807F20
:1020C000FFFFFC0000000000000000000003C07FD4
:1020D000FFFFFE0000000000000000000003C07FC2
:1020E000FFFFFC0000000000000000000001E03FD6
:1020F000FFFFFC0000000000000000000000E03FC7
:10210000FFFFFC0000000000000000000000F01FC6
:10211000FFFFF80000000000000000000000781F32
:10212000FFFFF800000060000000000E0000380F04
:10213000FFFFF00000007C000000003C00003C07B6
:10214000FFFFF00000003F80000001F800001E07C4
:10215000FFFFE00000000FF800000FE000000F0399
:10216000FFFFE000000003FF0003FF8000000F837B
:10217000FFFFC000000000FFF8FFFE000000078125
:10218000FFFF80000000003FFFFFF800000007C0D5
:10219000FFFF80000000001FFFFFC000000003A041
:1021A0007FFFC00000000007FFFC000000000001EE
:1021B0003FFFC00000000000FF80000000000001A1
:1021C000FFFFC00000000000000000000000000051
:1021D000FFFF000000000000000000000000000001
:1021E0001FFC0000000000000000000000000000D4
:1021F00000E00000000000000000000000000000FF
:1022000000000000000000000000000000000000CE
:1022100000000000000000000000000000000000BE
:1022200000000000000000000000000000000000AE
:10223000000000000000000000000000000000009E
:102560000000000000000000000000000000E0008B
:102570000000000C000060000000000E0000780069
:102580000000007C00007C000000003C00003F00D8
:10259000000003F800003F80000001F800000FE099
:1025A00000003FE000000FF800000FE0000003FF14
:1025B0008001FF80000003FF0003FF80000000FF98
:1025C000FE3FFE00000000FFF8FFFE000000003F9D
:1025D000FFFFF8000000003FFFFFF80000000007C9
:1025E000FFFFF0000000001FFFFFC0000000000020
:1025F0007FFFC00000000007FFFC0000000000009B
:1026000003FE000000000000FF800000000000004A
:1026100000000000000000000000000000000000BA
:1026200000000000000000000000000000000000AA
:10263000000000000000000000000000000000009A
:10264000000000000000000000000000000000008A
:102850000000000000000000000000000004000074
:10286000000000000000000000000008000440001C
:1028700000000000000000000000000C00444000C8
:1028800000000000000000000000000D8044600017
:102890000000000000000000000000090866600061
:1028A0000000000000000000000000190C23A00040
:1028B0000000000000000000000000330C1EF000CB
:1028C00000000000000000000000002E1003B00017
:1028D00000000000000000000000003BE003F000EA
:1028E00000000000000000000000001F8001FC004C
:1028F00000000000000000000000007F0000FF005A
:102900000000000200008000000001FF0000FFE066
:102910000000001E0000F00000000FFE000073F831
:10292000000000FE0000FE0000003F9E0000387F17
:10293000F0000FFC00007FE0001FFC3C00003C0F9B
:10294000FFFFFFE000000FFFFFFFE07C00001E071D
:10295000FFFFFE00000000FFFFFF80F800000F07F0
:10296000FFFFF8000000007FFFFF81F800000F0765
:10297000FFFFF8000000007FFFFF83F000000787E3
:10298000FFFFF8000000007FFFFF07E0000007E7FF
:10299000FFFFF0000000003FFFFF0FC0000003E753
:1029A000FFFFE0000000001FFFFF1F80000001EF9D
:1029B000FFFFC0000000001FFFFF1E0000000033EB
:1029C000FFFFC0000000000FFFFF1C0000000039E7
:1029D000FFFF000000000007FFFE30000000000EB7
:1029E000FFFF000000000000FFFFE0000000000704
:1029F000FFFE000000000000FFFF8000000000015B
:102A0000FFF80000000000001FFF000000000000B1
:102A10007FE00000000000000FF800000000000050
:102A200000000000000000000000000000000000A6
:102A30000000000000000000000000000000000096
:102A40000000000000000000000000000000000086
:102A50000000000000000000000000000000000076
:102A60000000000000000000000000000000000066
:102A70000000000000000000000000000000000056
:102A80000000000000000000000000000000000046
:102A90000000000000000000000000000000000036
:102AA0000000000000000000000000000000000026
:102AB0000000000000000000000000000000000016
:102AC0000000000000000000000000000000000006
:102AD00000000000000000000000000000000000F6
:102AE00000000000000000000000000000000000E6
:102AF00000000000000000000000000000000000D6
:102B000000000000000000000000000000000000C5
:102B100000000000000000000000000000000000B5
:102B200000000000000000000000000000000000A5
:102B30000000000000000000000000000000000095
:102B40000000000000000000000000000000000085
:102B50000000000000000000000000000000000075
:102B60000000000000000000000000000000000065
:102B70000000000000000000000000000000000055
:102B80000000000000000000000000000040001FE6
:102B9000FFC000000000000000000000106003FF04
:102BA000FFFC000000000000FFFF000030300FFFBE
:102BB000FFFFE0000000003FFFFFF80034987FFFB8
:102BC000FFFFFE00000001FFFFFFFFF066C7FC3FB4
:102BD000FFFFFF80000007FFFFFFFFFFC667C03F4A
:102BE000FFFFFFC000001FFFFFFFFFFFFC3F007F54
:102BF000FFFFFFF000003FFFFFFFFC03F81C007F1A
:102C0000FFFFFFF800007CFFFFFFFC00781C007F47
:102C1000FFFFFFFC000070FFFFFFFC00701C007F47
:102C2000FFFFFE18000040FFFFFFFC00701C007F4C
:102C3000FFFFFE00000000FFFFFFFC00701C007F94
:102C4000FFFFFE00000000FFFFFFFC00700E00FF12
:102C5000FFFFFE00000000FFFFFFFC00E00E00FF92
:102C6000FFFFFE00000000FFFFFFFE00E00E00FF80
:102C7000FFFFFE00000000FFFFFFFE00E00F00FF6F
:102C8000FFFFFE00000000FFFFFFFC01E00F007FE0
:102C9000FFFFFE00000000FFFFFFFC01E007007FD8
:102CA000FFFFFE00000000FFFFFFFC01C007807F68
:102CB000FFFFFC00000000FFFFFFFC03C007807F58
:102CC000FFFFFC00000000FFFFFFFC03C003807F4C
:102CD000FFFFFE00000000FFFFFFF8038003C03F7E
:102CE000FFFFFC000000007FFFFFF8078001C03FEE
:102CF000FFFFFC000000007FFFFFF80F0000E01F57
:102D0000FFFFFC000000007FFFFFF00F0000F01F3E
:102D1000FFFFF8000000003FFFFFF01E0000701FE3
:102D2000FFFFF8000000003FFFFFF01E0000380F1B
:102D3000FFFFF0000000003FFFFFE03C00003C0709
:102D4000FFFFF0000000001FFFFFC07C00001E0717
:102D5000FFFFE0000000001FFFFFC0F800000F03AE
:102D6000FFFFC0000000000FFFFF81F800000F010F
:102D7000FFFFC00000000007FFFF03F00000078115
:102D8000FFFF800000000007FFFE07E0000007C013
:102D9000FFFF80000000001FFFFE0FC0000003A027
:102DA0007FFFC0000000001FFFFC1F80000000002C
:102DB0003FFFC0000000001FFFF81E0000000001E0
:102DC000FFFFC0000000000FFFFF0C00000000002C
:102DD000FFFF000000000007FFFE000000000000F1
:102DE0001FFC000000000000FFF0000000000000D9
:102DF00000E00000000000000E00000000000000E5
:102E000000000000000000000000000000000000C2
:102E100000000000000000000000000000000000B2
:102E200000000000000000000000000000000000A2
:102E30000000000000000000000000000000000092
:102E40000000000000000000000000000000000082
:102E50000000000000000000000000000000000072
:102E60000000000000000000000000000000000062
:102E70000000000000000000000000000000000052
:102E80000000000000000000000000000000000042
:102E90000000000000000000000000000000000032
:102EA0000000000000000000000000000000000022
:102EB0000000000000000000000000000000000012
:102EC0001F8000000000000003F000000000000070
:102ED0007FFF800000000003FFFF000000000003F0
:102EE000FFFFE0000000000FFFFF80000000000F68
:102EF000FFFFFC000000007FFFFFE0000000003F3C
:102F0000FFFFFF80000003FFFFFFF800000000FF4D
:102F1000FFFFFFE000000FFFFFFFFE00000001FFCA
:102F2000FFFFFFF000001FFFFFFFFF00000007F39F
:102F3000FFFFC7F800003FCFFFFF9FC000000FC793
:102F4000FFFFE07C00007C0FFFFF8FE000003F07E9
:102F5000FFFFE00E0000E01FFFFFC1F804607C07E8
:102F6000FFFFE0030001801FFFFFC07C0CF8F80F9B
:102F7000FFFFF0000000003FFFFFE03E0C9FF00F5E
:102F8000FFFFF0000000003FFFFFE01F9DC7E01FB4
:102F9000FFFFF0000000007FFFFFF00FFDFFC01FEC
:102FA000FFFFF8000000007FFFFFF007F37F801FA6
:102FB000FFFFF8000000007FFFFFF003FF7F003FEE
:102FC000FFFFF800000000FFFFFFF001FF7E003F61
:102FD000FFFFFC00000000FFFFFFF800FE7E003F47
:102FE000FFFFFC00000000FFFFFFF8007C3C007FBB
:102FF000FFFFFC00000000FFFFFFFC00383C007FEB
:10300000FFFFFC00000000FFFFFFFC00381C007FFA
:10301000FFFFFE00000000FFFFFFFC00701C007FB0
:10302000FFFFFE00000000FFFFFFFC00701C007FA0
:10303000FFFFFE00000000FFFFFFFC00701C00FF10
:10304000FFFFFE00000000FFFFFFFE00700E00FF0C
:10305000FFFFFE00000000FFFFFFFE00E00E00FF8C
:10306000FFFFFE00000000FFFFFFFE00E00E00FF7C
:10307000FFFFFE00000000FFFFFFFE00E00F00FF6B
:10308000FFFFFE00000000FFFFFFFE01E00F007FDA
:10309000FFFFFE00000000FFFFFFFC01E007007FD4
:1030A000FFFFFE00000000FFFFFFFC01C007807F64
:1030B000FFFFFC00000000FFFFFFFC03C007807F54
:1030C000FFFFFC00000000FFFFFFF803C003807F4C
:1030D000FFFFFE00000000FFFFFFF8038003C03F7A
:1030E000FFFFFC000000007FFFFFF8078001C03FEA
:1030F000FFFFFC000000007FFFFFF00F0000E01F5B
:10310000FFFFFC000000007FFFFFF00F0000F01F3A
:10311000FFFFF8000000003FFFFFE01E0000701FEF
:10312000FFFFF8000000003FFFFFE01E0000380F27
:10313000FFFFF0000000003FFFFFE03C00003C0705
:10314000FFFFF0000000001FFFFFC07C00001E0713
:10315000FFFFE0000000001FFFFF80F800000F03EA
:10316000FFFFE0000000000FFFFF81F800000F01EB
:10317000FFFFC0000000000FFFFF03F00000078109
:10318000FFFF800000000007FFFE07E0000007C00F
:10319000FFFF80000000001FFFFC0FC0000003A025
:1031A0007FFFC0000000001FFFFC1F800000000028
:1031B0003FFFC0000000001FFFF81E0000000001DC
:1031C000FFFFC0000000000FFFFF0C000000000028
:1031D000FFFF000000000007FFFE000000000000ED
:1031E0001FFC000000000000FFF0000000000000D5
:1031F00000E00000000000000E00000000000000E1
:1032000000000000000000000000000000000000BE
:1032100000000000000000000000000000000000AE
:10322000000000000000000000000000000000009E
:10323000000000000000000000000000000000008E
:10324000000000000000000000000000000000007E
:10325000000000000000000000000000000000006E
:1032600000250028002B0000000000240027002A71
:10327000000404040404040404020202020202031F
:103280000303030303010204081020408001020429
:10329000081020010204081020002C2F973511245B
:1032A0001FBECFEFD8E0DEBFCDBF12E0A0E0B1E09F
:1032B000E2E8F4E702C005900D92A834B107D9F70F
:1032C00024E0A8E4B2E001C01D92AF30B207E1F7FC
:1032D00019E1CEE4D9E104C02197FE010E94C13674
:1032E000CD34D107C9F70E94BE2F0C94343A0C9408
:1032F000000090E0FC01EB57FD4C24918F589D4C51
:10330000FC018491882399F090E0880F991FFC01BB
:10331000E959FD4CA591B491FC01E35AFD4C85910E
:1033200094918FB7F894EC91E22BEC938FBF0895B2
:103330003F924F925F926F927F928F929F92AF9245
:10334000BF92CF92DF92EF92FF920F931F93CF9392
:10335000DF9300D000D0CDB7DEB79C838B833B01D9
:103360006A015901DC01ED91FC910284F385E02DA5
:1033700009952801B7E04B0E511C93E055944794F2
:103380009A95E1F7C6018E0D9F1D9A838983912C32
:10339000812C312CF12CE12CC70187709927330C3B
:1033A000892B59F4F70183E0F595E7958A95E1F7C4
:1033B000E80DF91DEA0DFB1D349037FE10C0AB81FE
:1033C000BC81ED91FC9111970484F585E02D21E0FD
:1033D00030E0A601B701660D771DCD010995BFEF5D
:1033E000EB1AFB0A0E151F05B9F68FEFC81AD80A9B
:1033F000840C951CA981BA81CA16DB0659F6AB81EB
:10340000BC81ED91FC9111970688F789E02DCD01E3
:103410000F900F900F900F90DF91CF911F910F9110
:10342000FF90EF90DF90CF90BF90AF909F908F90E4
:103430007F906F905F904F903F90099490E0FC01D7
:10344000E75BF54E2491FC01EB57FD4C3491FC01F8
:10345000EF58FD4CE491EE23C9F0222339F02330DC
:1034600001F1A8F4213019F1223029F1F0E0EE0F3A
:10347000FF1FE35AFD4CA591B4918FB7F894EC91DE
:10348000611126C030953E233C938FBF08952730AD
:10349000A9F02830C9F0243049F7809180008F7D51
:1034A00003C0809180008F7780938000DFCF84B548
:1034B0008F7784BDDBCF84B58F7DFBCF8091B0004B
:1034C0008F778093B000D2CF8091B0008F7DF9CFFD
:1034D0003E2BDACF2091080190E4299F900111241E
:1034E0008E50822B80937C0080917A008064809340
:1034F0007A0080917A0086FDFCCF809178009091CF
:10350000790008953FB7F8948091160390911703BE
:10351000A0911803B091190326B5A89B05C02F3FB1
:1035200019F00196A11DB11D3FBFBA2FA92F982FE9
:103530008827BC01CD01620F711D811D911D42E0E4
:10354000660F771F881F991F4A95D1F708958F92AC
:103550009F92AF92BF92CF92DF92EF92FF926B0158
:103560007C010E94821A4B015C01C114D104E10468
:10357000F104B9F00E94821A681979098A099B0935
:10358000683E73408105910580F321E0C21AD1089D
:10359000E108F10888EE880E83E0981EA11CB11C9A
:1035A000E4CFFF90EF90DF90CF90BF90AF909F90CF
:1035B0008F90089508950895AF92BF92CF92DF92B1
:1035C000EF92FF920F931F93CF93DF936C017B01D8
:1035D0008B01040F151FEB015E01AE18BF08C01769
:1035E000D10759F06991D601ED91FC910190F081DC
:1035F000E02DC6010995892B79F7C501DF91CF919F
:103600001F910F91FF90EF90DF90CF90BF90AF9000
:103610000895FC01538D448D252F30E0842F90E0D8
:10362000821B930B541710F0CF96089501970895BD
:10363000FC01918D828D981761F0A28DAE0FBF2F86
:10364000B11D5D968C91928D9F5F9F73928F90E0DC
:1036500008958FEF9FEF0895FC01918D828D98174B
:1036600031F0828DE80FF11D858D90E008958FEF88
:103670009FEF0895FC01918D228D892F90E0805C51
:103680009F4F821B91098F73992708958AE193E0D8
:103690000E943A1B21E0892B09F420E0822F089533
:1036A00080E090E0892B29F00E94461B81110C9448
:1036B00000000895FC01A48DA80FB92FB11DA35AD5
:1036C000BF4F2C91848D90E001968F739927848F42
:1036D000A689B7892C93A089B1898C918370806465
:1036E0008C93938D848D981306C00288F389E02D06
:1036F00080818F7D80830895EF92FF920F931F93B7
:10370000CF93DF93EC0181E0888F9B8D8C8D981394
:103710001AC0E889F989808185FF15C09FB7F894A0
:10372000EE89FF896083E889F989808183708064EC
:1037300080839FBF81E090E0DF91CF911F910F9137
:10374000FF90EF900895F62E0B8D10E00F5F1F4F46
:103750000F731127E02E8C8D8E110CC00FB607FC55
:10376000FACFE889F989808185FFF5CFCE010E94E3
:103770005A1BF1CFEB8DEC0FFD2FF11DE35AFF4FDC
:10378000F0829FB7F8940B8FEA89FB898081806271
:10379000CFCFCF93DF93EC01888D8823B9F0AA892E
:1037A000BB89E889F9898C9185FD03C0808186FDFC
:1037B0000DC00FB607FCF7CF8C9185FFF2CF80814B
:1037C00085FFEDCFCE010E945A1BE9CFDF91CF914B
:1037D0000895EF92FF920F931F93CF93DF93EC0125
:1037E000EC80FD806E157F050CF070C057FF04C0A3
:1037F000240F351F50E040E08E819F81FA01E20FD7
:10380000F31F8E179F071CF49C01241B350B121607
:1038100013060CF05BC0922F842F869586958695B3
:103820008E9DD0018F9DB00D11246A0F7B1FAF8D2F
:10383000B8A1A60FB71F477049F188E0841B482F35
:10384000682F70E0FB01EB58FA4FE491281708F05D
:1038500063C0621B71092FEF30E002C035952795D8
:103860006A95E2F7E2230130110539F0B0F1023038
:10387000110561F58C91E82702C08C91E82BEC933F
:10388000941720F12C813D81A20FB31FE92FE41B77
:10389000E83078F00230110521F58E2F9C9190953B
:1038A0009C932C813D81A20FB31F88508830B0F7C4
:1038B000E770EE2359F0F0E0E359FA4FE49101305C
:1038C0001105F9F010F10230110519F1DF91CF91D6
:1038D0001F910F91FF90EF900895E0958C91E82350
:1038E000CECF81E00115110509F480E081959E2F6E
:1038F0008C932C813D81A20FB31F98509830C0F754
:10390000D7CF8C91E82BEC93E1CFE0958C91E82315
:10391000FACF8C91E827F7CF0130110509F4ADCF2C
:10392000E0F20230110509F4A5CFAE0DBF1DAECFF8
:103930000F931F93CF93DF9377FF04C0260F371F9A
:1039400070E060E0DC011496CD91DC91FB01E20FA8
:10395000F31FCE17DF071CF49E01261B370B121630
:1039600013064CF5FA0157FD3796A3E0F595E79558
:10397000AA95E1F7EC9FD001ED9FB00DFC9FB00D33
:1039800011246A0F7B1FDC015F96ED91FC91E60F1D
:10399000F71F4770552781E090E001C0880F4A95D6
:1039A000EAF7482F0130110559F0A8F02E0F3F1FFC
:1039B00002301105E1F0DF91CF911F910F91089531
:1039C0002E0F3F1FE217F307B1F38191DF0111972B
:1039D000842B8C93F7CF80952E0F3F1FE217F307B0
:1039E00051F39191DF01119798239C93F7CFE21740
:1039F000F30709F38191DF01119784278C93F7CFA7
:103A00000F931F93FA01DC0156964C915697423062
:103A1000E9F04330A1F1413061F514964D915C918C
:103A2000DA01AE1BBF0BFD01E21BF30B77FD0BC0F0
:103A3000DC0116964D915C916417750724F4AB0177
:103A4000BF010E94981C1F910F91089514964D91EB
:103A50005C91DA01A61BB70BBD0161507109DC0155
:103A600016964D915C91DA01AE1BBF0BFD01E21B76
:103A7000F30B77FDE8CFAF010E94E91BE4CF169668
:103A80004D915C91DA01A61BB70BBD016150710924
:103A9000CDCF0F931F93FA01DC0156964C915697A8
:103AA0004230A9F0433091F1413019F514964D910F
:103AB0005C91DA01AE1BBF0BFD013197F7FD04C02D
:103AC000AB01BF010E94E91B1F910F91089514964D
:103AD0004D915C91DA01A61BB70BBD01DC01169676
:103AE0004D915C91DA01AE1BBF0BFD013197621B5A
:103AF000730BF7FDE9CFDC0116964D915C91E4174D
:103B0000F50714F7AF010E94981CDECF16964D9171
:103B10005C91DA01A61BB70BBD01621B730BCECF04
:103B2000FC0177FD64C080859185681779070CF0EA
:103B30005EC057FD5CC082859385481759070CF01D
:103B400056C086898230B1F0833029F1813041F44A
:103B500084819581841B950BAB01BC016150710977
:103B60002130310509F108F443C02230310509F450
:103B700063C0089584819581DC01A61BB70BBD014C
:103B80006150710986819781DC01A41BB50BAD01E1
:103B900041505109E5CF86819781861B970BBA0169
:103BA000AC0141505109DCCFCA0157FD0796A3E093
:103BB00095958795AA95E1F7A481B5818A9F900193
:103BC0008B9F300D9A9F300D1124620F731F078C4D
:103BD000F0A1E02DE60FF71F4770552721E030E0F8
:103BE00001C0220F4A95EAF78081822B80830895D5
:103BF000CA0157FD079633E0959587953A95E1F709
:103C0000A481B5818A9F90018B9F300D9A9F300DC2
:103C10001124620F731F078CF0A1E02DE60FF71F30
:103C20004770552781E090E001C0880F4A95EAF778
:103C3000809590818923DACFCA0157FD079623E04A
:103C4000959587952A95E1F7A481B5818A9F900182
:103C50008B9F300D9A9F300D1124620F731F078CBC
:103C6000F0A1E02DE60FF71F4770552721E030E067
:103C700001C0220F4A95EAF780818227B7CF0895C5
:103C80008EBD00000DB407FEFDCF8EB508958CBD2E
:103C90009DBD08950895FC016370668B84819581B4
:103CA00026813781613039F0633029F09187808730
:103CB00033872287089531872087938782870895E5
:103CC0002F923F924F925F926F927F928F929F922C
:103CD000AF92BF92CF92DF92EF92FF920F931F931A
:103CE000CF93DF93CDB7DEB76A970FB6F894DEBFF8
:103CF0000FBECDBF9A8F898F7A8369834A01D22EF6
:103D000018870F833701BC2CDC0159962D913C910B
:103D10005A972115310509F015C118968D919C917E
:103D20001997681779070CF0D7C11A968D919C9155
:103D3000481759070CF0D0C14C2C512CB6E0CB9E43
:103D4000600D711D11247C876B87161617060CF009
:103D5000C3C1EA2DF0E0FA87E98793E0EE0FFF1F79
:103D60009A95E1F7F88BEF87CF01840F951F18160E
:103D700019060CF0B1C1A98DBA8D58968C9181119C
:103D800004C0BFEABD1508F4D394A98DBA8DED9196
:103D9000FC9111970284F385E02DCD010995B5E0E2
:103DA000DB9EC0011124E981FA81FC83EB83312C75
:103DB000212C9C0128593F4F388F2F8B4A2D50E0E2
:103DC0005E8B4D8BEF89F88DE20DF31D44919E8241
:103DD0008D82D12CC12C69817A81620D731D7A8B01
:103DE000698B842F90E09C8B8B8BE98DFA8DA08161
:103DF000B18140FF82C0F1E0BF126FC0AF126DC051
:103E00001C96ED91FC912F813885A4014C0D5D1D10
:103E100069897A89898D9A8D0995EB89FC89F5954F
:103E2000E7954E2F5FEFC51AD50A6D817E818D898A
:103E30009E89680F791F7E836D8398E0C916D1042F
:103E400081F6AFEF2A1A3A0AEB81FC81E40DF51DE9
:103E5000FC83EB83F5E02F16310409F0B3CF2F81FB
:103E6000388526153705B9F0A98DBA8DED91FC91ED
:103E7000B1E0BB1257C0AB1255C069817A816B5F4C
:103E80007F4F0088F189E02D830128E030E0A40114
:103E9000898D9A8D0995A98DBA8DED91FC91119717
:103EA0000688F789E02DCD016A960FB6F894DEBF3B
:103EB0000FBECDBFDF91CF911F910F91FF90EF907B
:103EC000DF90CF90BF90AF909F908F907F906F903A
:103ED0005F904F903F902F9009941E96ED91FC912A
:103EE000EF80F88409851A8592014D815E816B818E
:103EF0007C81898D9A8D099590CF2F8138852615E3
:103F0000370509F48ACF31E0B31207C0A31205C008
:103F10001C96ED91FC91930178CF1E96ED91FC914A
:103F20007301E0CF6B857C85641975090684F7857C
:103F3000E02D73010F8518899201A401898D9A8D56
:103F40000995A9CFF90134969491329745915491EE
:103F5000D91AB7E0DB9E400D511D1124F9012591BE
:103F600034913C8B2B8BFA0125903490FA013296D8
:103F7000749031963491398B329664903196449096
:103F800041E04C1518F04A1508F07FC0662D062C4C
:103F9000000C770B7C836B83842D042C000C990B15
:103FA0009E838D83A98DBA8DED91FC91119702842A
:103FB000F385E02DCD010995512CD12CC12CEA2D92
:103FC000F0E0FA87E9872B2D30E03C872B87A401AE
:103FD000440D511D47FC5A95588F4F8B69817A814A
:103FE000660D711D67FC7A957E876D877989C71686
:103FF00008F051CF2C2D30E04D815E81420F531FD0
:10400000A985BA854A9FC0014B9F900D5A9F900D7C
:104010001124FC01E80DF91DF88BEF87852D612C2B
:104020004F89588D420F531F5E8B4D8B671408F0DC
:1040300050C044244394480E877041F4C101019656
:10404000EB89FC89E20DF31DD4901C01D7FE19C049
:10405000A98DBA8DED91FC91662D70E0B1E0BB1297
:1040600019C0AB1217C02D853E85620F731F0484E3
:10407000F585E02D2F8138854D895E89898D9A8D52
:104080000995DD0C6394842DD1CF1E821D821C8284
:104090001B8288CF4B815C81640F751FAB85BC850B
:1040A0006A9FC0016B9F900D7A9F900D11246981CA
:1040B0007A81680F791F0684F785E02DEF80F884F8
:1040C00009851A859D014F855889898D9A8D099595
:1040D000D8CF570CC3948ACF6A960FB6F894DEBF38
:1040E0000FBECDBFDF91CF911F910F91FF90EF9049
:1040F000DF90CF90BF90AF909F908F907F906F9008
:104100005F904F903F902F9008958F929F92AF9223
:10411000CF92EF92FF920F931F93CF93DF93EC0117
:10412000262F898D9A8D009709F051C06A30D1F4FD
:104130001D861C868D8948E0849F900111248E8500
:104140009F85820F931F9F878E8781E090E0DF918C
:10415000CF911F910F91FF90EF90CF90AF909F90D4
:104160008F9008956D3089F3CC88AD888F8988232E
:10417000C1F08C859D8536E0C39E800D911D112474
:10418000488559854817590764F44E855F851D8613
:104190001C8638E0A39EC0011124840F951F9F87C1
:1041A0008E87EA88FB88088919894E855F856C852A
:1041B0007D85CE010E94601E2C898C859D8546E000
:1041C000249F800D911D11249D878C87BECF6A305E
:1041D00069F41D861C86FC013896E4912D898E8534
:1041E0009F85E29F800D911D1124ADCF6D3009F4A4
:1041F000ACCFFC0134963491631708F4A6CF329605
:10420000E491E61708F4A1CFFC01329685909490D2
:10421000462F431B342F47E0349F800C911C112400
:10422000F401329634913196E4913323A9F1EE23CF
:1042300099F1CC88F4013596E491AD884F894423F7
:1042400001F10E2E000CFF0BE30FF11DCE9EA0011D
:10425000CF9E500D11246C857D85460F571F6885B4
:104260007985641775076CF44E855F851D861C86FD
:10427000FC013896E491AE9E400D511D11245F87DC
:104280004E87EA88FB88088919894E855F856C8589
:104290007D85CE010E94601EF4013496E4912C8944
:1042A0008C859D85E29F800D911D11248DCF6F928D
:1042B0007F928F929F92AF92BF92CF92DF92EF92B6
:1042C000FF920F931F93CF93DF93EC016B015A0181
:1042D00039014801E881F9810284F385E02D0995CF
:1042E000E881F9810288F389E02D87019301A50116
:1042F000B601CE010995A501480D591D415051093E
:10430000E881F9810288F389E02D9301B601CE019D
:104310000995E881F9810088F189E02D9401A501D2
:10432000B601CE010995C60CD71CB60161507109C2
:10433000E881F9810088F189E02D9401A501CE0181
:104340000995E881F9810688F789E02DCE01DF9192
:10435000CF911F910F91FF90EF90DF90CF90BF9082
:10436000AF909F908F907F906F9009946F927F9203
:104370008F929F92AF92BF92CF92DF92EF92FF9275
:104380000F931F93CF93DF935C01EB016A01490107
:1043900038018701DC01ED91FC916217730719F573
:1043A000641675062CF0962D872D3A01C92ED82E4D
:1043B0009601261937092F5F3F4F048CF58DE02DAC
:1043C000A301BE01C5010995DF91CF911F910F9106
:1043D000FF90EF90DF90CF90BF90AF909F908F9025
:1043E0007F906F9008954615570591F4261737076B
:1043F00024F0892D4B01C22FD82F9E01281939098D
:104400002F5F3F4F068CF78DE02DA601B401DACF68
:104410000284F385E02D0995D501ED91FC91048886
:10442000F589E02D83019401A601BE01C50109951E
:10443000D501ED91FC910688F789E02DC501DF914A
:10444000CF911F910F91FF90EF90DF90CF90BF9091
:10445000AF909F908F907F906F900994EF92FF9212
:104460000F931F93DC011A960D911C911B971896C0
:104470002D913C911997ED91FC9100A0F1A1E02DB7
:104480007B0150E040E070E060E009951F910F91E2
:10449000FF90EF9008954F925F926F927F928F926C
:1044A0009F92AF92BF92CF92DF92EF92FF920F93C3
:1044B0001F93CF93DF936C012B015A0139014801FF
:1044C000DC01ED91FC910284F385E02D0995E20178
:1044D000640C751CD601ED91FC91C615D7055CF4F2
:1044E0000088F189E02D87019401A501BE01C60174
:1044F00009952196EFCF0688F789E02DC601DF9157
:10450000CF911F910F91FF90EF90DF90CF90BF90D0
:10451000AF909F908F907F906F905F904F90099495
:104520008F929F92AF92BF92CF92DF92EF92FF92C3
:104530000F931F93CF93DF93EC015B014A01690155
:10454000E881F9810284F385E02D099595012C0D10
:104550003D1D21503109E881F9810488F589E02D5C
:1045600078018401A401B501CE010995E881F981A2
:104570000688F789E02DCE01DF91CF911F910F9131
:10458000FF90EF90DF90CF90BF90AF909F908F9073
:1045900009948F929F92AF92BF92CF92DF92EF9247
:1045A000FF920F931F93CF93DF93EC015B014A01BE
:1045B00069017801E881F9810284F385E02D09958C
:1045C000C80CD91C860101501109E881F9810488C1
:1045D000F589E02D9501A401B501CE010995E88189
:1045E000F9810688F789E02DCE01DF91CF911F91E7
:1045F0000F91FF90EF90DF90CF90BF90AF909F9082
:104600008F9009940895EF92FF920F931F93DC010E
:10461000ED91FC9100A0F1A1E02D09951F910F9162
:10462000FF90EF9008950F931F93DC01ED91FC91A3
:10463000068CF78DE02D09951F910F9108950F932A
:104640001F93DC01ED91FC91048CF58DE02D099513
:104650001F910F910895DC01ED91FC910084F1858B
:10466000E02D09942F923F924F925F926F927F922A
:104670008F929F92AF92BF92CF92DF92EF92FF9272
:104680000F931F93CF93DF9300D000D000D0CDB70E
:10469000DEB73C016A013E832D83FC82EB82580128
:1046A000A41AB50AB7FE03C0B194A194B1088D80D5
:1046B0009E80861A970A97FE03C091948194910870
:1046C0008A149B045CF0902F812F0D811E819D83A5
:1046D0008E839C2D8D2D6B01692F782F0C151D0558
:1046E0005CF09D818E817E836D83692F782F902F62
:1046F000812F8601C92ED82E1601201A310A2B01CE
:104700002D813E81421A530A57FE03C051944194B1
:104710005108710137FE03C03FEFE31AF30AF59425
:10472000E7948D819E81861797075CF5A1E0B0E044
:10473000BA83A983C016D1064CF1D301ED91FC9147
:104740000484F585E02D2B813C81A8016D817E815B
:104750008A149B041CF04D815E81B801C301099548
:10476000E418F508F7FE0AC02D813E8189819A81FF
:10477000280F391F3E832D83E20CF31C0F5F1F4F60
:10478000D9CF2FEF3FEF3A832983D4CF26960FB6A8
:10479000F894DEBF0FBECDBFDF91CF911F910F9177
:1047A000FF90EF90DF90CF90BF90AF909F908F9051
:1047B0007F906F905F904F903F902F900895089555
:1047C0002091B902260F3327331F21323105ECF433
:1047D0002091DD02FC0190E080E0243069F082E06D
:1047E0000895A091B9022191AC0147565D4FA40FE5
:1047F000B52FB11D2C930196861798F38091B902BD
:10480000680F6093B90280E0089581E008959B01EC
:10481000AC0160E074E284EF90E00E947C362051AD
:1048200031094109510956954795379527952093A8
:10483000B80008951092DD0281E08093DF021092AB
:10484000DE0261E082E10E941E1A61E083E10E94C3
:104850001E1AE9EBF0E080818E7F808380818D7F5E
:10486000808388E48093B80085E48093BC00089539
:10487000CF93DF9391E0909398028823B9F0C09191
:10488000B800D091BA008091BC008A7B8093BC00B4
:1048900060E082E10E941E1A60E083E10E941E1A1D
:1048A0000E941A24D093BA00C093B800DF91CF9130
:1048B0000895E0910D0380910C03E81730F4F0E0C7
:1048C000ED58FD4F808190E008958FEF9FEF0895A0
:1048D00090910D0380910C032FEF3FEF981748F450
:1048E000E92FF0E0ED58FD4F208130E09F5F90937D
:1048F0000D03C901089580910C0390910D03891B4C
:10490000990B0895CF92DF92EF92FF920F931F932E
:10491000CF93DF937C01CB018A01209104032223F2
:1049200089F0EB016B01C40ED51ECC15DD0569F0D5
:104930006991D701ED91FC910190F081E02DC701C3
:104940000995F3CF642F0E94E023C801DF91CF9136
:104950001F910F91FF90EF90DF90CF900895CF932C
:10496000DF931F92CDB7DEB7698320910403222322
:10497000F9F020910A03203258F021E030E0FC01E8
:104980003383228390E080E00F90DF91CF910895F0
:1049900080910B03E82FF0E0ED5AFD4F9981908351
:1049A0008F5F80930B0380930A0381E090E0ECCF4C
:1049B00061E0CE0101960E94E023F7CFCF92DF9213
:1049C000EF92FF920F931F93CF93DF93D0910A033F
:1049D00081E0D13208F09CC0C09103030E94821A8A
:1049E0006B017C018091DD0281116CC082E08093BB
:1049F000DD0281E08093DF028FEF8093DC02109272
:104A00000103D0930003A3E5B2E0E0EEF2E080E022
:104A1000D8138DC01092020380910203CC0FC82BD3
:104A2000C09302038091DE02813009F084C01092AD
:104A3000DE020E94821A6B017C0180910203809346
:104A4000BB008091940290919502A0919602B09142
:104A50009702892B8A2B8B2BA1F00E94821A00913E
:104A600094021091950220919602309197026C1950
:104A70007D098E099F09061717072807390708F4CB
:104A800042C08091BC0083FDD8CF85EC8093BC00F0
:104A90000E94821A6B017C018091DD02823009F450
:104AA0004CC08091DC028F3F09F469C08091DC0228
:104AB000803209F466C08091DC02803309F463C05F
:104AC00084E026C08091940290919502A091960274
:104AD000B0919702892B8A2B8B2B09F483CF0E94EC
:104AE000821A0091940210919502209196023091C1
:104AF00097026C197D098E099F0906171707280769
:104B0000390708F06FCF809193020E94382485E026
:104B100010920B0310920A0310920403DF91CF91BD
:104B20001F910F91FF90EF90DF90CF9008959D918E
:104B300091938F5F6DCF85EEA9CF80919402909174
:104B40009502A0919602B0919702892B8A2B8B2B0C
:104B500009F4A2CF0E94821A00919402109195024A
:104B600020919602309197026C197D098E099F0958
:104B7000061717072807390708F08ECFC4CF80E043
:104B8000C7CF82E0C5CF83E0C3CFCF92DF92EF9251
:104B9000FF920F931F93CF93DF93EC016B01142FC0
:104BA0008D8D9E8D009709F454C029A131E030937A
:104BB00004032093030310920B0310920A03DC01F9
:104BC000ED91FC910190F081E02D60E00995760176
:104BD000CC24C394D12C01E011508D8D9E8D1F3FAC
:104BE00071F1B0E2CB16D104C0F00E94DE248D8DAD
:104BF0009E8D29A1009304032093030310920B03BD
:104C000010920A03DC01ED91FC910190F081E02DFE
:104C100060E00995CC24C394D12C8D8D9E8DF70135
:104C20006491DC01ED91FC910190F081E02D0995FA
:104C3000BFEFCB1ADB0AEFEFEE1AFE0ACDCFDF9102
:104C4000CF911F910F91FF90EF90DF90CF900C9438
:104C5000DE24EDA5FEA590818BA980958923808314
:104C60007B01115070F1F70184912B8D3C8D232B2A
:104C700031F00E94401EFFEFEF1AFF0AF2CF28E04A
:104C800030E040E8E9A5FAA599A9582F5423A9F0E6
:104C90005081952B9083EBA5FCA590815AA9952B6B
:104CA0009083EBA5FCA550819AA9909595239083BC
:104CB00046952150310931F7DECF508190959523EB
:104CC000E9CFDF91CF911F910F91FF90EF90DF908F
:104CD000CF9008951F93CF93DF93EC018D8D9E8D20
:104CE000009721F1162F29A131E03093040320937E
:104CF000030310920B0310920A03DC01ED91FC9167
:104D00000190F081E02D60E009958D8D9E8DDC0194
:104D1000ED91FC910190F081E02D612F09958D8D31
:104D20009E8DDF91CF911F910C94DE24ADA5BEA581
:104D30009C918BA9809589238C938B8D9C8D892B3D
:104D400031F0862FDF91CF911F910C94401E28E007
:104D500030E080E8A9A5BAA599A9462F4823C1F05B
:104D60004C91942B9C93ABA5BCA59C914AA9942BE8
:104D70009C93ABA5BCA54C919AA9909594239C9328
:104D800086952150310931F7DF91CF911F91089518
:104D90004C9190959423E6CF1F93CF93DF93EC0132
:104DA000162F8D8D9E8D892BC9F06DA97EA98FA997
:104DB00098AD0E94072466EA111167EACE010E94AD
:104DC0006A268D8D9E8D892BC9F069AD7AAD8BAD2C
:104DD0009CADDF91CF911F910C9407248B8D9C8DFE
:104DE000892B21F08EAD9FAD0E94471EEFA5F8A93B
:104DF00090818CA9809589238083DDCFEFA5F8A9C8
:104E000080819CA9892B8083DF91CF911F91089588
:104E1000BF92CF92DF92EF92FF920F931F93CF93A7
:104E2000DF93EC018D8D9E8D892B09F476C06DA9E1
:104E30007EA98FA998AD0E94072445E068E675E039
:104E4000CE010E94C5256C816150CE010E946A2668
:104E50002E813F81C901079697FD079623E095951E
:104E600087952A95E1F72C813D81829F7001839F70
:104E7000F00C929FF00C11240F8D18A18D8D9E8D3A
:104E8000E00EF11E009709F46EC029A131E03093C5
:104E900004032093030310920B0310920A03DC0116
:104EA000ED91FC910190F081E02D60E40995CC2416
:104EB000C394D12CBB24B3948D8D9E8DE016F10646
:104EC000E1F1B0E2CB16D104C0F00E94DE248D8D5A
:104ED0009E8D29A1B09204032093030310920B032B
:104EE00010920A03DC01ED91FC910190F081E02D1C
:104EF00060E40995CC24C394D12C8D8D9E8DF8014E
:104F000061918F01DC01ED91FC910190F081E02D28
:104F10000995BFEFCB1ADB0ACFCF8B8D9C8D892BE8
:104F200021F08EAD9FAD0E94471EEFA5F8A990819C
:104F30008CA980958923808380CF0E94DE248D8D6B
:104F40009E8D892B09F444C069AD7AAD8BAD9CADC3
:104F5000DF91CF911F910F91FF90EF90DF90CF9055
:104F6000BF900C940724EDA5FEA580819BA9892BF9
:104F70008083E016F10619F3F80181918F012B8DE2
:104F80003C8D232B19F00E94401EF3CF28E030E027
:104F900040E8E9A5FAA599A9582F5423A9F0508112
:104FA000952B9083EBA5FCA590815AA9952B908316
:104FB000EBA5FCA550819AA99095952390834695E1
:104FC0002150310931F7D5CF508190959523E9CF04
:104FD000EFA5F8A980819CA9892B8083DF91CF91CF
:104FE0001F910F91FF90EF90DF90CF90BF900895A9
:104FF00090E080E00895FC0101900020E9F73197EE
:10500000AF01481B590BBC018AE193E00C94DC1AF8
:105010008F929F92AF92BF920F931F93CF93DF9384
:10502000CDB7DEB7A1970FB6F894DEBF0FBECDBFE8
:1050300019A2423008F44AE08E010F5D1F4F842E02
:10504000912CB12CA12CA50194010E947C36E62F55
:10505000B901CA01EA30F4F4E05DD801EE938D01A4
:10506000232B242B252B79F790E080E0109719F063
:10507000CD010E94FB27A1960FB6F894DEBF0FBEAC
:10508000CDBFDF91CF911F910F91BF90AF909F90B7
:105090008F900895E95CE1CFCF93DF930E94FB27C7
:1050A000EC0183E691E00E94FB278C0F9D1FDF91AE
:1050B000CF9108951F93CF93DF93182F8FE691E040
:1050C0000E94FB278AE691E0112311F086E691E029
:1050D0000E944C28C091B703D091B8038D8D9E8D4E
:1050E000892BF1F06DA97EA98FA998AD0E940724A4
:1050F00061E8CE010E946A2661E0111101C06DAD28
:10510000CE010E946A268D8D9E8D892BC9F069ADD6
:105110007AAD8BAD9CADDF91CF911F910C9407249C
:105120008B8D9C8D892B21F08EAD9FAD0E94471EEB
:10513000EFA5F8A990818CA9809589238083D8CF89
:10514000EFA5F8A980819CA9892B8083DF91CF915D
:105150001F9108954F925F926F927F928F929F92CC
:10516000AF92BF92CF92DF92EF92FF920F931F9375
:10517000CF936B017C01742EAC019B010E94FE3821
:10518000882399F080E891E0CF911F910F91FF90D3
:10519000EF90DF90CF90BF90AF909F908F907F90D7
:1051A0006F905F904F900C94FB2746015701E89455
:1051B000B7F82FEF3FEF4FE75FE7C501B4010E945B
:1051C000FE3881110DC02FEF3FEF4FE75FE7C501BC
:1051D000B4010E94343718161CF484E891E0D4CF4F
:1051E0002FEF3FEF4FE75FE4C701B6010E948C3815
:1051F00018161CF488E891E0C7CF2FEF3FEF4FE778
:105200005FECC701B6010E94343787FDF3CF20E081
:1052100030E0A901C701B6010E94343710E000E078
:1052200087FF0AC06DE28AE193E00E947C1B8C013B
:10523000F7FAF094F7F8F094C0E060E070E080E0F6
:105240009FE37C1641F020E030E040E251E40E9410
:105250003937CF5FF6CFA70196010E94C8362B01E0
:105260003C010E94AB374B015C014AE00E940828D8
:105270007C01E00EF11ECC23C1F1C501B4010E94F6
:10528000DA379B01AC01C301B2010E94C7364B0162
:105290005C016EE28AE193E00E947C1BE80EF91E3D
:1052A000C15018F120E030E040E251E4C501B40102
:1052B0000E9491382B013C010E94AB374B01B12C6D
:1052C000A12C4AE0C501B4010E940828E80EF91E8D
:1052D000C501B4010E94DA379B01AC01C301B201E0
:1052E0000E94C7364B015C01DBCFC701CF911F91F4
:1052F0000F91FF90EF90DF90CF90BF90AF909F9075
:105300008F907F906F905F904F9008950E94283A01
:10531000FC01868197819C01295F3F4F37FF02C0C6
:10532000295F3F4F83E0359527958A95E1F7848182
:105330009581289FA001299F500D389F500D112461
:1053400070E060E0878D90A10C942D3AEF92FF926F
:105350000F931F93CF93DF93C7EBD3E0888199819D
:105360000E94882980E4E82EF12C00E810E02DE569
:105370003EE250E040E070E060E0888199810E9468
:105380009819888199810E9408276CEF78E080E065
:1053900090E00E94A71A888199810E9488292DE5B2
:1053A0003AE250E040E070E060E0888199810E943C
:1053B0009819888199810E940827888199810E9483
:1053C00088292DE536E250E040E070E060E0888119
:1053D00099810E949819888199810E940827888163
:1053E00099810E9488292DE532E250E040E070E08A
:1053F00060E0888199810E949819888199810E9432
:105400000827888199810E9488292DE536E250E09D
:1054100040E070E060E0888199810E94981988815D
:1054200099810E940827888199810E9488292DE509
:105430003AE250E040E070E060E0888199810E94AB
:10544000981988819981DF91CF911F910F91FF90D9
:10545000EF900C940827EF92FF920F931F93CF9336
:10546000DF93C7EBD3E0888199810E94882980E48B
:10547000E82EF12C00E810E02DE53AE250E040E0A3
:1054800070E060E0888199810E94981988819981F3
:105490000E9408276CEF78E080E090E00E94A71A55
:1054A000888199810E9488292DE536E250E040E00C
:1054B00070E060E0888199810E94981988819981C3
:1054C0000E940827888199810E9488292DE532E26F
:1054D00050E040E070E060E0888199810E94981976
:1054E000888199810E940827888199810E94882952
:1054F0002DE536E250E040E070E060E0888199817F
:105500000E94981988819981DF91CF911F910F9105
:10551000FF90EF900C940827EF92FF920F931F9348
:10552000CF93C5E08091B7039091B8030E9488297A
:1055300080E4E82EF12C00E810E02DE53AE250E09E
:1055400040E070E060E08091B7039091B8030E9462
:1055500098198091B7039091B8030E94082768ECCE
:1055600070E080E090E00E94A71A8091B7039091CC
:10557000B8030E9488292DE532E250E040E070E057
:1055800060E08091B7039091B8030E9498198091D0
:10559000B7039091B8030E94082760E273E080E0AF
:1055A00090E00E94A71AC15009F0BCCFCF911F9183
:1055B0000F91FF90EF900895EF92FF920F931F933A
:1055C000CF93C2E08091B7039091B8030E948829DD
:1055D00080E4E82EF12C00E810E02DE53EE250E0FA
:1055E00040E070E060E08091B7039091B8030E94C2
:1055F00098198091B7039091B8030E94082768E03A
:1056000077E080E090E00E94A71A8091B703909124
:10561000B8030E9488292DE53EE150E040E070E0AB
:1056200060E08091B7039091B8030E94981980912F
:10563000B7039091B8030E94082768EC70E080E0FF
:1056400090E00E94A71AC13031F4CF911F910F91C1
:10565000FF90EF900895C1E0B5CFEF92FF920F93C6
:105660001F93CF93DF93C7EBD3E0888199810E948A
:10567000882980E4E82EF12C00E810E02DE53EE2D8
:1056800050E040E070E060E0888199810E949819C4
:10569000888199810E94082768EE73E080E090E09D
:1056A0000E94A71A888199810E9488292DE53AE1F4
:1056B00050E040E070E060E0888199810E94981994
:1056C000888199810E9408276CED75E080E090E068
:1056D000DF91CF911F910F91FF90EF900C94A71A3B
:1056E00085ED8093BC008091940290919502A091E9
:1056F0009602B09197020796A11DB11D23E0B695C1
:10570000A795979587952A95D1F72091BC0024FD00
:1057100003C01092DD0208954091940250919502C9
:105720006091960270919702452B462B472B69F3A7
:105730000097A105B10541F025E32A95F1F7000096
:105740000197A109B109E1CF809193020C9438240B
:105750001F920F920FB60F9211242F933F938F93A6
:105760009F93AF93BF938091120390911303A091E5
:105770001403B09115033091110323E0230F2D374B
:1057800058F50196A11DB11D2093110380931203BA
:1057900090931303A0931403B09315038091160301
:1057A00090911703A0911803B09119030196A11DC0
:1057B000B11D8093160390931703A0931803B09321
:1057C0001903BF91AF919F918F913F912F910F90AE
:1057D0000FBE0F901F90189526E8230F0296A11D6B
:1057E000B11DD2CF1F920F920FB60F9211242F939B
:1057F0003F934F935F936F937F938F939F93AF9359
:10580000BF93EF93FF938AE193E00E945A1BFF91AD
:10581000EF91BF91AF919F918F917F916F915F9128
:105820004F913F912F910F900FBE0F901F901895A1
:105830001F920F920FB60F9211242F938F939F9365
:10584000EF93FF93E0912A03F0912B038081E09185
:105850003003F091310382FD1BC0908180913303AE
:105860008F5F8F7320913403821741F0E0913303EF
:10587000F0E0E65EFC4F958F80933303FF91EF914C
:105880009F918F912F910F900FBE0F901F901895A1
:105890008081F4CF1F920F920FB60F9211242F9395
:1058A0003F934F935F936F937F938F939F93AF93A8
:1058B000BF93EF93FF938091B900887F803609F4FE
:1058C0004AC0F0F5883209F4A7C018F5803109F410
:1058D0009BC0B8F4882309F4F9C0883009F494C057
:1058E000FF91EF91BF91AF919F918F917F916F91B8
:1058F0005F914F913F912F910F900FBE0F901F908E
:105900001895883109F488C0803251F78093DC0201
:1059100014C0803409F49DC040F48033B9F3883357
:10592000F9F68093DC0285ECB0C0803509F485C0BF
:10593000883509F496C0883499F60E94702BD0CF30
:10594000883909F48CC038F5883729F050F4883646
:1059500011F0803729F683E08093DD021092DB029C
:1059600057C0883809F47BC0803919F0803809F0B5
:10597000B7CF8091DB02803208F071C0E091DB028A
:1059800081E08E0F8093DB028091BB00F0E0E55454
:10599000FD4F80833DC0803B39F0E0F4803A09F44C
:1059A00079C0883A09F09CCF84E08093DD021092A0
:1059B000BA021092B902E0910803F0910903099527
:1059C0008091B90281110FC081E08093B9021092D9
:1059D000990209C0803C09F4A6CF883C09F4A3CF02
:1059E000883B09F07DCFE091BA0281E08E0F809371
:1059F000BA02F0E0E756FD4F80818093BB009091A2
:105A0000BA028091B90229C0809102038093BB0041
:105A100085EC8093BC0064CF9091010380910003DA
:105A2000981758F5E091010381E08E0F80930103F0
:105A3000F0E0E052FD4F8081E9CFE091010381E089
:105A40008E0F809301038091BB00F0E0E052FD4F88
:105A5000808390910103809100039817C8F285E834
:105A6000D8CFE091010381E08E0F809301038091F4
:105A7000BB00F0E0E052FD4F80838091DF02811196
:105A80005CCF81E08093DE0284EA8093BC001092B8
:105A9000DD0226CF85EC8093BC001092DD02809160
:105AA000DB02803230F4E091DB02F0E0E554FD4FA0
:105AB00010826091DB0270E0E0910603F091070331
:105AC0008BEB92E009951092DB020ACF1092DC0278
:105AD00034CF1F920F920FB60F9211242F933F9342
:105AE0004F935F936F937F938F939F93AF93BF93E6
:105AF000EF93FF9384ED91E00E944C288091520235
:105B0000811118C0809106018823A1F081E0809363
:105B10001003FF91EF91BF91AF919F918F917F9172
:105B20006F915F914F913F912F910F900FBE0F900A
:105B30001F90189582E08093070110925202E9CFDE
:105B40001F920F920FB60F921124A8950F900FBEBF
:105B50000F901F9018951F920F920FB60F9211245D
:105B6000CF92DF92EF92FF920F931F932F933F9369
:105B70004F935F936F937F938F939F93AF93BF9355
:105B8000CF93DF93EF93FF9387EF92EC9093850091
:105B90008093840000915002109151020F5F1F4FBB
:105BA0001093510200935002C80167E070E00E9418
:105BB000AD36892B09F078C08EE00E946A1AEC019C
:105BC00090930501809304018FE00E946A1A9093DC
:105BD000030180930201C80FD91FD695C795D093B2
:105BE0000101C09300012B9708F01CC1109206011F
:105BF000CAE0C12CD12C760181E10E946A1ABC0155
:105C0000990F880B990B0E94DC379B01AC01C701EF
:105C1000B6010E94C8366B017C0165E070E080E04F
:105C200090E00E94A71AC15039F720E030E040E22E
:105C300051E4C701B6010E94393725E33EE542EC45
:105C400050E40E94913820E030E040E85AE30E949E
:105C500091386B017C01C0924C02D0924D02E092CF
:105C60004E02F0924F022091480230914902409139
:105C70004A0250914B020E948C38181644F4C0928C
:105C80004802D0924902E0924A02F0924B022AE97D
:105C900039E949E550E4C701B6010E948C3887FD17
:105CA000C5C082E080930701C80165E070E00E94F2
:105CB000AD36892B61F40E94F2352CE030E040E0F3
:105CC00050E00E944A3670930F0360930E03809158
:105CD000500290915102893E934020F0109251025F
:105CE00010925002809150029091510265E070E054
:105CF0000E94AD36892B09F07CC085EE91E00E94B0
:105D0000FB272FB7F89460911203709113038091D1
:105D10001403909115032FBF28EE33E040E050E0CC
:105D20000E947C36CA01B9014AE00E9408288DEE23
:105D300091E00E94FB2760914C0270914D0280918E
:105D40004E0290914F0242E00E94AA2881E092E028
:105D50000E94FB27609148027091490280914A029B
:105D600090914B0242E00E94AA2882E192E00E94B8
:105D7000FB2760910E0370910F0390E080E04AE0F2
:105D80000E94082880E292E00E94FB2760910601B1
:105D900070E090E080E04AE00E94082889E292E00A
:105DA0000E94FB27609104017091050190E080E062
:105DB0004AE00E94082882E392E00E94FB2760915B
:105DC00002017091030190E080E04AE00E940828FF
:105DD0008BE392E00E94FB2760910001709101012A
:105DE00090E080E04AE00E94082883E691E00E946B
:105DF000FB27FF91EF91DF91CF91BF91AF919F91E1
:105E00008F917F916F915F914F913F912F911F9152
:105E10000F91FF90EF90DF90CF900F900FBE0F90FB
:105E20001F90189581E080930601E2CE26E636E6C3
:105E300046E450E4C701B6010E94343787FF34CFEF
:105E400020E030E040E450E4C701B6010E948C3805
:105E500087FD2ACF81E026CFEAE1F3E013821282A8
:105E600048EE53E060E070E04483558366837783B7
:105E700087E191E09183808385EC90E0958784872A
:105E800084EC90E09787868780EC90E0918B808B04
:105E900081EC90E0938B828B82EC90E0958B848BED
:105EA00086EC90E0978B868B118E128E138E148E5B
:105EB000AFEBB3E013961C921E92129714964D937B
:105EC0005D936D937C93179789E291E011969C9373
:105ED0008E93EBECF3E01382128220E830E03583FE
:105EE000248380E490E0978386833187208793879B
:105EF0008287168A158614861786168681E0858B1A
:105F0000848B2FEF3FEF338B228B318B208B878B52
:105F1000108E128E118E8BE391E091838083148E0C
:105F2000138EB68FA58F10A2178E8FEF84A385A333
:105F300086A387A384E080A780E89AE1A6E0B0E08A
:105F400085AB96ABA7ABB0AF80EA96E8A1E0B0E036
:105F500081AF92AFA3AFB4AF80E586AF17AEE7EBEA
:105F6000F3E08AE491E09383828383E290E0958377
:105F700084838EE190E0978386830895789484B536
:105F8000826084BD84B5816084BD85B5826085BD35
:105F900085B5816085BD80916E00816080936E00C3
:105FA00010928100809181008260809381008091B5
:105FB0008100816080938100809180008160809366
:105FC00080008091B10084608093B1008091B00026
:105FD00081608093B00080917A00846080937A0021
:105FE00080917A00826080937A0080917A0081604B
:105FF00080937A0080917A00806880937A00109272
:10600000C100E0912A03F0912B0382E08083E091AC
:106010002603F09127031082E0912803F0912903D1
:106020008FEC808310923203E0912E03F0912F03C6
:1060300086E08083E0912C03F0912D0380818061C4
:106040008083E0912C03F0912D0380818860808310
:10605000E0912C03F0912D03808180688083E09192
:106060002C03F0912D0380818F7D8083F894109212
:106070008000109281008091810085608093810072
:1060800087EF92EC909385008093840078948091C0
:106090006F00816080936F00F89452985A9A8091B3
:1060A00069008260809369007894E89AF89414BE3D
:1060B0008091600088618093600081E68093600039
:1060C000789483E0809308018091EA039091EB0338
:1060D000892B49F18BEC93E00E9488298091D103B0
:1060E0009091D2036091CF037091D00381329105DA
:1060F0000CF04DC0AC014052510957FF02C04F5F38
:106100005F4F559547956357710977FF02C06F5FE1
:106110007F4F7595679500E2E02EF12C03E710E0C4
:106120002FE835E04CC02091D1033091D203C90152
:10613000079697FD079643E0959587954A95E1F771
:106140002091CF033091D003AC01429FC001439F07
:10615000900D529F900D11240E9403399093EB03F0
:106160008093EA03892B09F0B5CFCFE2DAE0FE0194
:106170006491662339F08AE193E00E947C1B2196AA
:10618000892BA9F783E691E00E94FB27FFCFAC01A2
:106190004054510957FF02C04F5F5F4F55954795D7
:1061A0006255710977FF02C06F5F7F4F75956795E4
:1061B00020E4E22EF12C02E510E02FE637E08BEC34
:1061C00093E00E94981982E08093ED038091E803A8
:1061D0009091E903892B09F472C18CE38093EC035D
:1061E00010920D0310920C0310920B0310920A03ED
:1061F0000E941A248AED9AE1909309038093080380
:106200008BED9AE190930703809306038091F3034B
:1062100087FD1DC00E94791961E08091F3030E94FF
:106220001E1A61E070E080E090E00E94A71A60E032
:106230008091F3030E941E1A6AE070E080E090E013
:106240000E94A71A61E08091F3030E941E1A8091B8
:10625000E8039091E903892B09F4E8C160910004F7
:106260007091010480910204909103040E9407241C
:1062700044E06BE875E08BEC93E00E94C5256091EB
:10628000D10361508BEC93E00E946A2644E067E8FA
:1062900075E08BEC93E00E94C5258091ED0360E1F1
:1062A000813009F064E18BEC93E00E946A2644E0BF
:1062B00063E875E08BEC93E00E94C5258FE880933E
:1062C00008048091CF039091D0038038910509F0A4
:1062D000C6C18091D1039091D2038034910509F019
:1062E000CEC18091ED03813009F0B7C18FE9809371
:1062F0000804C2E16AED8BEC93E00E946A266C2FE1
:106300008BEC93E00E946A2661E88BEC93E00E949C
:106310006A26609108048BEC93E00E946A2669ED7E
:106320008BEC93E00E946A268091ED0362E281305B
:1063300009F061EF8BEC93E00E946A2646E06DE77E
:1063400075E08BEC93E00E94C5258091E803909165
:10635000E903892B09F497C1609104047091050445
:1063600080910604909107040E9407248CE891E034
:106370000E944C288BEC93E09093B8038093B70372
:106380008AE491E09093BA038093B90383E290E0AA
:106390009093BC038093BB038EE190E09093BE0387
:1063A0008093BD038AEA91E00E944C28C091B70314
:1063B000D091B8038D8D9E8D892B09F46EC16DA986
:1063C0007EA98FA998AD0E9407246FEACE010E9492
:1063D0006A268D8D9E8D892B09F46FC169AD7AADCA
:1063E0008BAD9CAD0E94072480E00E945A2888EB68
:1063F00091E00E944C288091B7039091B8030E94CD
:10640000882987EC91E00E944C288091B7039091F5
:10641000B8030E94082752E0852E912CA12CB12CA4
:1064200060E0C62E60E0D62E80910701813009F031
:1064300054C28091B7039091B8030E94882940E428
:10644000E42EF12C00E810E029E43EE050E040E0CA
:1064500070E060E08091B7039091B8030E949819B2
:106460008091B7039091B8030E9408276091B90307
:106470007091BA0390E080E00E94A71A8091B70360
:106480009091B8030E94882929E43AE050E040E066
:1064900070E060E08091B7039091B8030E94981972
:1064A0008091B7039091B8030E9408276091B903C7
:1064B0007091BA0390E080E00E94A71AB5CF809156
