:100000000C944F0D0C94770D0C94770D0C94770D88
:100010000C94770D0C94770D0C94770D0C94770D50
:100020000C94770D0C94770D0C94770D0C94770D40
:100030000C94770D0C94361F0C94770D0C94770D5F
:100040000C94751D0C94770D0C94E51D0C94BF1D3C
:100050000C94770D0C94770D0C94770D0C94770D10
:100060000C94171E0C94770D00000000003E5B4FAF
:100070005B3E3E6B4F6B3E1C3E7C3E1C183C7E3C08
:10008000181C577D571C1C5E7F5E1C00183C180016
:10009000FFE7C3E7FF0018241800FFE7DBE7FF30A6
:1000A000483A060E2629792926407F050507407F14
:1000B00005253F5A3CE73C5A7F3E1C1C08081C1C87
:1000C0003E7F14227F22145F5F005F5F06097F017D
:1000D0007F006689956A606060606094A2FFA29468
:1000E00008047E040810207E201008082A1C080836
:1000F0001C2A08081E101010100C1E0C1E0C303884
:100100003E3830060E3E0E06000000000000005F84
:1001100000000007000700147F147F14242A7F2AA0
:100120001223130864623649562050000807030062
:10013000001C2241000041221C002A1C7F1C2A08AE
:10014000083E080800807030000808080808000011
:1001500060600020100804023E5149453E00427F85
:10016000400072494949462141494D331814127FD4
:100170001027454545393C4A494931412111090774
:100180003649494936464949291E000014000000F5
:1001900040340000000814224114141414140041C7
:1001A00022140802015909063E415D594E7C121184
:1001B000127C7F494949363E414141227F414141BC
:1001C0003E7F494949417F090909013E4141517337
:1001D0007F0808087F00417F41002040413F017FA8
:1001E000081422417F404040407F021C027F7F0470
:1001F00008107F3E4141413E7F090909063E4151B9
:10020000215E7F09192946264949493203017F01A8
:10021000033F4040403F1F2040201F3F4038403FA9
:10022000631408146303047804036159494D4300BF
:100230007F4141410204081020004141417F0402F6
:10024000010204404040404000030708002054548D
:1002500078407F284444383844444428384444286B
:100260007F385454541800087E090218A4A49C78BE
:100270007F0804047800447D40002040403D007F1A
:100280001028440000417F40007C047804787C08FA
:100290000404783844444438FC18242418182424CE
:1002A00018FC7C08040408485454542404043F44B3
:1002B000243C4040207C1C2040201C3C4030403CE2
:1002C00044281028444C9090907C4464544C440042
:1002D00008364100000077000000413608000201A6
:1002E0000204023C2623263C1EA1A161123A404092
:1002F000207A38545455592155557941225454780F
:1003000042215554784020545579400C1E527212A7
:100310003955555559395454545939555454580030
:1003200000457C410002457D420001457C407D1234
:1003300011127DF0282528F07C5455450020545496
:100340007C547C0A097F4932494949323A44444441
:100350003A324A4848303A4141217A3A424020787C
:10036000009DA0A07D3D4242423D3D4040403D3C7D
:1003700024FF2424487E4943662B2FFC2F2BFF09A2
:1003800029F620C0887E0903205454794100004496
:100390007D413048484A32384040227A007A0A0A81
:1003A000727D0D19317D2629292F282629292926F4
:1003B00030484D4020380808080808080808382F39
:1003C00010C8ACBA2F102834FA00007B00000814C3
:1003D0002A142222142A14085500550055AA55AA99
:1003E00055AAFF55FF55FF000000FF00101010FF39
:1003F00000141414FF001010FF00FF1010F010F094
:10040000141414FC001414F700FF0000FF00FF1484
:1004100014F404FC141417101F10101F101F1414D0
:10042000141F00101010F0000000001F101010101A
:100430001F10101010F010000000FF10101010100E
:1004400010101010FF10000000FF140000FF00FF4C
:1004500000001F10170000FC04F4141417101714E8
:1004600014F404F40000FF00F7141414141414140A
:10047000F700F7141414171410101F101F1414147D
:10048000F4141010F010F000001F101F0000001FE7
:1004900014000000FC140000F010F01010FF10FF1A
:1004A000141414FF141010101F00000000F010FFAF
:1004B000FFFFFFFFF0F0F0F0F0FFFFFF0000000093
:1004C00000FFFF0F0F0F0F0F3844443844FC4A4A17
:1004D0004A347E02020606027E027E0263554941CC
:1004E000633844443C04407E201E2006027E020203
:1004F00099A5E7A5991C2A492A1C4C7201724C3017
:100500004A4D4D303048784830BC625A463D3E49ED
:100510004949007E0101017E2A2A2A2A2A44445F91
:10052000444440514A444040444A51400000FF0185
:1005300003E080FF000008086B6B08361236243693
:10054000060F090F060000181800000010100030F8
:1005500040FF0101001F01011E00191D1712003C80
:100560003C3C3C00000000002200FF210000010391
:10057000070F1F3F7F0080C0E0F0F8FCFEDB40A4C7
:10058000A62EAF2000A1C8D300408DAED580A80014
:1005900000600000000000000000000000000000FB
:1005A000E00000000000000000000000000001E08A
:1005B0000000000000000000000000000001F0004A
:1005C00000000000000000000000000003F0000038
:1005D000000000000000000000000007F000000024
:1005E0000000000000000000000007F8000000000C
:1005F0000000000000000000000FF800000003C031
:10060000007E000001E0007F0FF800000003C00042
:10061000FE000001E000FFEFF800000003C000FE54
:10062000000001E000FFFFF800000003C000F00040
:1006300000000F007FFE7FC0000003C000F000003C
:10064000000F003FFE7FF83FF1FBCFFCFEF3BC3D07
:10065000EFE01FFE7FFF7FFBFFDFFEFEFFBC3DEFF5
:10066000E01FC6FFFF7FFBFFDFFEFEFFBC3DEFE0AC
:100670000FE3C7FE787BC3DE1EF0FFBC3DEF000733
:10068000FF87FC787BC3DE1EF0F83C3DEF0001FFE6
:10069000FFF0007BC3C01EF0F03C3DEF0001F37F94
:1006A000E03FFBC3CFFEF0F03C3DEF0003E33F80B3
:1006B0007FFBC3DFFEF0F03C3DEF0007E73C007836
:1006C0007BC3DE1EF0F03C3DEF0007FFBE00787BF1
:1006D000C3DE1EF0F03C3DEF0007FFFE00787BC359
:1006E000DE1EF0F03C3DEF000FFFFE007FFBFFDF62
:1006F000FEF0F03FFDEFE00FFFFF007FFBFFDFFEAE
:10070000F0F03FFDEFE00FF9FF003E79F9CF9EF0EA
:10071000F01F3DE7E01FF1FF0000000000000000B7
:10072000000000001F80FF007FFFFFFFFFFFFFFFB3
:10073000FFFFE01C007F007FFFFFFFFEB46D888D90
:1007400018E000001F007FFFFFFFFE95AD7DB5772D
:10075000E000000F007FFFFFFFFEA5AD9D8D19E0BB
:10076000000006007FFFFFFFFEB5ADEDB57EE000A7
:1007700000000000018000000000000000000003F5
:100780008000000000000000000007C00000000022
:10079000000000000007C000000000000000000092
:1007A0000FC00000000000000000001FE00000007B
:1007B0000000000000001FE000000000000000003A
:1007C000003FE00000000000000000003FF00000DB
:1007D000000000000000007FF000000000000000AA
:1007E0001FF87FF0000000000000003FFE7FF000D7
:1007F0000000000000003FFF7FF00000000000004C
:10080000001FFFFBE0000000000000000FFFF9FFE9
:10081000C00000000000000FFFF9FFF8000000001A
:10082000000007FFF1FFFF00000000000003FC7361
:10083000FFFF80000000000001FE3FFFFF8000007E
:1008400000000000FF1E0FFF000000000000007FFE
:10085000FE1FFC000000000000003FFFFFF800004A
:1008600000000000000FDFFFE000000000000000BB
:100870001F19FFC0000000000000003F3CFF000007
:100880000000000000007E7CF80000000000000076
:10089000007FFE7C0000000000000000FFFFFC0065
:1008A00000000000000000FFFFFE0000000000004C
:1008B0000000FFFFFE0000000000000001FFEFFE4F
:1008C0000000000000000001FFCFFE00000000005B
:1008D000000003FF07FE0000000000000003FC070B
:1008E000FE0000000000000003F003FE0000000016
:1008F000000000018000FE00000000000000000079
:10090000007E000000000000000000003E0000002B
:10091000000000000000000C000000000000078044
:1009200000FC000003C0000000078001FC00000381
:10093000C0000000078001FC000003C000000007A9
:100940008001E00000001E000000078001E00000C0
:10095000001E007FE3F79FF9FDE7787BDFC0FFF71C
:10096000FFBFFDFDFF787BDFC0FFF7FFBFFDFDFF91
:10097000787BDFC0F0F787BC3DE1FF787BDE00F0DD
:10098000F787BC3DE1F0787BDE0000F787803DE132
:10099000E0787BDE007FF7879FFDE1E0787BDE007B
:1009A000FFF787BFFDE1E0787BDE00F0F787BC3D15
:1009B000E1E0787BDE00F0F787BC3DE1E0787BDEAC
:1009C00000F0F787BC3DE1E0787BDE00FFF7FFBF7A
:1009D000FDE1E07FFBDFC0FFF7FFBFFDE1E07FFB54
:1009E000DFC07CF3F39F3DE1E03E7BCFC000000021
:1009F0000000000000000000FFFFFFFFFFFFFFFFFF
:100A0000FFFFC0FFFFFFFFFD68DB111A31C0FFFFD2
:100A1000FFFFFD2B5AFB6AEFC0FFFFFFFFFD4B5BA3
:100A20003B1A33C0FFFFFFFFFD6B5BDB6AFDC0536A
:100A300053443133303620616C6C6F636174696F7D
:100A40006E206661696C65640000000000000000B3
:100A50000000000000000000000000000000000096
:100A60000000000000000000000000000000000086
:100A70000000000000000000000000000000000076
:100A80000000000000000000000000000000000066
:100D500000000000000000000000E0000000000CA7
:100D6000000060000000000E000078000000007C21
:100D700000007C000000003C00003F00000003F881
:100D800000003F80000001F800000FE000003FE09D
:100D900000000FF800000FE0000003FF8001FF805B
:100DA000000003FF0003FF80000000FFFE3FFE0085
:100DB000000000FFF8FFFE000000003FFFFFF8000A
:100DC0000000003FFFFFF80000000007FFFFF000F9
:100DD0000000001FFFFFC000000000007FFFC000F8
:100DE00000000007FFFC00000000000003FE000000
:100DF00000000000FF800000000000000000000074
:100E000000000000000000000000000000000000E2
:100E100000000000000000000000000000000000D2
:100E200000000000000000000000000000000000C2
:100E300000000000000000000000000000000000B2
:10104000000000000000000000040000000000009C
:101050000000000000000008000440000000000044
:10106000000000000000000C0044400000000000F0
:10107000000000000000000D80446000000000003F
:101080000000000000000009086660000000000089
:1010900000000000000000190C23A0000000000068
:1010A00000000000000000330C1EF00000000000F3
:1010B000000000000000002E1003B000000000003F
:1010C000000000000000003BE003F0000000000012
:1010D000000000000000001F8001FC000000000074
:1010E000000000000000007F0000FF000000000280
:1010F00000008000000001FF0000FFE00000001E73
:101100000000F00000000FFE000073F8000000FE79
:101110000000FE0000003F9E0000387FF0000FFC42
:1011200000007FE0001FFC3C00003C0FFFFFFFE0E1
:1011300000000FFFFFFFE07C00001E07FFFFFE0026
:10114000000000FFFFFF80F800000F07FFFFF8001E
:101150000000007FFFFF81F800000F07FFFFF8008D
:101160000000007FFFFF83F000000787FFFFF8000B
:101170000000007FFFFF07E0000007E7FFFFF0002F
:101180000000003FFFFF0FC0000003E7FFFFE0008B
:101190000000001FFFFF1F80000001EFFFFFC000E5
:1011A0000000001FFFFF1E0000000033FFFFC00013
:1011B0000000000FFFFF1C0000000039FFFF0000CF
:1011C00000000007FFFE30000000000EFFFF0000DF
:1011D00000000000FFFFE00000000007FFFE00002D
:1011E00000000000FFFF800000000001FFF8000089
:1011F000000000001FFF0000000000007FE0000072
:10120000000000000FF800000000000000000000D7
:1012100000000000000000000000000000000000CE
:1012200000000000000000000000000000000000BE
:1012300000000000000000000000000000000000AE
:10124000000000000000000000000000000000009E
:10125000000000000000000000000000000000008E
:10126000000000000000000000000000000000007E
:10127000000000000000000000000000000000006E
:10128000000000000000000000000000000000005E
:10129000000000000000000000000000000000004E
:1012A000000000000000000000000000000000003E
:1012B000000000000000000000000000000000002E
:1012C000000000000000000000000000000000001E
:1012D000000000000000000000000000000000000E
:1012E00000000000000000000000000000000000FE
:1012F00000000000000000000000000000000000EE
:1013000000000000000000000000000000000000DD
:1013100000000000000000000000000000000000CD
:1013200000000000000000000000000000000000BD
:1013300000000000000000000000000000000000AD
:10134000000000000000000000000000000000009D
:10135000000000000000000000000000000000008D
:10136000000000000000000000000000000000007D
:1013700000000000000000000040001FFFC000004F
:101380000000000000000000106003FFFFFC0000F0
:1013900000000000FFFF000030300FFFFFFFE00003
:1013A0000000003FFFFFF80034987FFFFFFFFE00C2
:1013B000000001FFFFFFFFF066C7FC3FFFFFFF805B
:1013C000000007FFFFFFFFFFC667C03FFFFFFFC032
:1013D00000001FFFFFFFFFFFFC3F007FFFFFFFF04C
:1013E00000003FFFFFFFFC03F81C007FFFFFFFF83A
:1013F00000007CFFFFFFFC00781C007FFFFFFFFC6C
:10140000000070FFFFFFFC00701C007FFFFFFE1854
:10141000000040FFFFFFFC00701C007FFFFFFE008C
:10142000000000FFFFFFFC00701C007FFFFFFE00BC
:10143000000000FFFFFFFC00700E00FFFFFFFE003A
:10144000000000FFFFFFFC00E00E00FFFFFFFE00BA
:10145000000000FFFFFFFE00E00E00FFFFFFFE00A8
:10146000000000FFFFFFFE00E00F00FFFFFFFE0097
:10147000000000FFFFFFFC01E00F007FFFFFFE0008
:10148000000000FFFFFFFC01E007007FFFFFFE0000
:10149000000000FFFFFFFC01C007807FFFFFFC0092
:1014A000000000FFFFFFFC03C007807FFFFFFC0080
:1014B000000000FFFFFFFC03C003807FFFFFFE0072
:1014C000000000FFFFFFF8038003C03FFFFFFC00A8
:1014D0000000007FFFFFF8078001C03FFFFFFC0016
:1014E0000000007FFFFFF80F0000E01FFFFFFC007F
:1014F0000000007FFFFFF00F0000F01FFFFFF8006B
:101500000000003FFFFFF01E0000701FFFFFF8000B
:101510000000003FFFFFF01E0000380FFFFFF0004B
:101520000000003FFFFFE03C00003C07FFFFF00031
:101530000000001FFFFFC07C00001E07FFFFE0004F
:101540000000001FFFFFC0F800000F03FFFFC000F6
:101550000000000FFFFF81F800000F01FFFFC00037
:1015600000000007FFFF03F000000781FFFF80007D
:1015700000000007FFFE07E0000007C0FFFF80003B
:101580000000001FFFFE0FC0000003A07FFFC0008F
:101590000000001FFFFC1F80000000003FFFC00094
:1015A0000000001FFFF81E0000000001FFFFC00048
:1015B0000000000FFFFF0C0000000000FFFF000014
:1015C00000000007FFFE0000000000001FFC0000FC
:1015D00000000000FFF000000000000000E000003C
:1015E000000000000E0000000000000000000000ED
:1015F00000000000000000000000000000000000EB
:1016000000000000000000000000000000000000DA
:1016100000000000000000000000000000000000CA
:1016200000000000000000000000000000000000BA
:1016300000000000000000000000000000000000AA
:10164000000000000000000000000000000000009A
:10165000000000000000000000000000000000008A
:10166000000000000000000000000000000000007A
:10167000000000000000000000000000000000006A
:10168000000000000000000000000000000000005A
:10169000000000000000000000000000000000004A
:1016A0000000000000000000000000001F8000009B
:1016B0000000000003F00000000000007FFF800039
:1016C00000000003FFFF000000000003FFFFE00038
:1016D0000000000FFFFF80000000000FFFFFFC0074
:1016E0000000007FFFFFE0000000003FFFFFFF80E1
:1016F000000003FFFFFFF800000000FFFFFFFFE016
:1017000000000FFFFFFFFE00000001FFFFFFFFF0E2
:1017100000001FFFFFFFFF00000007F3FFFFC7F8F7
:1017200000003FCFFFFF9FC000000FC7FFFFE07C1E
:1017300000007C0FFFFF8FE000003F07FFFFE00E7F
:101740000000E01FFFFFC1F804607C07FFFFE0031B
:101750000001801FFFFFC07C0CF8F80FFFFFF000B6
:101760000000003FFFFFE03E0C9FF00FFFFFF00086
:101770000000003FFFFFE01F9DC7E01FFFFFF000DC
:101780000000007FFFFFF00FFDFFC01FFFFFF8000C
:101790000000007FFFFFF007F37F801FFFFFF800CE
:1017A0000000007FFFFFF003FF7F003FFFFFF80016
:1017B000000000FFFFFFF001FF7E003FFFFFFC0085
:1017C000000000FFFFFFF800FE7E003FFFFFFC006F
:1017D000000000FFFFFFF8007C3C007FFFFFFC00E3
:1017E000000000FFFFFFFC00383C007FFFFFFC0013
:1017F000000000FFFFFFFC00381C007FFFFFFE0021
:10180000000000FFFFFFFC00701C007FFFFFFE00D8
:10181000000000FFFFFFFC00701C007FFFFFFE00C8
:10182000000000FFFFFFFC00701C00FFFFFFFE0038
:10183000000000FFFFFFFE00700E00FFFFFFFE0034
:10184000000000FFFFFFFE00E00E00FFFFFFFE00B4
:10185000000000FFFFFFFE00E00E00FFFFFFFE00A4
:10186000000000FFFFFFFE00E00F00FFFFFFFE0093
:10187000000000FFFFFFFE01E00F007FFFFFFE0002
:10188000000000FFFFFFFC01E007007FFFFFFE00FC
:10189000000000FFFFFFFC01C007807FFFFFFC008E
:1018A000000000FFFFFFFC03C007807FFFFFFC007C
:1018B000000000FFFFFFF803C003807FFFFFFE0072
:1018C000000000FFFFFFF8038003C03FFFFFFC00A4
:1018D0000000007FFFFFF8078001C03FFFFFFC0012
:1018E0000000007FFFFFF00F0000E01FFFFFFC0083
:1018F0000000007FFFFFF00F0000F01FFFFFF80067
:101900000000003FFFFFE01E0000701FFFFFF80017
:101910000000003FFFFFE01E0000380FFFFFF00057
:101920000000003FFFFFE03C00003C07FFFFF0002D
:101930000000001FFFFFC07C00001E07FFFFE0004B
:101940000000001FFFFF80F800000F03FFFFE00012
:101950000000000FFFFF81F800000F01FFFFC00033
:101960000000000FFFFF03F000000781FFFF800071
:1019700000000007FFFE07E0000007C0FFFF800037
:101980000000001FFFFC0FC0000003A07FFFC0008D
:101990000000001FFFFC1F80000000003FFFC00090
:1019A0000000001FFFF81E0000000001FFFFC00044
:1019B0000000000FFFFF0C0000000000FFFF000010
:1019C00000000007FFFE0000000000001FFC0000F8
:1019D00000000000FFF000000000000000E0000038
:1019E000000000000E0000000000000000000000E9
:1019F00000000000000000000000000000000000E7
:101A000000000000000000000000000000000000D6
:101A100000000000000000000000000000000000C6
:101A200000000000000000000000000000000000B6
:101A300000000000000000000000000000000000A6
:101A4000000000000000000000000000080002018B
:101A50000000030407000000000000000000000078
:101A600000250028002B0000000000240027002A89
:101A70000004040404040404040202020202020337
:101A80000303030303010204081020408001020441
:101A9000081020010204081020002D20E024112449
:101AA0001FBECFEFD8E0DEBFCDBF11E0A0E0B1E0B8
:101AB000EAE4F1E502C005900D92A83EB107D9F71E
:101AC00023E0A8EEB1E001C01D92AB3AB207E1F706
:101AD0001DE0CEE4DDE004C02197FE010E94252533
:101AE000CD34D107C9F70E94BF200C9498280C94DC
:101AF000000090E0FC01EB57F54E24918F58954E75
:101B0000FC018491882399F090E0880F991FFC01D3
:101B1000E959F54EA591B491FC01E35AF54E859132
:101B200094918FB7F894EC91E22BEC938FBF0895CA
:101B30003F924F925F926F927F928F929F92AF925D
:101B4000BF92CF92DF92EF92FF920F931F93CF93AA
:101B5000DF9300D000D0CDB7DEB79C838B833B01F1
:101B60006A015901DC01ED91FC910284F385E02DBD
:101B700009952801B7E04B0E511C93E0559447940A
:101B80009A95E1F7C6018E0D9F1D9A838983912C4A
:101B9000812C312CF12CE12CC70187709927330C53
:101BA000892B59F4F70183E0F595E7958A95E1F7DC
:101BB000E80DF91DEA0DFB1D349037FE10C0AB8116
:101BC000BC81ED91FC9111970484F585E02D21E015
:101BD00030E0A601B701660D771DCD010995BFEF75
:101BE000EB1AFB0A0E151F05B9F68FEFC81AD80AB3
:101BF000840C951CA981BA81CA16DB0659F6AB8103
:101C0000BC81ED91FC9111970688F789E02DCD01FB
:101C10000F900F900F900F90DF91CF911F910F9128
:101C2000FF90EF90DF90CF90BF90AF909F908F90FC
:101C30007F906F905F904F903F90099490E0FC01EF
:101C4000E75BF54E2491FC01EB57F54E3491FC0116
:101C5000EF58F54EE491EE23C9F0222339F02330FA
:101C600001F1A8F4213019F1223029F1F0E0EE0F52
:101C7000FF1FE35AF54EA591B4918FB7F894EC91FC
:101C8000611126C030953E233C938FBF08952730C5
:101C9000A9F02830C9F0243049F7809180008F7D69
:101CA00003C0809180008F7780938000DFCF84B560
:101CB0008F7784BDDBCF84B58F7DFBCF8091B00063
:101CC0008F778093B000D2CF8091B0008F7DF9CF15
:101CD0003E2BDACF3FB7F8948091B2029091B302D5
:101CE000A091B402B091B50226B5A89B05C02F3FC4
:101CF00019F00196A11DB11D3FBFBA2FA92F982F32
:101D00008827BC01CD01620F711D811D911D42E02C
:101D1000660F771F881F991F4A95D1F708958F92F4
:101D20009F92AF92BF92CF92DF92EF92FF924B01C0
:101D30005C010E946A0E6B017C010E946A0E6C19A4
:101D40007D098E099F09683E734081059105A8F3BE
:101D500021E0821A9108A108B10888EEC80E83E03C
:101D6000D81EE11CF11C81149104A104B10429F7CF
:101D7000FF90EF90DF90CF90BF90AF909F908F90AB
:101D8000089508950895AF92BF92CF92DF92EF9297
:101D9000FF920F931F93CF93DF936C017B018B0115
:101DA000040F151FEB015E01AE18BF08C017D10765
:101DB00059F06991D601ED91FC910190F081E02DEF
:101DC000C6010995892B79F7C501DF91CF911F9144
:101DD0000F91FF90EF90DF90CF90BF90AF9008955C
:101DE000FC01538D448D252F30E0842F90E0821B21
:101DF000930B541710F0CF96089501970895FC01A6
:101E0000918D828D981761F0A28DAE0FBF2FB11DFD
:101E10005D968C91928D9F5F9F73928F90E0089555
:101E20008FEF9FEF0895FC01918D828D981731F00F
:101E3000828DE80FF11D858D90E008958FEF9FEF63
:101E40000895FC01918D228D892F90E0805C9F4F39
:101E5000821B91098F739927089586EB92E00E9467
:101E6000210F21E0892B09F420E0822F089580E0E2
:101E700090E0892B29F00E942D0F81110C94000015
:101E80000895FC01A48DA80FB92FB11DA35ABF4F0F
:101E90002C91848D90E001968F739927848FA68969
:101EA000B7892C93A089B1898C91837080648C93BD
:101EB000938D848D981306C00288F389E02D80816C
:101EC0008F7D80830895EF92FF920F931F93CF939E
:101ED000DF93EC0181E0888F9B8D8C8D98131AC065
:101EE000E889F989808185FF15C09FB7F894EE894C
:101EF000FF896083E889F9898081837080648083A9
:101F00009FBF81E090E0DF91CF911F910F91FF90F3
:101F1000EF900895F62E0B8D10E00F5F1F4F0F739B
:101F20001127E02E8C8D8E110CC00FB607FCFACF56
:101F3000E889F989808185FFF5CFCE010E94410FA4
:101F4000F1CFEB8DEC0FFD2FF11DE35AFF4FF08227
:101F50009FB7F8940B8FEA89FB8980818062CFCF8D
:101F6000CF93DF93EC01888D8823B9F0AA89BB89D0
:101F7000E889F9898C9185FD03C0808186FD0DC0BB
:101F80000FB607FCF7CF8C9185FFF2CF808185FFDC
:101F9000EDCFCE010E94410FE9CFDF91CF9108959F
:101FA000EF92FF920F931F93CF93DF93EC01EC809E
:101FB000FD806E157F050CF070C057FF04C0240F24
:101FC000351F50E040E08E819F81FA01E20FF31F40
:101FD0008E179F071CF49C01241B350B1216130649
:101FE0000CF05BC0922F842F8695869586958E9DEA
:101FF000D0018F9DB00D11246A0F7B1FAF8DB8A14A
:10200000A60FB71F477049F188E0841B482F682F3F
:1020100070E0FB01EB58FA4FE491281708F063C019
:10202000621B71092FEF30E002C0359527956A9544
:10203000E2F7E2230130110539F0B0F10230110569
:1020400061F58C91E82702C08C91E82BEC939417F2
:1020500020F12C813D81A20FB31FE92FE41BE83052
:1020600078F00230110521F58E2F9C9190959C936C
:102070002C813D81A20FB31F88508830B0F7E770E4
:10208000EE2359F0F0E0E359FA4FE49101301105E5
:10209000F9F010F10230110519F1DF91CF911F9184
:1020A0000F91FF90EF900895E0958C91E823CECFAB
:1020B00081E00115110509F480E081959E2F8C9334
:1020C0002C813D81A20FB31F98509830C0F7D7CF15
:1020D0008C91E82BEC93E1CFE0958C91E823FACF3B
:1020E0008C91E827F7CF0130110509F4ADCFE0F26C
:1020F0000230110509F4A5CFAE0DBF1DAECF0F9371
:102100001F93CF93DF9377FF04C0260F371F70E034
:1021100060E0DC011496CD91DC91FB01E20FF31F2E
:10212000CE17DF071CF49E01261B370B1216130671
:102130004CF5FA0157FD3796A3E0F595E795AA957A
:10214000E1F7EC9FD001ED9FB00DFC9FB00D112485
:102150006A0F7B1FDC015F96ED91FC91E60FF71F84
:102160004770552781E090E001C0880F4A95EAF753
:10217000482F0130110559F0A8F02E0F3F1F0230F3
:102180001105E1F0DF91CF911F910F9108952E0F6E
:102190003F1FE217F307B1F38191DF011197842B01
:1021A0008C93F7CF80952E0F3F1FE217F30751F363
:1021B0009191DF01119798239C93F7CFE217F307D2
:1021C00009F38191DF01119784278C93F7CF0F9347
:1021D0001F93FA01DC0156964C9156974230E9F074
:1021E0004330A1F1413061F514964D915C91DA01D3
:1021F000AE1BBF0BFD01E21BF30B77FD0BC0DC0137
:1022000016964D915C916417750724F4AB01BF01DC
:102210000E947F101F910F91089514964D915C912B
:10222000DA01A61BB70BBD0161507109DC011696DE
:102230004D915C91DA01AE1BBF0BFD01E21BF30B6C
:1022400077FDE8CFAF010E94D00FE4CF16964D91F5
:102250005C91DA01A61BB70BBD0161507109CDCFAE
:102260000F931F93FA01DC0156964C91569742301A
:10227000A9F0433091F1413019F514964D915C91DC
:10228000DA01AE1BBF0BFD013197F7FD04C0AB01B6
:10229000BF010E94D00F1F910F91089514964D9188
:1022A0005C91DA01A61BB70BBD01DC0116964D91BE
:1022B0005C91DA01AE1BBF0BFD013197621B730B02
:1022C000F7FDE9CFDC0116964D915C91E417F50717
:1022D00014F7AF010E947F10DECF16964D915C91EE
:1022E000DA01A61BB70BBD01621B730BCECFFC013D
:1022F00077FD64C080859185681779070CF05EC012
:1023000057FD5CC082859385481759070CF056C06D
:1023100086898230B1F0833029F1813041F48481A3
:102320009581841B950BAB01BC0161507109213073
:10233000310509F108F443C02230310509F463C0C6
:10234000089584819581DC01A61BB70BBD01615006
:10235000710986819781DC01A41BB50BAD01415049
:102360005109E5CF86819781861B970BBA01AC0195
:1023700041505109DCCFCA0157FD0796A3E095955E
:102380008795AA95E1F7A481B5818A9F90018B9FDB
:10239000300D9A9F300D1124620F731F078CF0A12E
:1023A000E02DE60FF71F4770552721E030E001C010
:1023B000220F4A95EAF78081822B80830895CA0113
:1023C00057FD079633E0959587953A95E1F7A481F7
:1023D000B5818A9F90018B9F300D9A9F300D1124FB
:1023E000620F731F078CF0A1E02DE60FF71F4770F7
:1023F000552781E090E001C0880F4A95EAF7809563
:1024000090818923DACFCA0157FD079623E095957D
:1024100087952A95E1F7A481B5818A9F90018B9FCA
:10242000300D9A9F300D1124620F731F078CF0A19D
:10243000E02DE60FF71F4770552721E030E001C07F
:10244000220F4A95EAF780818227B7CF08958EBD83
:1024500000000DB407FEFDCF8EB508958CBD9DBD67
:1024600008950895FC016370668B848195812681AF
:102470003781613039F0633029F091878087338765
:1024800022870895318720879387828708952F9226
:102490003F924F925F926F927F928F929F92AF92F4
:1024A000BF92CF92DF92EF92FF920F931F93CF9341
:1024B000DF93CDB7DEB76A970FB6F894DEBF0FBED5
:1024C000CDBF9A8F898F7A8369834A01D22E18876C
:1024D0000F833701BC2CDC0159962D913C915A9702
:1024E0002115310509F015C118968D919C91199708
:1024F000681779070CF0D7C11A968D919C914817EF
:1025000059070CF0D0C14C2C512CB6E0CB9E600D7D
:10251000711D11247C876B87161617060CF0C3C13A
:10252000EA2DF0E0FA87E98793E0EE0FFF1F9A9516
:10253000E1F7F88BEF87CF01840F951F1816190666
:102540000CF0B1C1A98DBA8D58968C91811104C03F
:10255000BFEABD1508F4D394A98DBA8DED91FC9115
:1025600011970284F385E02DCD010995B5E0DB9E3E
:10257000C0011124E981FA81FC83EB83312C212CE9
:102580009C0128593F4F388F2F8B4A2D50E05E8B8E
:102590004D8BEF89F88DE20DF31D44919E828D8263
:1025A000D12CC12C69817A81620D731D7A8B698B64
:1025B000842F90E09C8B8B8BE98DFA8DA081B1816B
:1025C00040FF82C0F1E0BF126FC0AF126DC01C9619
:1025D000ED91FC912F813885A4014C0D5D1D698919
:1025E0007A89898D9A8D0995EB89FC89F595E7950E
:1025F0004E2F5FEFC51AD50A6D817E818D899E8928
:10260000680F791F7E836D8398E0C916D10481F627
:10261000AFEF2A1A3A0AEB81FC81E40DF51DFC8329
:10262000EB83F5E02F16310409F0B3CF2F81388505
:1026300026153705B9F0A98DBA8DED91FC91B1E061
:10264000BB1257C0AB1255C069817A816B5F7F4F57
:102650000088F189E02D830128E030E0A401898D14
:102660009A8D0995A98DBA8DED91FC9111970688E7
:10267000F789E02DCD016A960FB6F894DEBF0FBE44
:10268000CDBFDF91CF911F910F91FF90EF90DF9021
:10269000CF90BF90AF909F908F907F906F905F9002
:1026A0004F903F902F9009941E96ED91FC91EF80F2
:1026B000F88409851A8592014D815E816B817C8148
:1026C000898D9A8D099590CF2F81388526153705EC
:1026D00009F48ACF31E0B31207C0A31205C01C96DB
:1026E000ED91FC91930178CF1E96ED91FC917301D1
:1026F000E0CF6B857C85641975090684F785E02D2C
:1027000073010F8518899201A401898D9A8D09950D
:10271000A9CFF90134969491329745915491D91AE1
:10272000B7E0DB9E400D511D1124F9012591349134
:102730003C8B2B8BFA0125903490FA0132967490E1
:1027400031963491398B329664903196449041E0C1
:102750004C1518F04A1508F07FC0662D062C000CA9
:10276000770B7C836B83842D042C000C990B9E8348
:102770008D83A98DBA8DED91FC9111970284F3851B
:10278000E02DCD010995512CD12CC12CEA2DF0E082
:10279000FA87E9872B2D30E03C872B87A401440D75
:1027A000511D47FC5A95588F4F8B69817A81660D70
:1027B000711D67FC7A957E876D877989C71608F049
:1027C00051CF2C2D30E04D815E81420F531FA985E2
:1027D000BA854A9FC0014B9F900D5A9F900D1124BE
:1027E000FC01E80DF91DF88BEF87852D612C4F89D1
:1027F000588D420F531F5E8B4D8B671408F050C0ED
:1028000044244394480E877041F4C1010196EB893A
:10281000FC89E20DF31DD4901C01D7FE19C0A98DCF
:10282000BA8DED91FC91662D70E0B1E0BB1219C03C
:10283000AB1217C02D853E85620F731F0484F5858A
:10284000E02D2F8138854D895E89898D9A8D099576
:10285000DD0C6394842DD1CF1E821D821C821B82CD
:1028600088CF4B815C81640F751FAB85BC856A9FE7
:10287000C0016B9F900D7A9F900D112469817A8120
:10288000680F791F0684F785E02DEF80F8840985AD
:102890001A859D014F855889898D9A8D0995D8CFC4
:1028A000570CC3948ACF6A960FB6F894DEBF0FBE5A
:1028B000CDBFDF91CF911F910F91FF90EF90DF90EF
:1028C000CF90BF90AF909F908F907F906F905F90D0
:1028D0004F903F902F9008958F929F92AF92CF92FA
:1028E000EF92FF920F931F93CF93DF93EC01262F6C
:1028F000898D9A8D009709F051C06A30D1F41D86F8
:102900001C868D8948E0849F900111248E859F85C7
:10291000820F931F9F878E8781E090E0DF91CF9198
:102920001F910F91FF90EF90CF90AF909F908F905D
:1029300008956D3089F3CC88AD888F898823C1F0E4
:102940008C859D8536E0C39E800D911D11244885A0
:1029500059854817590764F44E855F851D861C8686
:1029600038E0A39EC0011124840F951F9F878E8796
:10297000EA88FB88088919894E855F856C857D8585
:10298000CE010E9447122C898C859D8546E0249FAC
:10299000800D911D11249D878C87BECF6A3069F40C
:1029A0001D861C86FC013896E4912D898E859F85B5
:1029B000E29F800D911D1124ADCF6D3009F4ACCF95
:1029C000FC0134963491631708F4A6CF3296E49153
:1029D000E61708F4A1CFFC01329685909490462F1B
:1029E000431B342F47E0349F800C911C1124F401C9
:1029F000329634913196E4913323A9F1EE2399F183
:102A0000CC88F4013596E491AD884F89442301F1D7
:102A10000E2E000CFF0BE30FF11DCE9EA001CF9EEA
:102A2000500D11246C857D85460F571F688579856B
:102A3000641775076CF44E855F851D861C86FC0146
:102A40003896E491AE9E400D511D11245F874E874C
:102A5000EA88FB88088919894E855F856C857D85A4
:102A6000CE010E944712F4013496E4912C898C85A2
:102A70009D85E29F800D911D11248DCF6F927F92D5
:102A80008F929F92AF92BF92CF92DF92EF92FF927E
:102A90000F931F93CF93DF93EC016B015A01390120
:102AA0004801E881F9810284F385E02D0995E881E8
:102AB000F9810288F389E02D87019301A501B60110
:102AC000CE010995A501480D591D41505109E881D4
:102AD000F9810288F389E02D9301B601CE010995B1
:102AE000E881F9810088F189E02D9401A501B60102
:102AF000CE010995C60CD71CB60161507109E88159
:102B0000F9810088F189E02D9401A501CE01099594
:102B1000E881F9810688F789E02DCE01DF91CF9118
:102B20001F910F91FF90EF90DF90CF90BF90AF90EB
:102B30009F908F907F906F9009946F927F928F9269
:102B40009F92AF92BF92CF92DF92EF92FF920F933C
:102B50001F93CF93DF935C01EB016A0149013801B8
:102B60008701DC01ED91FC916217730719F564167A
:102B700075062CF0962D872D3A01C92ED82E960178
:102B8000261937092F5F3F4F048CF58DE02DA301E7
:102B9000BE01C5010995DF91CF911F910F91FF9063
:102BA000EF90DF90CF90BF90AF909F908F907F90ED
:102BB0006F9008954615570591F42617370724F0AE
:102BC000892D4B01C22FD82F9E01281939092F5F5B
:102BD0003F4F068CF78DE02DA601B401DACF0284B9
:102BE000F385E02D0995D501ED91FC910488F589D7
:102BF000E02D83019401A601BE01C5010995D5010F
:102C0000ED91FC910688F789E02DC501DF91CF9108
:102C10001F910F91FF90EF90DF90CF90BF90AF90FA
:102C20009F908F907F906F900994EF92FF920F93F7
:102C30001F93DC011A960D911C911B9718962D91EC
:102C40003C911997ED91FC9100A0F1A1E02D7B0141
:102C500050E040E070E060E009951F910F91FF9017
:102C6000EF9008954F925F926F927F928F929F9212
:102C7000AF92BF92CF92DF92EF92FF920F931F938A
:102C8000CF93DF936C012B015A0139014801DC011C
:102C9000ED91FC910284F385E02D0995E201640C2D
:102CA000751CD601ED91FC91C615D7055CF4008822
:102CB000F189E02D87019401A501BE01C6010995A6
:102CC0002196EFCF0688F789E02DC601DF91CF91DD
:102CD0001F910F91FF90EF90DF90CF90BF90AF903A
:102CE0009F908F907F906F905F904F9009948F92FC
:102CF0009F92AF92BF92CF92DF92EF92FF920F938B
:102D00001F93CF93DF93EC015B014A016901E881D6
:102D1000F9810284F385E02D099595012C0D3D1D67
:102D200021503109E881F9810488F589E02D780185
:102D30008401A401B501CE010995E881F9810688D5
:102D4000F789E02DCE01DF91CF911F910F91FF9078
:102D5000EF90DF90CF90BF90AF909F908F900994AD
:102D60008F929F92AF92BF92CF92DF92EF92FF929B
:102D70000F931F93CF93DF93EC015B014A0169012D
:102D80007801E881F9810284F385E02D0995C80C6A
:102D9000D91C860101501109E881F9810488F5895F
:102DA000E02D9501A401B501CE010995E881F981D5
:102DB0000688F789E02DCE01DF91CF911F910F9109
:102DC000FF90EF90DF90CF90BF90AF909F908F904B
:102DD00009940895EF92FF920F931F93DC01ED91F8
:102DE000FC9100A0F1A1E02D09951F910F91FF909A
:102DF000EF9008950F931F93DC01ED91FC91068CE9
:102E0000F78DE02D09951F910F9108950F931F9352
:102E1000DC01ED91FC91048CF58DE02D09951F915D
:102E20000F910895DC01ED91FC910084F185E02D76
:102E300009942F923F924F925F926F927F928F925E
:102E40009F92AF92BF92CF92DF92EF92FF920F9339
:102E50001F93CF93DF9300D000D000D0CDB7DEB763
:102E60003C016A013E832D83FC82EB825801A41A47
:102E7000B50AB7FE03C0B194A194B1088D809E80BD
:102E8000861A970A97FE03C09194819491088A1438
:102E90009B045CF0902F812F0D811E819D838E837A
:102EA0009C2D8D2D6B01692F782F0C151D055CF065
:102EB0009D818E817E836D83692F782F902F812F46
:102EC0008601C92ED82E1601201A310A2B012D8118
:102ED0003E81421A530A57FE03C05194419451084F
:102EE000710137FE03C03FEFE31AF30AF594E7944C
:102EF0008D819E81861797075CF5A1E0B0E0BA83CB
:102F0000A983C016D1064CF1D301ED91FC91048444
:102F1000F585E02D2B813C81A8016D817E818A148D
:102F20009B041CF04D815E81B801C3010995E41832
:102F3000F508F7FE0AC02D813E8189819A81280F0C
:102F4000391F3E832D83E20CF31C0F5F1F4FD9CF37
:102F50002FEF3FEF3A832983D4CF26960FB6F8940C
:102F6000DEBF0FBECDBFDF91CF911F910F91FF90BC
:102F7000EF90DF90CF90BF90AF909F908F907F9019
:102F80006F905F904F903F902F90089508952091FB
:102F90005802260F3327331F21323105ECF42091DC
:102FA0007C02FC0190E080E0243069F082E008952A
:102FB000A09158022191AC01485C5D4FA40FB52F40
:102FC000B11D2C930196861798F380915802680FD3
:102FD0006093580280E0089581E008959B01AC0160
:102FE00060E074E284EF90E00E94032520513109F3
:102FF0004109510956954795379527952093B80073
:10300000089510927C0281E080937E0210927D02EE
:1030100061E082E10E941E0E61E083E10E941E0ECB
:10302000E9EBF0E080818E7F808380818D7F8083DB
:1030300088E48093B80085E48093BC000895CF9322
:10304000DF9391E0909337028823B9F0C091B800E4
:10305000D091BA008091BC008A7B8093BC0060E074
:1030600082E10E941E0E60E083E10E941E0E0E941B
:103070000118D093BA00C093B800DF91CF910895A2
:10308000E091AC028091AB02E81730F4F0E0EE5E24
:10309000FD4F808190E008958FEF9FEF089590910C
:1030A000AC028091AB022FEF3FEF981748F4E92F65
:1030B000F0E0EE5EFD4F208130E09F5F9093AC0228
:1030C000C90108958091AB029091AC02891B990BC4
:1030D0000895CF92DF92EF92FF920F931F93CF93B9
:1030E000DF937C01CB018A012091A302222389F086
:1030F000EB016B01C40ED51ECC15DD0569F069919D
:10310000D701ED91FC910190F081E02DC701099567
:10311000F3CF642F0E94C717C801DF91CF911F9191
:103120000F91FF90EF90DF90CF900895CF93DF93B2
:103130001F92CDB7DEB769832091A3022223F9F055
:103140002091A902203258F021E030E0FC013383C5
:10315000228390E080E00F90DF91CF9108958091DD
:10316000AA02E82FF0E0EE50FE4F998190838F5F26
:103170008093AA028093A90281E090E0ECCF61E005
:10318000CE0101960E94C717F7CFCF92DF92EF9240
:10319000FF920F931F93CF93DF93D091A90281E009
:1031A000D13208F09CC0C091A2020E946A0E6B014D
:1031B0007C0180917C0281116CC082E080937C0252
:1031C00081E080937E028FEF80937B021092A002B9
:1031D000D0939F02A2EFB1E0EFE7F2E080E0D813D6
:1031E0008DC01092A1028091A102CC0FC82BC09378
:1031F000A10280917D02813009F084C010927D028D
:103200000E946A0E6B017C018091A1028093BB0039
:103210008091330290913402A0913502B091360230
:10322000892B8A2B8B2BA1F00E946A0E009133020E
:103230001091340220913502309136026C197D09CB
:103240008E099F09061717072807390708F442C097
:103250008091BC0083FDD8CF85EC8093BC000E9498
:103260006A0E6B017C0180917C02823009F44CC0B3
:1032700080917B028F3F09F469C080917B0280328C
:1032800009F466C080917B02803309F463C084E056
:1032900026C08091330290913402A0913502B09102
:1032A0003602892B8A2B8B2B09F483CF0E946A0E5E
:1032B0000091330210913402209135023091360290
:1032C0006C197D098E099F0906171707280739070A
:1032D00008F06FCF809132020E941F1885E0109293
:1032E000AA021092A9021092A302DF91CF911F911E
:1032F0000F91FF90EF90DF90CF9008959D91919363
:103300008F5F6DCF85EEA9CF80913302909134020B
:10331000A0913502B0913602892B8A2B8B2B09F4B0
:10332000A2CF0E946A0E00913302109134022091C4
:103330003502309136026C197D098E099F090617F6
:1033400017072807390708F08ECFC4CF80E0C7CF12
:1033500082E0C5CF83E0C3CFCF92DF92EF92FF929E
:103360000F931F93CF93DF93EC016B01142F8D8D7F
:103370009E8D009709F454C029A131E03093A30237
:103380002093A2021092AA021092A902DC01ED91F0
:10339000FC910190F081E02D60E009957601CC244C
:1033A000C394D12C01E011508D8D9E8D1F3F71F182
:1033B000B0E2CB16D104C0F00E94C5188D8D9E8D51
:1033C00029A10093A3022093A2021092AA021092B4
:1033D000A902DC01ED91FC910190F081E02D60E00B
:1033E0000995CC24C394D12C8D8D9E8DF7016491C9
:1033F000DC01ED91FC910190F081E02D0995BFEF8A
:10340000CB1ADB0AEFEFEE1AFE0ACDCFDF91CF9198
:103410001F910F91FF90EF90DF90CF900C94C51803
:10342000EDA5FEA590818BA98095892380837B01E2
:10343000115070F1F70184912B8D3C8D232B31F0CD
:103440000E942712FFEFEF1AFF0AF2CF28E030E0C8
:1034500040E8E9A5FAA599A9582F5423A9F050816D
:10346000952B9083EBA5FCA590815AA9952B908371
:10347000EBA5FCA550819AA990959523908346953C
:103480002150310931F7DECF508190959523E9CF56
:10349000DF91CF911F910F91FF90EF90DF90CF9030
:1034A00008951F93CF93DF93EC018D8D9E8D009730
:1034B00021F1162F29A131E03093A3022093A2021B
:1034C0001092AA021092A902DC01ED91FC910190E8
:1034D000F081E02D60E009958D8D9E8DDC01ED91F0
:1034E000FC910190F081E02D612F09958D8D9E8DCD
:1034F000DF91CF911F910C94C518ADA5BEA59C91ED
:103500008BA9809589238C938B8D9C8D892B31F091
:10351000862FDF91CF911F910C94271228E030E085
:1035200080E8A9A5BAA599A9462F4823C1F04C91D6
:10353000942B9C93ABA5BCA59C914AA9942B9C93DE
:10354000ABA5BCA54C919AA9909594239C93869584
:103550002150310931F7DF91CF911F9108954C919E
:1035600090959423E6CF1F93CF93DF93EC01162F12
:103570008D8D9E8D892BC9F06DA97EA98FA998ADDF
:103580000E94EE1766EA111167EACE010E94511AF5
:103590008D8D9E8D892BC9F069AD7AAD8BAD9CADBB
:1035A000DF91CF911F910C94EE178B8D9C8D892B01
:1035B00021F08EAD9FAD0E942E12EFA5F8A990814B
:1035C0008CA9809589238083DDCFEFA5F8A9808120
:1035D0009CA9892B8083DF91CF911F910895BF9281
:1035E000CF92DF92EF92FF920F931F93CF93DF93CF
:1035F000EC018D8D9E8D892B09F476C06DA97EA975
:103600008FA998AD0E94EE1745E068E675E0CE01FF
:103610000E94AC196C816150CE010E94511A2E811A
:103620003F81C901079697FD079623E095958795F9
:103630002A95E1F72C813D81829F7001839FF00CD8
:10364000929FF00C11240F8D18A18D8D9E8DE00E90
:10365000F11E009709F46EC029A131E03093A30256
:103660002093A2021092AA021092A902DC01ED910D
:10367000FC910190F081E02D60E40995CC24C39485
:10368000D12CBB24B3948D8D9E8DE016F106E1F113
:10369000B0E2CB16D104C0F00E94C5188D8D9E8D6E
:1036A00029A1B092A3022093A2021092AA02109222
:1036B000A902DC01ED91FC910190F081E02D60E424
:1036C0000995CC24C394D12C8D8D9E8DF8016191E8
:1036D0008F01DC01ED91FC910190F081E02D0995C5
:1036E000BFEFCB1ADB0ACFCF8B8D9C8D892B21F0BE
:1036F0008EAD9FAD0E942E12EFA5F8A990818CA9E6
:1037000080958923808380CF0E94C5188D8D9E8DE2
:10371000892B09F444C069AD7AAD8BAD9CADDF91C6
:10372000CF911F910F91FF90EF90DF90CF90BF90BE
:103730000C94EE17EDA5FEA580819BA9892B8083B3
:10374000E016F10619F3F80181918F012B8D3C8D64
:10375000232B19F00E942712F3CF28E030E040E835
:10376000E9A5FAA599A9582F5423A9F05081952BC2
:103770009083EBA5FCA590815AA9952B9083EBA58E
:10378000FCA550819AA99095952390834695215048
:10379000310931F7D5CF508190959523E9CFEFA529
:1037A000F8A980819CA9892B8083DF91CF911F91FB
:1037B0000F91FF90EF90DF90CF90BF90089590E031
:1037C00080E00895FC0101900020E9F73197AF01F6
:1037D000481B590BBC0186EB92E00C94C30E8F92F0
:1037E0009F92AF92BF920F931F93CF93DF93CDB76A
:1037F000DEB7A1970FB6F894DEBF0FBECDBF19A2FA
:10380000423008F44AE08E010F5D1F4F842E912C48
:10381000B12CA12CA50194010E940325E62FB9012A
:10382000CA01EA30F4F4E05DD801EE938D01232B58
:10383000242B252B79F790E080E0109719F0CD012B
:103840000E94E21BA1960FB6F894DEBF0FBECDBF5B
:10385000DF91CF911F910F91BF90AF909F908F906C
:103860000895E95CE1CFCF93DF930E94E21BEC0166
:1038700087E591E00E94E21B8C0F9D1FDF91CF91A5
:1038800008954F925F926F927F928F929F92AF9224
:10389000BF92CF92DF92EF92FF920F931F93CF933D
:1038A0006B017C01742EAC019B010E94622788236E
:1038B00099F08AE591E0CF911F910F91FF90EF90E1
:1038C000DF90CF90BF90AF909F908F907F906F9040
:1038D0005F904F900C94E21B46015701E894B7F8B3
:1038E0002FEF3FEF4FE75FE7C501B4010E9462276A
:1038F00081110DC02FEF3FEF4FE75FE7C501B40126
:103900000E94982518161CF48EE591E0D4CF2FEF75
:103910003FEF4FE75FE4C701B6010E94F02618169B
:103920001CF482E691E0C7CF2FEF3FEF4FE75FEC4B
:10393000C701B6010E94982587FDF3CF20E030E053
:10394000A901C701B6010E94982510E000E087FF99
:103950000AC06DE286EB92E00E94630F8C01F7FAD9
:10396000F094F7F8F094C0E060E070E080E09FE34E
:103970007C1641F020E030E040E251E40E949D25B9
:10398000CF5FF6CFA70196010E942C252B013C01A9
:103990000E940F264B015C014AE00E94EF1B7C0154
:1039A000E00EF11ECC23C1F1C501B4010E943E26F8
:1039B0009B01AC01C301B2010E942B254B015C01AC
:1039C0006EE286EB92E00E94630FE80EF91EC15092
:1039D00018F120E030E040E251E4C501B4010E945A
:1039E000F5262B013C010E940F264B01B12CA12C86
:1039F0004AE0C501B4010E94EF1BE80EF91EC501A3
:103A0000B4010E943E269B01AC01C301B2010E9499
:103A10002B254B015C01DBCFC701CF911F910F918B
:103A2000FF90EF90DF90CF90BF90AF909F908F90DE
:103A30007F906F905F904F9008950E948C28FC01BA
:103A4000868197819C01295F3F4F37FF02C0295F24
:103A50003F4F83E0359527958A95E1F784819581DD
:103A6000289FA001299F500D389F500D112470E010
:103A700060E0878D90A10C94912885ED8093BC0027
:103A80008091330290913402A0913502B0913602B8
:103A90000796A11DB11D23E0B695A795979587952B
:103AA0002A95D1F72091BC0024FD03C010927C021E
:103AB0000895409133025091340260913502709123
:103AC0003602452B462B472B69F30097A105B1051C
:103AD00041F025E32A95F1F700000197A109B1090A
:103AE000E1CF809132020C941F181F920F920FB6F3
:103AF0000F9211242F933F938F939F93AF93BF9374
:103B00008091AE029091AF02A091B002B091B1024B
:103B10003091AD0223E0230F2D3758F50196A11DFA
:103B2000B11D2093AD028093AE029093AF02A0939B
:103B3000B002B093B1028091B2029091B302A09111
:103B4000B402B091B5020196A11DB11D8093B202DD
:103B50009093B302A093B402B093B502BF91AF911A
:103B60009F918F913F912F910F900FBE0F901F90BB
:103B7000189526E8230F0296A11DB11DD2CF1F92E2
:103B80000F920FB60F9211242F933F934F935F9391
:103B90006F937F938F939F93AF93BF93EF93FF9315
:103BA00086EB92E00E94410FFF91EF91BF91AF91A0
:103BB0009F918F917F916F915F914F913F912F9145
:103BC0000F900FBE0F901F9018951F920F920FB677
:103BD0000F9211242F938F939F93EF93FF93E09174
:103BE000C602F091C7028081E091CC02F091CD0233
:103BF00082FD1BC090818091CF028F5F8F732091D7
:103C0000D002821741F0E091CF02F0E0EA54FD4F7C
:103C1000958F8093CF02FF91EF919F918F912F917C
:103C20000F900FBE0F901F9018958081F4CF1F92B8
:103C30000F920FB60F9211242F933F934F935F93E0
:103C40006F937F938F939F93AF93BF93EF93FF9364
:103C50008091B900887F803609F44AC0F0F5883237
:103C600009F4A7C018F5803109F49BC0B8F4882383
:103C700009F4F9C0883009F494C0FF91EF91BF9125
:103C8000AF919F918F917F916F915F914F913F91F4
:103C90002F910F900FBE0F901F901895883109F447
:103CA00088C0803251F780937B0214C0803409F4BD
:103CB0009DC040F48033B9F38833F9F680937B02DA
:103CC00085ECB0C0803509F485C0883509F496C00C
:103CD000883499F60E943D1DD0CF883909F48CC0F4
:103CE00038F5883729F050F4883611F0803729F6F6
:103CF00083E080937C0210927A0257C0883809F4DE
:103D00007BC0803919F0803809F0B7CF80917A02F2
:103D1000803208F071C0E0917A0281E08E0F8093CA
:103D20007A028091BB00F0E0E65AFD4F80833DC0EF
:103D3000803B39F0E0F4803A09F479C0883A09F020
:103D40009CCF84E080937C0210925902109258021A
:103D5000E091A702F091A802099580915802811183
:103D60000FC081E0809358021092380209C0803C55
:103D700009F4A6CF883C09F4A3CF883B09F07DCF96
:103D8000E091590281E08E0F80935902F0E0E85CE7
:103D9000FD4F80818093BB00909159028091580221
:103DA00029C08091A1028093BB0085EC8093BC0068
:103DB00064CF9091A00280919F02981758F5E091EE
:103DC000A00281E08E0F8093A002F0E0E158FD4F49
:103DD0008081E9CFE091A00281E08E0F8093A00264
:103DE0008091BB00F0E0E158FD4F80839091A002EC
:103DF00080919F029817C8F285E8D8CFE091A00281
:103E000081E08E0F8093A0028091BB00F0E0E1582A
:103E1000FD4F808380917E0281115CCF81E0809391
:103E20007D0284EA8093BC0010927C0226CF85EC50
:103E30008093BC0010927C0280917A02803230F430
:103E4000E0917A02F0E0E65AFD4F108260917A022A
:103E500070E0E091A502F091A6028AE592E0099552
:103E600010927A020ACF10927B0234CF1F920F92E7
:103E70000FB60F921124CF92DF92EF92FF922F9301
:103E80003F934F935F936F937F938F939F93AF93E2
:103E9000BF93CF93EF93FF9387EF92EC90938500BE
:103EA000809384008091F0019091F10101969093AC
:103EB000F1018093F00167E070E00E94EF24892B0C
:103EC00009F064C0CAE0C12CD12C760180910001B8
:103ED00020E4829FC0011124836080937C00809144
:103EE0007A00806480937A0080917A0086FDFCCF0E
:103EF0008091780060917900762F682F072E000C52
:103F0000880B990B0E9440269B01AC01C701B601AA
:103F10000E942C256B017C0165E070E080E090E060
:103F20000E948F0EC15091F620E030E040E251E453
:103F3000C701B6010E949D2525E33EE542EC50E411
:103F40000E94F52620E030E040E85AE30E94F52682
:103F50006B017C01C092EC01D092ED01E092EE0188
:103F6000F092EF012091E8013091E9014091EA01DE
:103F70005091EB010E94F026181644F4C092E8011B
:103F8000D092E901E092EA01F092EB018091F00118
:103F90009091F101893E934020F01092F10110922E
:103FA000F0018091F0019091F1016DE070E00E94CC
:103FB000EF24892BE1F583EC91E00E94E21B2FB7FF
:103FC000F8946091AE027091AF028091B00290912E
:103FD000B1022FBF28EE33E040E050E00E940325FD
:103FE000CA01B9014AE00E94EF1B8BEC91E00E94EC
:103FF000E21B6091EC017091ED018091EE019091D6
:10400000EF0142E00E94411C86ED91E00E94E21B1C
:104010006091E8017091E9018091EA019091EB01D2
:1040200042E00E94411C87E591E00E94E21BFF9163
:10403000EF91CF91BF91AF919F918F917F916F91B0
:104040005F914F913F912F91FF90EF90DF90CF9034
:104050000F900FBE0F901F901895E6EBF2E01382C1
:10406000128248EE53E060E070E04483558366833B
:1040700077838BE091E09183808385EC90E0958756
:10408000848784EC90E09787868780EC90E0918B22
:10409000808B81EC90E0938B828B82EC90E0958B0F
:1040A000848B86EC90E0978B868B118E128E138E0C
:1040B000148EABE5B3E013961C921E9212971496E1
:1040C0004D935D936D937C9317978DE191E01196DD
:1040D0009C938E93E7E6F3E01382128220E830E0AF
:1040E0003583248380E490E097838683318720871B
:1040F00093878287168A158614861786168681E02E
:10410000858B848B2FEF3FEF338B228B318B208B72
:10411000878B108E128E118E8FE291E091838083B7
:10412000148E138EB68FA58F10A2178E8FEF84A3D7
:1041300085A386A387A384E080A780E89AE1A6E010
:10414000B0E085AB96ABA7ABB0AF80EA96E8A1E054
:10415000B0E081AF92AFA3AFB4AF80E586AF17AE4A
:10416000E3E5F3E08AE491E09383828383E290E0E5
:10417000958384838EE190E0978386830895789475
:1041800084B5826084BD84B5816084BD85B582605C
:1041900085BD85B5816085BD80916E00816080930D
:1041A0006E00109281008091810082608093810076
:1041B0008091810081608093810080918000816086
:1041C000809380008091B10084608093B1008091E1
:1041D000B00081608093B00080917A008460809309
:1041E0007A0080917A00826080937A0080917A00D0
:1041F000816080937A0080917A00806880937A0051
:104200001092C100E091C602F091C70282E0808363
:10421000E091C202F091C3021082E091C402F091D9
:10422000C5028FEC80831092CE02E091CA02F09119
:10423000CB0286E08083E091C802F091C9028081C0
:1042400080618083E091C802F091C902808188601A
:104250008083E091C802F091C902808180688083E8
:10426000E091C802F091C90280818F7D808383E054
:104270008093000110928000109281008091810053
:1042800085608093810087EF92EC90938500809306
:10429000840080916F00816080936F00809186031D
:1042A00090918703892B49F187E693E00E941F1DB7
:1042B00080916D0390916E0360916B0370916C031C
:1042C000813291050CF04DC0AC014052510957FFAD
:1042D00002C04F5F5F4F559547956357710977FF50
:1042E00002C06F5F7F4F75956795F0E2EF2EF12C5E
:1042F00003E710E02FE835E04CC020916D033091CA
:104300006E03C901079697FD079613E0959587956B
:104310001A95E1F720916B0330916C03AC01429F39
:10432000C001439F900D529F900D11240E9467275A
:104330009093870380938603892B09F0B5CFCFE252
:10434000DAE0FE016491662339F086EB92E00E9488
:10435000630F2196892BA9F787E591E00E94E21B64
:10436000FFCFAC014054510957FF02C04F5F5F4F70
:10437000559547956255710977FF02C06F5F7F4F72
:1043800075956795C0E4EC2EF12C02E510E02FE660
:1043900037E087E693E00E94980D82E080938903DE
:1043A0008091840390918503892B09F4EDC18CE3FE
:1043B000809388031092AC021092AB021092AA0272
:1043C0001092A9020E94011881EC9EE09093A8022D
:1043D0008093A70282EC9EE09093A6028093A502B0
:1043E00080918F0387FD1DC00E94790D61E080914F
:1043F0008F030E941E0E61E070E080E090E00E945A
:104400008F0E60E080918F030E941E0E6AE070E0C4
:1044100080E090E00E948F0E61E080918F030E9407
:104420001E0E8091840390918503892B09F463C249
:1044300060919C0370919D0380919E0390919F03D6
:104440000E94EE1744E06BE875E087E693E00E9477
:10445000AC1960916D03615087E693E00E94511A98
:1044600044E067E875E087E693E00E94AC1980912C
:10447000890364E1813009F460E187E693E00E94FA
:10448000511A44E063E875E087E693E00E94AC19B6
:104490008FE88093A40380916B0390916C03803824
:1044A000910509F041C280916D0390916E038034B3
:1044B000910509F049C280918903813009F432C223
:1044C0008FEC8093A403C2E16AED87E693E00E943B
:1044D000511A6C2F87E693E00E94511A61E887E633
:1044E00093E00E94511A6091A40387E693E00E9432
:1044F000511A69ED87E693E00E94511A8091890371
:1045000061EF813009F462E287E693E00E94511A7C
:1045100046E06DE775E087E693E00E94AC19809174
:10452000840390918503892B09F412C26091A00342
:104530007091A1038091A2039091A3030E94EE17B2
:1045400086E691E00E94331C87E693E09093540343
:10455000809353038AE491E090935603809355032C
:1045600083E290E090935803809357038EE190E0AC
:1045700090935A038093590384E891E00E94331C7E
:10458000C0915303D09154038D8D9E8D892B09F4D6
:10459000E9C16DA97EA98FA998AD0E94EE176FEAB7
:1045A000CE010E94511A8D8D9E8D892B09F4EAC18E
:1045B00069AD7AAD8BAD9CAD0E94EE1782E991E0BA
:1045C0000E94E21B83EA91E00E94331CC0915303D6
:1045D000D09154038D8D9E8D892B09F4DAC16DA97C
:1045E0007EA98FA998AD0E94EE1761E8CE010E94C6
:1045F000511A61E0CE010E94511A8D8D9E8D892B3A
:1046000009F4D7C169AD7AAD8BAD9CAD0E94EE17B0
:1046100087EA91E00E94331C8091530390915403E8
:104620000E941F1D86EB91E00E94331C8091530372
:10463000909154030E94EF1AC0E0D0E080915303A0
:10464000909154030E941F1D80E4E82EF12C00E895
:1046500010E029E436E150E040E070E060E0809155
:104660005303909154030E94980D809153039091AD
:1046700054030E94EF1A6CEF78E080E090E00E9413
:104680008F0E80915303909154030E941F1D29E4C3
:1046900032E150E040E070E060E08091530390919F
:1046A00054030E94980D80915303909154030E94EB
:1046B000EF1A80915303909154030E941F1D29E427
:1046C0003EE050E040E070E060E080915303909164
:1046D00054030E94980D80915303909154030E94BB
:1046E000EF1A80915303909154030E941F1D29E4F7
:1046F0003AE050E040E070E060E080915303909138
:1047000054030E94980D80915303909154030E948A
:10471000EF1A80915303909154030E941F1D29E4C6
:104720003EE050E040E070E060E080915303909103
:1047300054030E94980D80915303909154030E945A
:10474000EF1A80915303909154030E941F1D29E496
:1047500032E150E040E070E060E0809153039091DE
:1047600054030E94980D80915303909154030E942A
:10477000EF1A209709F462CF0E942D0F882309F4C5
:104780005DCF0E9400005ACF80918D030E94790D69
:1047900080918E030E94790D80918D03082E000C6C
:1047A000990BFC01EF58F54EE491F0E0EE0FFF1F7E
:1047B000E35AF54E25913491309395032093940359
:1047C000FC01EB57F54EE491E0939A0380918E0340
:1047D000082E000C990BFC01EF58F54EE491F0E027
:1047E000EE0FFF1FE35AF54EA591B491B0939703D6
:1047F000A0939603FC01EB57F54EE491E0939B03E5
:104800008C91E82BEC938091820390918303892B08
:1048100089F1CFB7F8948091A402811124C0EBE70D
:10482000FAE18491EFE8FAE19491E82FF0E0EE0FDD
:10483000FF1FE959F54EA591B491EC91E92321F4BC
:1048400061E08AE00E941E0E8AE00E94790D8CB51C
:1048500080618CBD8CB580648CBD8DE00E94790D2B
:104860008BE00E94790D8091A4028F5F8093A40257
:10487000CFBFB6CD80918B030E94790D80918C03C0
:104880000E94790D80918B03082E000C990BFC017E
:10489000EF58F54EE491F0E0EE0FFF1FE35AF54EAE
:1048A000259134913093910320939003FC01EB57B1
:1048B000F54EE491E093980380918C03082E000C50
:1048C000990BFC01EF58F54EE491F0E0EE0FFF1F5D
:1048D000E35AF54EA591B491B0939303A09392033C
:1048E000FC01EB57F54EE491E09399038C91E09530
:1048F000E823EC9375CD8091820390918303892BFB
:1049000031F08091A5039091A6030E942E12E091B0
:104910009603F0919703908180919B038095892362
:10492000808390CD8FE9CDCD8036910569F480915B
:104930006D0390916E03409739F480918903813023
:1049400029F08FEA8093A403C2E0BECD80E1FACFC4
:10495000E0919603F0919703808190919B03892BBE
:104960008083EECD8B8D9C8D892B21F08EAD9FADFC
:104970000E942E12EFA5F8A990818CA98095892319
:1049800080830DCEEFA5F8A980819CA9892B808317
:1049900015CE8B8D9C8D892B21F08EAD9FAD0E9405
:1049A0002E12EFA5F8A990818CA980958923808388
:1049B0001CCEEFA5F8A980819CA9892B808328CEE5
:1049C0008FE291E090936803809367038091860360
:1049D00090918703009711F00C9403280895AA1B67
:1049E000BB1B51E107C0AA1FBB1FA617B70710F0DA
:1049F000A61BB70B881F991F5A95A9F7809590950C
:104A0000BC01CD010895A1E21A2EAA1BBB1BFD011A
:104A10000DC0AA1FBB1FEE1FFF1FA217B307E4079D
:104A2000F50720F0A21BB30BE40BF50B661F771FF5
:104A3000881F991F1A9469F76095709580959095D5
:104A40009B01AC01BD01CF010895EE0FFF1F059042
:104A5000F491E02D09945058BB27AA270E944325C2
:104A60000C94B6260E94A82638F00E94AF2620F0AB
:104A700039F49F3F19F426F40C94A5260EF4E09522
:104A8000E7FB0C949F26E92F0E94C72658F3BA171C
:104A9000620773078407950720F079F4A6F50C9454
:104AA000E9260EF4E0950B2EBA2FA02D0B01B901CB
:104AB00090010C01CA01A0011124FF27591B99F094
:104AC000593F50F4503E68F11A16F040A22F232FA0
:104AD000342F4427585FF3CF469537952795A795F0
:104AE000F0405395C9F77EF41F16BA0B620B730B97
:104AF000840BBAF09150A1F0FF0FBB1F661F771F08
:104B0000881FC2F70EC0BA0F621F731F841F48F4BC
:104B1000879577956795B795F7959E3F08F0B0CF45
:104B20009395880F08F09927EE0F9795879508952C
:104B30000E947B2608F481E008950E94B1250C9420
:104B4000B6260E94AF2658F00E94A82640F029F40D
:104B50005F3F29F00C949F2651110C94EA260C9487
:104B6000A5260E94C72668F39923B1F3552391F334
:104B7000951B550BBB27AA2762177307840738F0CC
:104B80009F5F5F4F220F331F441FAA1FA9F335D029
:104B90000E2E3AF0E0E832D091505040E695001CDD
:104BA000CAF72BD0FE2F29D0660F771F881FBB1F97
:104BB000261737074807AB07B0E809F0BB0B802D75
:104BC000BF01FF2793585F4F3AF09E3F510578F0A1
:104BD0000C949F260C94EA265F3FE4F3983ED4F3AE
:104BE000869577956795B795F7959F5FC9F7880F75
:104BF000911D9695879597F90895E1E0660F771FC7
:104C0000881FBB1F621773078407BA0720F0621B57
:104C1000730B840BBA0BEE1F88F7E09508950E9482
:104C2000CF2688F09F5798F0B92F9927B751B0F049
:104C3000E1F0660F771F881F991F1AF0BA95C9F720
:104C400014C0B13091F00E94E926B1E008950C94AF
:104C5000E926672F782F8827B85F39F0B93FCCF362
:104C6000869577956795B395D9F73EF4909580959D
:104C7000709561957F4F8F4F9F4F0895E89409C0BD
:104C800097FB3EF490958095709561957F4F8F4F7F
:104C90009F4F9923A9F0F92F96E9BB279395F69595
:104CA000879577956795B795F111F8CFFAF4BB0F13
:104CB00011F460FF1BC06F5F7F4F8F4F9F4F16C077
:104CC000882311F096E911C0772321F09EE8872F01
:104CD000762F05C0662371F096E8862F70E060E0BD
:104CE0002AF09A95660F771F881FDAF7880F969536
:104CF000879597F90895990F0008550FAA0BE0E8DA
:104D0000FEEF16161706E807F907C0F0121613068D
:104D1000E407F50798F0621B730B840B950B39F4CD
:104D20000A2661F0232B242B252B21F408950A2633
:104D300009F4A140A6958FEF811D811D089597F973
:104D40009F6780E870E060E008959FEF80EC089531
:104D500000240A941616170618060906089500245A
:104D60000A9412161306140605060895092E0394D4
:104D7000000C11F4882352F0BB0F40F4BF2B11F448
:104D800060FF04C06F5F7F4F8F4F9F4F089557FDA7
:104D90009058440F551F59F05F3F71F04795880FA9
:104DA00097FB991F61F09F3F79F087950895121640
:104DB00013061406551FF2CF4695F1DF08C01616EC
:104DC00017061806991FF1CF86957105610508949D
:104DD0000895E894BB2766277727CB0197F90895B4
:104DE0000E947B2608F48FEF08950E9408270C94F8
:104DF000B6260E94A82638F00E94AF2620F0952300
:104E000011F00C949F260C94A52611240C94EA26EC
:104E10000E94C72670F3959FC1F3950F50E0551F70
:104E2000629FF001729FBB27F00DB11D639FAA27FF
:104E3000F00DB11DAA1F649F6627B00DA11D661F4E
:104E4000829F2227B00DA11D621F739FB00DA11D6F
:104E5000621F839FA00D611D221F749F3327A00D29
:104E6000611D231F849F600D211D822F762F6A2FC5
:104E700011249F5750409AF0F1F088234AF0EE0F2A
:104E8000FF1FBB1F661F771F881F91505040A9F757
:104E90009E3F510580F00C949F260C94EA265F3FBC
:104EA000E4F3983ED4F3869577956795B795F79593
:104EB000E7959F5FC1F7FE2B880F911D969587950B
:104EC00097F908950E947B26880B990B08950F93FC
:104ED0001F93CF93DF938230910510F482E090E02E
:104EE000E091A903F091AA0330E020E0B0E0A0E057
:104EF000309799F42115310509F44AC0281B390B64
:104F000024303105D8F58A819B816115710589F1BD
:104F1000FB0193838283FE0111C040815181028194
:104F2000138148175907E0F04817590799F410976B
:104F300061F012960C93129713961C933296CF0140
:104F4000DF91CF911F910F9108950093A9031093C2
:104F5000AA03F4CF2115310551F04217530738F059
:104F6000A901DB019A01BD01DF01F801C1CFEF0109
:104F7000F9CF9093AA038093A903CDCFFE01E20F4E
:104F8000F31F819391932250310939832883D7CF1E
:104F90002091A7033091A803232B41F42091030112
:104FA000309104013093A8032093A70320910101BD
:104FB000309102012115310541F42DB73EB74091E2
:104FC000050150910601241B350BE091A703F091D8
:104FD000A803E217F307A0F42E1B3F0B281739078D
:104FE00078F0AC014E5F5F4F2417350748F04E0F45
:104FF0005F1F5093A8034093A703819391939FCF82
:10500000F0E0E0E09CCFCF93DF930097E9F0FC0164
:10501000329713821282A091A903B091AA03ED01E5
:1050200030E020E01097A1F420813181820F931F9E
:105030002091A7033091A8032817390709F061C010
:10504000F093A803E093A703DF91CF910895EA01BD
:10505000CE17DF07E8F54A815B819E0141155105B6
:10506000B1F7E901FB83EA8349915991C40FD51F38
:10507000EC17FD0761F4808191810296840F951FE2
:10508000E90199838883828193819B838A83F0E0FD
:10509000E0E012968D919C9113970097B9F52D91B0
:1050A0003C911197CD010296820F931F2091A70387
:1050B0003091A8032817390739F6309751F5109227
:1050C000AA031092A903B093A803A093A703BCCF8F
:1050D000D383C28340815181840F951FC817D9079C
:1050E00061F44E5F5F4F88819981480F591F51834A
:1050F00040838A819B81938382832115310509F046
:10510000B0CFF093AA03E093A9039ECFFD01DC0189
:10511000C0CF13821282D7CF81E090E0F8940C9434
:105120009828DC0101C06D9341505040E0F708958C
:105130001DE0CEE4DDE004C0FE010E94252521969D
:0A514000CF34D107C9F7F894FFCF70
:10514A00010000AB03800000000000630FC30EF0F3
:10515A000EB00F210FFF0E130F0000000096186902
:10516A0018DF1BE91662184F184018000000006C7F
:10517A0014C30EDF1BC6177711E9161217EA1606B3
:10518A0017FA161917E9163212B31AE71030113244
:10519A001615169D153E150D0A006E616E00696E94
:1051AA0066006F766600446973706C617920696E77
:1051BA0069636961646F20636F6D207375636573DA
:1051CA00736F21004C6967617220646973706C6146
:1051DA007900526564757A6972206272696C686FC7
:1051EA003F200053494D004C696D7061722064691B
:1051FA0073706C61790053686F7720646973706C9F
:10520A0061790074656D706F3A20000974656E7378
:10521A00C3A36F3A200009206D61696F722074651B
:08522A006E73C3A36F3A20006C
:00000001FF
